{
  "contractName": "DiagnosticManager",
  "abi": [
    {
      "inputs": [
        {
          "internalType": "contract DiagnosticToken",
          "name": "_diagnosticToken",
          "type": "address"
        }
      ],
      "stateMutability": "nonpayable",
      "type": "constructor"
    },
    {
      "anonymous": false,
      "inputs": [
        {
          "indexed": false,
          "internalType": "address",
          "name": "diagnosticianAddress",
          "type": "address"
        }
      ],
      "name": "AskedVerification",
      "type": "event"
    },
    {
      "anonymous": false,
      "inputs": [
        {
          "indexed": false,
          "internalType": "uint256",
          "name": "itemId",
          "type": "uint256"
        },
        {
          "indexed": false,
          "internalType": "address",
          "name": "diagnosticianAddress",
          "type": "address"
        },
        {
          "indexed": false,
          "internalType": "string",
          "name": "tokenURI",
          "type": "string"
        }
      ],
      "name": "DiagnosticCreated",
      "type": "event"
    },
    {
      "anonymous": false,
      "inputs": [
        {
          "indexed": false,
          "internalType": "address",
          "name": "diagnosticianAddress",
          "type": "address"
        }
      ],
      "name": "DiagnosticianCertified",
      "type": "event"
    },
    {
      "anonymous": false,
      "inputs": [
        {
          "indexed": true,
          "internalType": "address",
          "name": "previousOwner",
          "type": "address"
        },
        {
          "indexed": true,
          "internalType": "address",
          "name": "newOwner",
          "type": "address"
        }
      ],
      "name": "OwnershipTransferred",
      "type": "event"
    },
    {
      "anonymous": false,
      "inputs": [
        {
          "indexed": true,
          "internalType": "bytes32",
          "name": "role",
          "type": "bytes32"
        },
        {
          "indexed": true,
          "internalType": "bytes32",
          "name": "previousAdminRole",
          "type": "bytes32"
        },
        {
          "indexed": true,
          "internalType": "bytes32",
          "name": "newAdminRole",
          "type": "bytes32"
        }
      ],
      "name": "RoleAdminChanged",
      "type": "event"
    },
    {
      "anonymous": false,
      "inputs": [
        {
          "indexed": true,
          "internalType": "bytes32",
          "name": "role",
          "type": "bytes32"
        },
        {
          "indexed": true,
          "internalType": "address",
          "name": "account",
          "type": "address"
        },
        {
          "indexed": true,
          "internalType": "address",
          "name": "sender",
          "type": "address"
        }
      ],
      "name": "RoleGranted",
      "type": "event"
    },
    {
      "anonymous": false,
      "inputs": [
        {
          "indexed": true,
          "internalType": "bytes32",
          "name": "role",
          "type": "bytes32"
        },
        {
          "indexed": true,
          "internalType": "address",
          "name": "account",
          "type": "address"
        },
        {
          "indexed": true,
          "internalType": "address",
          "name": "sender",
          "type": "address"
        }
      ],
      "name": "RoleRevoked",
      "type": "event"
    },
    {
      "inputs": [],
      "name": "DEFAULT_ADMIN_ROLE",
      "outputs": [
        {
          "internalType": "bytes32",
          "name": "",
          "type": "bytes32"
        }
      ],
      "stateMutability": "view",
      "type": "function",
      "constant": true
    },
    {
      "inputs": [],
      "name": "MINTER_ROLE",
      "outputs": [
        {
          "internalType": "bytes32",
          "name": "",
          "type": "bytes32"
        }
      ],
      "stateMutability": "view",
      "type": "function",
      "constant": true
    },
    {
      "inputs": [
        {
          "internalType": "address",
          "name": "",
          "type": "address"
        }
      ],
      "name": "diagnosticians",
      "outputs": [
        {
          "internalType": "string",
          "name": "id",
          "type": "string"
        },
        {
          "internalType": "string",
          "name": "name",
          "type": "string"
        },
        {
          "internalType": "bool",
          "name": "isCertified",
          "type": "bool"
        }
      ],
      "stateMutability": "view",
      "type": "function",
      "constant": true
    },
    {
      "inputs": [
        {
          "internalType": "bytes32",
          "name": "role",
          "type": "bytes32"
        }
      ],
      "name": "getRoleAdmin",
      "outputs": [
        {
          "internalType": "bytes32",
          "name": "",
          "type": "bytes32"
        }
      ],
      "stateMutability": "view",
      "type": "function",
      "constant": true
    },
    {
      "inputs": [
        {
          "internalType": "bytes32",
          "name": "role",
          "type": "bytes32"
        },
        {
          "internalType": "address",
          "name": "account",
          "type": "address"
        }
      ],
      "name": "grantRole",
      "outputs": [],
      "stateMutability": "nonpayable",
      "type": "function"
    },
    {
      "inputs": [
        {
          "internalType": "bytes32",
          "name": "role",
          "type": "bytes32"
        },
        {
          "internalType": "address",
          "name": "account",
          "type": "address"
        }
      ],
      "name": "hasRole",
      "outputs": [
        {
          "internalType": "bool",
          "name": "",
          "type": "bool"
        }
      ],
      "stateMutability": "view",
      "type": "function",
      "constant": true
    },
    {
      "inputs": [],
      "name": "owner",
      "outputs": [
        {
          "internalType": "address",
          "name": "",
          "type": "address"
        }
      ],
      "stateMutability": "view",
      "type": "function",
      "constant": true
    },
    {
      "inputs": [],
      "name": "renounceOwnership",
      "outputs": [],
      "stateMutability": "nonpayable",
      "type": "function"
    },
    {
      "inputs": [
        {
          "internalType": "bytes32",
          "name": "role",
          "type": "bytes32"
        },
        {
          "internalType": "address",
          "name": "account",
          "type": "address"
        }
      ],
      "name": "renounceRole",
      "outputs": [],
      "stateMutability": "nonpayable",
      "type": "function"
    },
    {
      "inputs": [
        {
          "internalType": "bytes32",
          "name": "role",
          "type": "bytes32"
        },
        {
          "internalType": "address",
          "name": "account",
          "type": "address"
        }
      ],
      "name": "revokeRole",
      "outputs": [],
      "stateMutability": "nonpayable",
      "type": "function"
    },
    {
      "inputs": [
        {
          "internalType": "string",
          "name": "",
          "type": "string"
        }
      ],
      "name": "siretToDiagnostician",
      "outputs": [
        {
          "internalType": "address",
          "name": "",
          "type": "address"
        }
      ],
      "stateMutability": "view",
      "type": "function",
      "constant": true
    },
    {
      "inputs": [
        {
          "internalType": "bytes4",
          "name": "interfaceId",
          "type": "bytes4"
        }
      ],
      "name": "supportsInterface",
      "outputs": [
        {
          "internalType": "bool",
          "name": "",
          "type": "bool"
        }
      ],
      "stateMutability": "view",
      "type": "function",
      "constant": true
    },
    {
      "inputs": [
        {
          "internalType": "address",
          "name": "newOwner",
          "type": "address"
        }
      ],
      "name": "transferOwnership",
      "outputs": [],
      "stateMutability": "nonpayable",
      "type": "function"
    },
    {
      "inputs": [],
      "name": "myself",
      "outputs": [
        {
          "components": [
            {
              "components": [
                {
                  "internalType": "string",
                  "name": "id",
                  "type": "string"
                },
                {
                  "internalType": "string",
                  "name": "name",
                  "type": "string"
                },
                {
                  "internalType": "bool",
                  "name": "isCertified",
                  "type": "bool"
                }
              ],
              "internalType": "struct DiagnosticStructs.Diagnostician",
              "name": "diagnostician",
              "type": "tuple"
            },
            {
              "components": [
                {
                  "components": [
                    {
                      "internalType": "string",
                      "name": "id",
                      "type": "string"
                    },
                    {
                      "components": [
                        {
                          "internalType": "string",
                          "name": "name",
                          "type": "string"
                        },
                        {
                          "internalType": "string",
                          "name": "diagnosticType",
                          "type": "string"
                        },
                        {
                          "components": [
                            {
                              "internalType": "string",
                              "name": "id",
                              "type": "string"
                            },
                            {
                              "internalType": "string",
                              "name": "name",
                              "type": "string"
                            },
                            {
                              "internalType": "bool",
                              "name": "isCertified",
                              "type": "bool"
                            }
                          ],
                          "internalType": "struct DiagnosticStructs.Diagnostician",
                          "name": "madeBy",
                          "type": "tuple"
                        }
                      ],
                      "internalType": "struct DiagnosticStructs.Diagnostic[]",
                      "name": "diagnostics",
                      "type": "tuple[]"
                    },
                    {
                      "internalType": "string",
                      "name": "typeOfProperty",
                      "type": "string"
                    }
                  ],
                  "internalType": "struct DiagnosticStructs.Property[]",
                  "name": "properties",
                  "type": "tuple[]"
                }
              ],
              "internalType": "struct DiagnosticStructs.PropertyOwner",
              "name": "propertyOwner",
              "type": "tuple"
            }
          ],
          "internalType": "struct DiagnosticStructs.UserInfo",
          "name": "",
          "type": "tuple"
        }
      ],
      "stateMutability": "view",
      "type": "function",
      "constant": true
    },
    {
      "inputs": [
        {
          "internalType": "address",
          "name": "_addr",
          "type": "address"
        }
      ],
      "name": "getDiagnostician",
      "outputs": [
        {
          "components": [
            {
              "internalType": "string",
              "name": "id",
              "type": "string"
            },
            {
              "internalType": "string",
              "name": "name",
              "type": "string"
            },
            {
              "internalType": "bool",
              "name": "isCertified",
              "type": "bool"
            }
          ],
          "internalType": "struct DiagnosticStructs.Diagnostician",
          "name": "",
          "type": "tuple"
        }
      ],
      "stateMutability": "view",
      "type": "function",
      "constant": true
    },
    {
      "inputs": [
        {
          "internalType": "uint256",
          "name": "tokenId",
          "type": "uint256"
        }
      ],
      "name": "getDiagnosticURI",
      "outputs": [
        {
          "internalType": "string",
          "name": "",
          "type": "string"
        }
      ],
      "stateMutability": "view",
      "type": "function",
      "constant": true
    },
    {
      "inputs": [
        {
          "internalType": "uint256",
          "name": "tokenId",
          "type": "uint256"
        }
      ],
      "name": "getDiagnosticHash",
      "outputs": [
        {
          "internalType": "string",
          "name": "",
          "type": "string"
        }
      ],
      "stateMutability": "view",
      "type": "function",
      "constant": true
    },
    {
      "inputs": [
        {
          "internalType": "address",
          "name": "_addr",
          "type": "address"
        }
      ],
      "name": "certifyDiagnostician",
      "outputs": [],
      "stateMutability": "nonpayable",
      "type": "function"
    },
    {
      "inputs": [
        {
          "internalType": "string",
          "name": "_name",
          "type": "string"
        },
        {
          "internalType": "string",
          "name": "_siret",
          "type": "string"
        }
      ],
      "name": "askForVerification",
      "outputs": [],
      "stateMutability": "nonpayable",
      "type": "function"
    },
    {
      "inputs": [
        {
          "internalType": "address",
          "name": "_diagnostician",
          "type": "address"
        },
        {
          "internalType": "string",
          "name": "_pdfHash",
          "type": "string"
        },
        {
          "internalType": "string",
          "name": "_tokenURI",
          "type": "string"
        }
      ],
      "name": "createDiagnostic",
      "outputs": [
        {
          "internalType": "uint256",
          "name": "",
          "type": "uint256"
        }
      ],
      "stateMutability": "nonpayable",
      "type": "function"
    }
  ],
  "bytecode": "0x60806040523480156200001157600080fd5b5060405162003661380380620036618339818101604052810190620000379190620003a3565b620000576200004b620000e660201b60201c565b620000ee60201b60201c565b6200006c6000801b33620001b460201b60201c565b6200009e7f9f2df0fed2c77648de5860a4cc508cd0818c85b8b8a1ab4ceeef8d981c8956a633620001b460201b60201c565b80600360006101000a81548173ffffffffffffffffffffffffffffffffffffffff021916908373ffffffffffffffffffffffffffffffffffffffff16021790555050620003d5565b600033905090565b6000600160009054906101000a900473ffffffffffffffffffffffffffffffffffffffff16905081600160006101000a81548173ffffffffffffffffffffffffffffffffffffffff021916908373ffffffffffffffffffffffffffffffffffffffff1602179055508173ffffffffffffffffffffffffffffffffffffffff168173ffffffffffffffffffffffffffffffffffffffff167f8be0079c531659141344cd1fd0a4f28419497f9722a3daafe3b4186f6b6457e060405160405180910390a35050565b620001c68282620001ca60201b60201c565b5050565b620001dc8282620002bb60201b60201c565b620002b757600160008084815260200190815260200160002060000160008373ffffffffffffffffffffffffffffffffffffffff1673ffffffffffffffffffffffffffffffffffffffff16815260200190815260200160002060006101000a81548160ff0219169083151502179055506200025c620000e660201b60201c565b73ffffffffffffffffffffffffffffffffffffffff168173ffffffffffffffffffffffffffffffffffffffff16837f2f8788117e7eff1d82e926ec794901d17c78024a50270940304540a733656f0d60405160405180910390a45b5050565b600080600084815260200190815260200160002060000160008373ffffffffffffffffffffffffffffffffffffffff1673ffffffffffffffffffffffffffffffffffffffff16815260200190815260200160002060009054906101000a900460ff16905092915050565b600080fd5b600073ffffffffffffffffffffffffffffffffffffffff82169050919050565b600062000357826200032a565b9050919050565b60006200036b826200034a565b9050919050565b6200037d816200035e565b81146200038957600080fd5b50565b6000815190506200039d8162000372565b92915050565b600060208284031215620003bc57620003bb62000325565b5b6000620003cc848285016200038c565b91505092915050565b61327c80620003e56000396000f3fe608060405234801561001057600080fd5b506004361061012c5760003560e01c80638da5cb5b116100ad578063d539139311610071578063d53913931461036b578063d547741f14610389578063ef78c354146103a5578063f2fde38b146103c1578063fde8046a146103dd5761012c565b80638da5cb5b146102b157806391d14854146102cf578063a217fddf146102ff578063a6f305dc1461031d578063d276fd931461034d5761012c565b80632f2ff15d116100f45780632f2ff15d1461020d57806336568abe14610229578063383444d91461024557806365c1b1d314610275578063715018a6146102a75761012c565b806301ebb0ef1461013157806301ffc9a7146101615780631851a37414610191578063186101e7146101ad578063248a9ca3146101dd575b600080fd5b61014b60048036038101906101469190611f0a565b61040d565b6040516101589190612039565b60405180910390f35b61017b600480360381019061017691906120b3565b6105a5565b60405161018891906120ef565b60405180910390f35b6101ab60048036038101906101a69190611f0a565b61061f565b005b6101c760048036038101906101c2919061223f565b61077c565b6040516101d491906122e3565b60405180910390f35b6101f760048036038101906101f29190612334565b610992565b6040516102049190612370565b60405180910390f35b6102276004803603810190610222919061238b565b6109b1565b005b610243600480360381019061023e919061238b565b6109d2565b005b61025f600480360381019061025a91906123f7565b610a55565b60405161026c919061246e565b60405180910390f35b61028f600480360381019061028a9190611f0a565b610aff565b60405161029e93929190612490565b60405180910390f35b6102af610c46565b005b6102b9610c5a565b6040516102c691906124e4565b60405180910390f35b6102e960048036038101906102e4919061238b565b610c84565b6040516102f691906120ef565b60405180910390f35b610307610cee565b6040516103149190612370565b60405180910390f35b610337600480360381019061033291906123f7565b610cf5565b604051610344919061246e565b60405180910390f35b610355610d9f565b6040516103629190612804565b60405180910390f35b6103736114af565b6040516103809190612370565b60405180910390f35b6103a3600480360381019061039e919061238b565b6114d3565b005b6103bf60048036038101906103ba9190612826565b6114f4565b005b6103db60048036038101906103d69190611f0a565b6116d3565b005b6103f760048036038101906103f2919061289e565b611756565b60405161040491906124e4565b60405180910390f35b610415611e3c565b600560008373ffffffffffffffffffffffffffffffffffffffff1673ffffffffffffffffffffffffffffffffffffffff16815260200190815260200160002060405180606001604052908160008201805461046f90612916565b80601f016020809104026020016040519081016040528092919081815260200182805461049b90612916565b80156104e85780601f106104bd576101008083540402835291602001916104e8565b820191906000526020600020905b8154815290600101906020018083116104cb57829003601f168201915b5050505050815260200160018201805461050190612916565b80601f016020809104026020016040519081016040528092919081815260200182805461052d90612916565b801561057a5780601f1061054f5761010080835404028352916020019161057a565b820191906000526020600020905b81548152906001019060200180831161055d57829003601f168201915b505050505081526020016002820160009054906101000a900460ff1615151515815250509050919050565b60007f7965db0b000000000000000000000000000000000000000000000000000000007bffffffffffffffffffffffffffffffffffffffffffffffffffffffff1916827bffffffffffffffffffffffffffffffffffffffffffffffffffffffff1916148061061857506106178261179f565b5b9050919050565b610627611809565b60011515600560008373ffffffffffffffffffffffffffffffffffffffff1673ffffffffffffffffffffffffffffffffffffffff16815260200190815260200160002060020160009054906101000a900460ff161515036106bd576040517f08c379a00000000000000000000000000000000000000000000000000000000081526004016106b490612993565b60405180910390fd5b6106e77f9f2df0fed2c77648de5860a4cc508cd0818c85b8b8a1ab4ceeef8d981c8956a633611887565b6001600560008373ffffffffffffffffffffffffffffffffffffffff1673ffffffffffffffffffffffffffffffffffffffff16815260200190815260200160002060020160006101000a81548160ff0219169083151502179055507f30d05b2025fb2d037233ed74b152f14cada68119b8a2940f327d339e3dcc2e838160405161077191906124e4565b60405180910390a150565b600060011515600560003373ffffffffffffffffffffffffffffffffffffffff1673ffffffffffffffffffffffffffffffffffffffff16815260200190815260200160002060020160009054906101000a900460ff16151514610814576040517f08c379a000000000000000000000000000000000000000000000000000000000815260040161080b90612a25565b60405180910390fd5b61081e6002611967565b600061082a600261197d565b9050600360009054906101000a900473ffffffffffffffffffffffffffffffffffffffff1673ffffffffffffffffffffffffffffffffffffffff16634e983a858683866040518463ffffffff1660e01b815260040161088b93929190612a45565b600060405180830381600087803b1580156108a557600080fd5b505af11580156108b9573d6000803e3d6000fd5b50505050600360009054906101000a900473ffffffffffffffffffffffffffffffffffffffff1673ffffffffffffffffffffffffffffffffffffffff166311cf3d3382866040518363ffffffff1660e01b815260040161091a929190612a83565b600060405180830381600087803b15801561093457600080fd5b505af1158015610948573d6000803e3d6000fd5b505050507fc21a1f57d37ce53008ed6b8a74a0edf2e6bfe584c32a262b817480c8a73a129b81868560405161097f93929190612ab3565b60405180910390a1809150509392505050565b6000806000838152602001908152602001600020600101549050919050565b6109ba82610992565b6109c38161198b565b6109cd8383611887565b505050565b6109da61199f565b73ffffffffffffffffffffffffffffffffffffffff168173ffffffffffffffffffffffffffffffffffffffff1614610a47576040517f08c379a0000000000000000000000000000000000000000000000000000000008152600401610a3e90612b63565b60405180910390fd5b610a5182826119a7565b5050565b6060600360009054906101000a900473ffffffffffffffffffffffffffffffffffffffff1673ffffffffffffffffffffffffffffffffffffffff1663bb9c02f9836040518263ffffffff1660e01b8152600401610ab291906122e3565b600060405180830381865afa158015610acf573d6000803e3d6000fd5b505050506040513d6000823e3d601f19601f82011682018060405250810190610af89190612bf3565b9050919050565b6005602052806000526040600020600091509050806000018054610b2290612916565b80601f0160208091040260200160405190810160405280929190818152602001828054610b4e90612916565b8015610b9b5780601f10610b7057610100808354040283529160200191610b9b565b820191906000526020600020905b815481529060010190602001808311610b7e57829003601f168201915b505050505090806001018054610bb090612916565b80601f0160208091040260200160405190810160405280929190818152602001828054610bdc90612916565b8015610c295780601f10610bfe57610100808354040283529160200191610c29565b820191906000526020600020905b815481529060010190602001808311610c0c57829003601f168201915b5050505050908060020160009054906101000a900460ff16905083565b610c4e611809565b610c586000611a88565b565b6000600160009054906101000a900473ffffffffffffffffffffffffffffffffffffffff16905090565b600080600084815260200190815260200160002060000160008373ffffffffffffffffffffffffffffffffffffffff1673ffffffffffffffffffffffffffffffffffffffff16815260200190815260200160002060009054906101000a900460ff16905092915050565b6000801b81565b6060600360009054906101000a900473ffffffffffffffffffffffffffffffffffffffff1673ffffffffffffffffffffffffffffffffffffffff1663c87b56dd836040518263ffffffff1660e01b8152600401610d5291906122e3565b600060405180830381865afa158015610d6f573d6000803e3d6000fd5b505050506040513d6000823e3d601f19601f82011682018060405250810190610d989190612bf3565b9050919050565b610da7611e5f565b610daf611e3c565b610db7611e85565b6000600560003373ffffffffffffffffffffffffffffffffffffffff1673ffffffffffffffffffffffffffffffffffffffff1681526020019081526020016000206001018054610e0690612916565b90501115610f9e57600560003373ffffffffffffffffffffffffffffffffffffffff1673ffffffffffffffffffffffffffffffffffffffff168152602001908152602001600020604051806060016040529081600082018054610e6890612916565b80601f0160208091040260200160405190810160405280929190818152602001828054610e9490612916565b8015610ee15780601f10610eb657610100808354040283529160200191610ee1565b820191906000526020600020905b815481529060010190602001808311610ec457829003601f168201915b50505050508152602001600182018054610efa90612916565b80601f0160208091040260200160405190810160405280929190818152602001828054610f2690612916565b8015610f735780601f10610f4857610100808354040283529160200191610f73565b820191906000526020600020905b815481529060010190602001808311610f5657829003601f168201915b505050505081526020016002820160009054906101000a900460ff1615151515815250509150611493565b6000600660003373ffffffffffffffffffffffffffffffffffffffff1673ffffffffffffffffffffffffffffffffffffffff16815260200190815260200160002060000180549050111561149257600660003373ffffffffffffffffffffffffffffffffffffffff1673ffffffffffffffffffffffffffffffffffffffff16815260200190815260200160002060405180602001604052908160008201805480602002602001604051908101604052809291908181526020016000905b82821015611487578382906000526020600020906003020160405180606001604052908160008201805461108e90612916565b80601f01602080910402602001604051908101604052809291908181526020018280546110ba90612916565b80156111075780601f106110dc57610100808354040283529160200191611107565b820191906000526020600020905b8154815290600101906020018083116110ea57829003601f168201915b5050505050815260200160018201805480602002602001604051908101604052809291908181526020016000905b828210156113de578382906000526020600020906005020160405180606001604052908160008201805461116890612916565b80601f016020809104026020016040519081016040528092919081815260200182805461119490612916565b80156111e15780601f106111b6576101008083540402835291602001916111e1565b820191906000526020600020905b8154815290600101906020018083116111c457829003601f168201915b505050505081526020016001820180546111fa90612916565b80601f016020809104026020016040519081016040528092919081815260200182805461122690612916565b80156112735780601f1061124857610100808354040283529160200191611273565b820191906000526020600020905b81548152906001019060200180831161125657829003601f168201915b505050505081526020016002820160405180606001604052908160008201805461129c90612916565b80601f01602080910402602001604051908101604052809291908181526020018280546112c890612916565b80156113155780601f106112ea57610100808354040283529160200191611315565b820191906000526020600020905b8154815290600101906020018083116112f857829003601f168201915b5050505050815260200160018201805461132e90612916565b80601f016020809104026020016040519081016040528092919081815260200182805461135a90612916565b80156113a75780601f1061137c576101008083540402835291602001916113a7565b820191906000526020600020905b81548152906001019060200180831161138a57829003601f168201915b505050505081526020016002820160009054906101000a900460ff1615151515815250508152505081526020019060010190611135565b5050505081526020016002820180546113f690612916565b80601f016020809104026020016040519081016040528092919081815260200182805461142290612916565b801561146f5780601f106114445761010080835404028352916020019161146f565b820191906000526020600020905b81548152906001019060200180831161145257829003601f168201915b5050505050815250508152602001906001019061105b565b505050508152505090505b5b6040518060400160405280838152602001828152509250505090565b7f9f2df0fed2c77648de5860a4cc508cd0818c85b8b8a1ab4ceeef8d981c8956a681565b6114dc82610992565b6114e58161198b565b6114ef83836119a7565b505050565b600033905060011515600560008373ffffffffffffffffffffffffffffffffffffffff1673ffffffffffffffffffffffffffffffffffffffff16815260200190815260200160002060020160009054906101000a900460ff1615150361158f576040517f08c379a000000000000000000000000000000000000000000000000000000000815260040161158690612993565b60405180910390fd5b82600560008373ffffffffffffffffffffffffffffffffffffffff1673ffffffffffffffffffffffffffffffffffffffff16815260200190815260200160002060010190816115de9190612de8565b506000600560008373ffffffffffffffffffffffffffffffffffffffff1673ffffffffffffffffffffffffffffffffffffffff16815260200190815260200160002060020160006101000a81548160ff0219169083151502179055503360048360405161164b9190612ef6565b908152602001604051809103902060006101000a81548173ffffffffffffffffffffffffffffffffffffffff021916908373ffffffffffffffffffffffffffffffffffffffff1602179055507fdb93a33261a88e8784b5e49bf38f3c65c17793892e2c0c1c37f5d962eb4df3f6816040516116c691906124e4565b60405180910390a1505050565b6116db611809565b600073ffffffffffffffffffffffffffffffffffffffff168173ffffffffffffffffffffffffffffffffffffffff160361174a576040517f08c379a000000000000000000000000000000000000000000000000000000000815260040161174190612f7f565b60405180910390fd5b61175381611a88565b50565b6004818051602081018201805184825260208301602085012081835280955050505050506000915054906101000a900473ffffffffffffffffffffffffffffffffffffffff1681565b60007f01ffc9a7000000000000000000000000000000000000000000000000000000007bffffffffffffffffffffffffffffffffffffffffffffffffffffffff1916827bffffffffffffffffffffffffffffffffffffffffffffffffffffffff1916149050919050565b61181161199f565b73ffffffffffffffffffffffffffffffffffffffff1661182f610c5a565b73ffffffffffffffffffffffffffffffffffffffff1614611885576040517f08c379a000000000000000000000000000000000000000000000000000000000815260040161187c90612feb565b60405180910390fd5b565b6118918282610c84565b61196357600160008084815260200190815260200160002060000160008373ffffffffffffffffffffffffffffffffffffffff1673ffffffffffffffffffffffffffffffffffffffff16815260200190815260200160002060006101000a81548160ff02191690831515021790555061190861199f565b73ffffffffffffffffffffffffffffffffffffffff168173ffffffffffffffffffffffffffffffffffffffff16837f2f8788117e7eff1d82e926ec794901d17c78024a50270940304540a733656f0d60405160405180910390a45b5050565b6001816000016000828254019250508190555050565b600081600001549050919050565b61199c8161199761199f565b611b4e565b50565b600033905090565b6119b18282610c84565b15611a8457600080600084815260200190815260200160002060000160008373ffffffffffffffffffffffffffffffffffffffff1673ffffffffffffffffffffffffffffffffffffffff16815260200190815260200160002060006101000a81548160ff021916908315150217905550611a2961199f565b73ffffffffffffffffffffffffffffffffffffffff168173ffffffffffffffffffffffffffffffffffffffff16837ff6391f5c32d9c69d2a47ea670b442974b53935d1edc7fd64eb21e047a839171b60405160405180910390a45b5050565b6000600160009054906101000a900473ffffffffffffffffffffffffffffffffffffffff16905081600160006101000a81548173ffffffffffffffffffffffffffffffffffffffff021916908373ffffffffffffffffffffffffffffffffffffffff1602179055508173ffffffffffffffffffffffffffffffffffffffff168173ffffffffffffffffffffffffffffffffffffffff167f8be0079c531659141344cd1fd0a4f28419497f9722a3daafe3b4186f6b6457e060405160405180910390a35050565b611b588282610c84565b611bcf57611b6581611bd3565b611b738360001c6020611c00565b604051602001611b849291906130a3565b6040516020818303038152906040526040517f08c379a0000000000000000000000000000000000000000000000000000000008152600401611bc6919061246e565b60405180910390fd5b5050565b6060611bf98273ffffffffffffffffffffffffffffffffffffffff16601460ff16611c00565b9050919050565b606060006002836002611c13919061310c565b611c1d919061314e565b67ffffffffffffffff811115611c3657611c35612114565b5b6040519080825280601f01601f191660200182016040528015611c685781602001600182028036833780820191505090505b5090507f300000000000000000000000000000000000000000000000000000000000000081600081518110611ca057611c9f613182565b5b60200101907effffffffffffffffffffffffffffffffffffffffffffffffffffffffffffff1916908160001a9053507f780000000000000000000000000000000000000000000000000000000000000081600181518110611d0457611d03613182565b5b60200101907effffffffffffffffffffffffffffffffffffffffffffffffffffffffffffff1916908160001a90535060006001846002611d44919061310c565b611d4e919061314e565b90505b6001811115611dee577f3031323334353637383961626364656600000000000000000000000000000000600f861660108110611d9057611d8f613182565b5b1a60f81b828281518110611da757611da6613182565b5b60200101907effffffffffffffffffffffffffffffffffffffffffffffffffffffffffffff1916908160001a905350600485901c945080611de7906131b1565b9050611d51565b5060008414611e32576040517f08c379a0000000000000000000000000000000000000000000000000000000008152600401611e2990613226565b60405180910390fd5b8091505092915050565b604051806060016040528060608152602001606081526020016000151581525090565b6040518060400160405280611e72611e3c565b8152602001611e7f611e85565b81525090565b6040518060200160405280606081525090565b6000604051905090565b600080fd5b600080fd5b600073ffffffffffffffffffffffffffffffffffffffff82169050919050565b6000611ed782611eac565b9050919050565b611ee781611ecc565b8114611ef257600080fd5b50565b600081359050611f0481611ede565b92915050565b600060208284031215611f2057611f1f611ea2565b5b6000611f2e84828501611ef5565b91505092915050565b600081519050919050565b600082825260208201905092915050565b60005b83811015611f71578082015181840152602081019050611f56565b60008484015250505050565b6000601f19601f8301169050919050565b6000611f9982611f37565b611fa38185611f42565b9350611fb3818560208601611f53565b611fbc81611f7d565b840191505092915050565b60008115159050919050565b611fdc81611fc7565b82525050565b60006060830160008301518482036000860152611fff8282611f8e565b915050602083015184820360208601526120198282611f8e565b915050604083015161202e6040860182611fd3565b508091505092915050565b600060208201905081810360008301526120538184611fe2565b905092915050565b60007fffffffff0000000000000000000000000000000000000000000000000000000082169050919050565b6120908161205b565b811461209b57600080fd5b50565b6000813590506120ad81612087565b92915050565b6000602082840312156120c9576120c8611ea2565b5b60006120d78482850161209e565b91505092915050565b6120e981611fc7565b82525050565b600060208201905061210460008301846120e0565b92915050565b600080fd5b600080fd5b7f4e487b7100000000000000000000000000000000000000000000000000000000600052604160045260246000fd5b61214c82611f7d565b810181811067ffffffffffffffff8211171561216b5761216a612114565b5b80604052505050565b600061217e611e98565b905061218a8282612143565b919050565b600067ffffffffffffffff8211156121aa576121a9612114565b5b6121b382611f7d565b9050602081019050919050565b82818337600083830152505050565b60006121e26121dd8461218f565b612174565b9050828152602081018484840111156121fe576121fd61210f565b5b6122098482856121c0565b509392505050565b600082601f8301126122265761222561210a565b5b81356122368482602086016121cf565b91505092915050565b60008060006060848603121561225857612257611ea2565b5b600061226686828701611ef5565b935050602084013567ffffffffffffffff81111561228757612286611ea7565b5b61229386828701612211565b925050604084013567ffffffffffffffff8111156122b4576122b3611ea7565b5b6122c086828701612211565b9150509250925092565b6000819050919050565b6122dd816122ca565b82525050565b60006020820190506122f860008301846122d4565b92915050565b6000819050919050565b612311816122fe565b811461231c57600080fd5b50565b60008135905061232e81612308565b92915050565b60006020828403121561234a57612349611ea2565b5b60006123588482850161231f565b91505092915050565b61236a816122fe565b82525050565b60006020820190506123856000830184612361565b92915050565b600080604083850312156123a2576123a1611ea2565b5b60006123b08582860161231f565b92505060206123c185828601611ef5565b9150509250929050565b6123d4816122ca565b81146123df57600080fd5b50565b6000813590506123f1816123cb565b92915050565b60006020828403121561240d5761240c611ea2565b5b600061241b848285016123e2565b91505092915050565b600082825260208201905092915050565b600061244082611f37565b61244a8185612424565b935061245a818560208601611f53565b61246381611f7d565b840191505092915050565b600060208201905081810360008301526124888184612435565b905092915050565b600060608201905081810360008301526124aa8186612435565b905081810360208301526124be8185612435565b90506124cd60408301846120e0565b949350505050565b6124de81611ecc565b82525050565b60006020820190506124f960008301846124d5565b92915050565b6000606083016000830151848203600086015261251c8282611f8e565b915050602083015184820360208601526125368282611f8e565b915050604083015161254b6040860182611fd3565b508091505092915050565b600081519050919050565b600082825260208201905092915050565b6000819050602082019050919050565b600081519050919050565b600082825260208201905092915050565b6000819050602082019050919050565b600060608301600083015184820360008601526125cb8282611f8e565b915050602083015184820360208601526125e58282611f8e565b915050604083015184820360408601526125ff82826124ff565b9150508091505092915050565b600061261883836125ae565b905092915050565b6000602082019050919050565b600061263882612582565b612642818561258d565b9350836020820285016126548561259e565b8060005b858110156126905784840389528151612671858261260c565b945061267c83612620565b925060208a01995050600181019050612658565b50829750879550505050505092915050565b600060608301600083015184820360008601526126bf8282611f8e565b915050602083015184820360208601526126d9828261262d565b915050604083015184820360408601526126f38282611f8e565b9150508091505092915050565b600061270c83836126a2565b905092915050565b6000602082019050919050565b600061272c82612556565b6127368185612561565b93508360208202850161274885612572565b8060005b8581101561278457848403895281516127658582612700565b945061277083612714565b925060208a0199505060018101905061274c565b50829750879550505050505092915050565b600060208301600083015184820360008601526127b38282612721565b9150508091505092915050565b600060408301600083015184820360008601526127dd82826124ff565b915050602083015184820360208601526127f78282612796565b9150508091505092915050565b6000602082019050818103600083015261281e81846127c0565b905092915050565b6000806040838503121561283d5761283c611ea2565b5b600083013567ffffffffffffffff81111561285b5761285a611ea7565b5b61286785828601612211565b925050602083013567ffffffffffffffff81111561288857612887611ea7565b5b61289485828601612211565b9150509250929050565b6000602082840312156128b4576128b3611ea2565b5b600082013567ffffffffffffffff8111156128d2576128d1611ea7565b5b6128de84828501612211565b91505092915050565b7f4e487b7100000000000000000000000000000000000000000000000000000000600052602260045260246000fd5b6000600282049050600182168061292e57607f821691505b602082108103612941576129406128e7565b5b50919050565b7f416c726561647920636572746966696564000000000000000000000000000000600082015250565b600061297d601183612424565b915061298882612947565b602082019050919050565b600060208201905081810360008301526129ac81612970565b9050919050565b7f596f75277265206e6f7420612063657274696669656420646961676e6f73746960008201527f6369616e00000000000000000000000000000000000000000000000000000000602082015250565b6000612a0f602483612424565b9150612a1a826129b3565b604082019050919050565b60006020820190508181036000830152612a3e81612a02565b9050919050565b6000606082019050612a5a60008301866124d5565b612a6760208301856122d4565b8181036040830152612a798184612435565b9050949350505050565b6000604082019050612a9860008301856122d4565b8181036020830152612aaa8184612435565b90509392505050565b6000606082019050612ac860008301866122d4565b612ad560208301856124d5565b8181036040830152612ae78184612435565b9050949350505050565b7f416363657373436f6e74726f6c3a2063616e206f6e6c792072656e6f756e636560008201527f20726f6c657320666f722073656c660000000000000000000000000000000000602082015250565b6000612b4d602f83612424565b9150612b5882612af1565b604082019050919050565b60006020820190508181036000830152612b7c81612b40565b9050919050565b6000612b96612b918461218f565b612174565b905082815260208101848484011115612bb257612bb161210f565b5b612bbd848285611f53565b509392505050565b600082601f830112612bda57612bd961210a565b5b8151612bea848260208601612b83565b91505092915050565b600060208284031215612c0957612c08611ea2565b5b600082015167ffffffffffffffff811115612c2757612c26611ea7565b5b612c3384828501612bc5565b91505092915050565b60008190508160005260206000209050919050565b60006020601f8301049050919050565b600082821b905092915050565b600060088302612c9e7fffffffffffffffffffffffffffffffffffffffffffffffffffffffffffffffff82612c61565b612ca88683612c61565b95508019841693508086168417925050509392505050565b6000819050919050565b6000612ce5612ce0612cdb846122ca565b612cc0565b6122ca565b9050919050565b6000819050919050565b612cff83612cca565b612d13612d0b82612cec565b848454612c6e565b825550505050565b600090565b612d28612d1b565b612d33818484612cf6565b505050565b5b81811015612d5757612d4c600082612d20565b600181019050612d39565b5050565b601f821115612d9c57612d6d81612c3c565b612d7684612c51565b81016020851015612d85578190505b612d99612d9185612c51565b830182612d38565b50505b505050565b600082821c905092915050565b6000612dbf60001984600802612da1565b1980831691505092915050565b6000612dd88383612dae565b9150826002028217905092915050565b612df182611f37565b67ffffffffffffffff811115612e0a57612e09612114565b5b612e148254612916565b612e1f828285612d5b565b600060209050601f831160018114612e525760008415612e40578287015190505b612e4a8582612dcc565b865550612eb2565b601f198416612e6086612c3c565b60005b82811015612e8857848901518255600182019150602085019450602081019050612e63565b86831015612ea55784890151612ea1601f891682612dae565b8355505b6001600288020188555050505b505050505050565b600081905092915050565b6000612ed082611f37565b612eda8185612eba565b9350612eea818560208601611f53565b80840191505092915050565b6000612f028284612ec5565b915081905092915050565b7f4f776e61626c653a206e6577206f776e657220697320746865207a65726f206160008201527f6464726573730000000000000000000000000000000000000000000000000000602082015250565b6000612f69602683612424565b9150612f7482612f0d565b604082019050919050565b60006020820190508181036000830152612f9881612f5c565b9050919050565b7f4f776e61626c653a2063616c6c6572206973206e6f7420746865206f776e6572600082015250565b6000612fd5602083612424565b9150612fe082612f9f565b602082019050919050565b6000602082019050818103600083015261300481612fc8565b9050919050565b7f416363657373436f6e74726f6c3a206163636f756e7420000000000000000000600082015250565b6000613041601783612eba565b915061304c8261300b565b601782019050919050565b7f206973206d697373696e6720726f6c6520000000000000000000000000000000600082015250565b600061308d601183612eba565b915061309882613057565b601182019050919050565b60006130ae82613034565b91506130ba8285612ec5565b91506130c582613080565b91506130d18284612ec5565b91508190509392505050565b7f4e487b7100000000000000000000000000000000000000000000000000000000600052601160045260246000fd5b6000613117826122ca565b9150613122836122ca565b9250828202613130816122ca565b91508282048414831517613147576131466130dd565b5b5092915050565b6000613159826122ca565b9150613164836122ca565b925082820190508082111561317c5761317b6130dd565b5b92915050565b7f4e487b7100000000000000000000000000000000000000000000000000000000600052603260045260246000fd5b60006131bc826122ca565b9150600082036131cf576131ce6130dd565b5b600182039050919050565b7f537472696e67733a20686578206c656e67746820696e73756666696369656e74600082015250565b6000613210602083612424565b915061321b826131da565b602082019050919050565b6000602082019050818103600083015261323f81613203565b905091905056fea26469706673582212204535df8da9c01c2228b3038f12a4d79409ffe2324974336f2a4df3f1ee8fb3ee64736f6c63430008120033",
  "immutableReferences": {},
  "source": "// SPDX-License-Identifier: GPL-3.0\r\npragma solidity 0.8.18;\r\n\r\nimport \"@openzeppelin/contracts/access/AccessControl.sol\";\r\nimport \"@openzeppelin/contracts/utils/Counters.sol\";\r\nimport \"@openzeppelin/contracts/access/Ownable.sol\";\r\nimport \"./DiagnosticToken.sol\";\r\nimport \"./DiagnosticDomain.sol\";\r\n\r\ncontract DiagnosticManager is AccessControl, Ownable, DiagnosticStructs {\r\n    using Counters for Counters.Counter;\r\n    Counters.Counter private _diagnosticIds;\r\n    DiagnosticToken private diagnosticToken;\r\n    bytes32 public constant MINTER_ROLE = keccak256(\"MINTER_ROLE\");\r\n\r\n    // siret to diagnostician address mapping\r\n    mapping(string => address) public siretToDiagnostician;\r\n    mapping(address => Diagnostician) public diagnosticians;\r\n    mapping(address => PropertyOwner) private propertyOwners;\r\n\r\n    constructor(DiagnosticToken _diagnosticToken) {\r\n        _setupRole(DEFAULT_ADMIN_ROLE, msg.sender);\r\n        _setupRole(MINTER_ROLE, msg.sender);\r\n        diagnosticToken = _diagnosticToken;\r\n    }\r\n\r\n    event DiagnosticianCertified(address diagnosticianAddress);\r\n    event AskedVerification(address diagnosticianAddress);\r\n    event DiagnosticCreated(\r\n        uint256 itemId,\r\n        address diagnosticianAddress,\r\n        string tokenURI\r\n    );\r\n\r\n    //:::::::::::::::::::::::::GETTERS:::::::::::::::::::::::::\\\\\r\n    function myself() external view returns (UserInfo memory) {\r\n        Diagnostician memory currentDiagnostician;\r\n        PropertyOwner memory currentPropertyOwner;\r\n\r\n        if (bytes(diagnosticians[msg.sender].name).length > 0) {\r\n            currentDiagnostician = diagnosticians[msg.sender];\r\n        } else if (propertyOwners[msg.sender].properties.length > 0) {\r\n            currentPropertyOwner = propertyOwners[msg.sender];\r\n        }\r\n        return\r\n            UserInfo({\r\n                diagnostician: currentDiagnostician,\r\n                propertyOwner: currentPropertyOwner\r\n            });\r\n    }\r\n\r\n    function getDiagnostician(\r\n        address _addr\r\n    ) external view returns (Diagnostician memory) {\r\n        return diagnosticians[_addr];\r\n    }\r\n\r\n    function getDiagnosticURI(\r\n        uint256 tokenId\r\n    ) public view returns (string memory) {\r\n        return diagnosticToken.tokenURI(tokenId);\r\n    }\r\n\r\n    function getDiagnosticHash(\r\n        uint256 tokenId\r\n    ) public view returns (string memory) {\r\n        return diagnosticToken.getPDFHash(tokenId);\r\n    }\r\n\r\n    modifier onlyDiagnosticians() {\r\n        require(\r\n            diagnosticians[msg.sender].isCertified == true,\r\n            \"You're not a certified diagnostician\"\r\n        );\r\n        _;\r\n    }\r\n\r\n    //:::::::::::::::::::::::::FUNCTIONS:::::::::::::::::::::::::\\\\\r\n\r\n    function certifyDiagnostician(address _addr) external onlyOwner {\r\n        require(diagnosticians[_addr].isCertified != true, \"Already certified\");\r\n        _grantRole(MINTER_ROLE, msg.sender);\r\n        diagnosticians[_addr].isCertified = true;\r\n        emit DiagnosticianCertified(_addr);\r\n    }\r\n\r\n    function askForVerification(\r\n        string memory _name,\r\n        string memory _siret\r\n    ) external {\r\n        address requester = msg.sender;\r\n        require(\r\n            diagnosticians[requester].isCertified != true,\r\n            \"Already certified\"\r\n        );\r\n        diagnosticians[requester].name = _name;\r\n        diagnosticians[requester].isCertified = false;\r\n        siretToDiagnostician[_siret] = msg.sender;\r\n        emit AskedVerification(requester);\r\n    }\r\n\r\n    function createDiagnostic(\r\n        address _diagnostician,\r\n        string memory _pdfHash,\r\n        string memory _tokenURI\r\n    ) public onlyDiagnosticians returns (uint256) {\r\n        _diagnosticIds.increment();\r\n        uint256 newItemId = _diagnosticIds.current();\r\n        diagnosticToken.mintDiagnostic(_diagnostician, newItemId, _tokenURI);\r\n        diagnosticToken.setPDFHash(newItemId, _pdfHash);\r\n        emit DiagnosticCreated(newItemId, _diagnostician, _tokenURI);\r\n        return newItemId;\r\n    }\r\n}\r\n",
  "sourcePath": "D:\\dev_blockchain\\alyra\\Diagnostify - Copy\\truffle\\contracts\\DiagnosticManager.sol",
  "compiler": {
    "name": "solc",
    "version": "0.8.18+commit.87f61d96.Emscripten.clang"
  },
  "schemaVersion": "3.4.13",
  "updatedAt": "2023-04-04T21:57:13.337Z",
  "networkType": "ethereum",
  "devdoc": {
    "events": {
      "RoleAdminChanged(bytes32,bytes32,bytes32)": {
        "details": "Emitted when `newAdminRole` is set as ``role``'s admin role, replacing `previousAdminRole` `DEFAULT_ADMIN_ROLE` is the starting admin for all roles, despite {RoleAdminChanged} not being emitted signaling this. _Available since v3.1._"
      },
      "RoleGranted(bytes32,address,address)": {
        "details": "Emitted when `account` is granted `role`. `sender` is the account that originated the contract call, an admin role bearer except when using {AccessControl-_setupRole}."
      },
      "RoleRevoked(bytes32,address,address)": {
        "details": "Emitted when `account` is revoked `role`. `sender` is the account that originated the contract call:   - if using `revokeRole`, it is the admin role bearer   - if using `renounceRole`, it is the role bearer (i.e. `account`)"
      }
    },
    "kind": "dev",
    "methods": {
      "getRoleAdmin(bytes32)": {
        "details": "Returns the admin role that controls `role`. See {grantRole} and {revokeRole}. To change a role's admin, use {_setRoleAdmin}."
      },
      "grantRole(bytes32,address)": {
        "details": "Grants `role` to `account`. If `account` had not been already granted `role`, emits a {RoleGranted} event. Requirements: - the caller must have ``role``'s admin role. May emit a {RoleGranted} event."
      },
      "hasRole(bytes32,address)": {
        "details": "Returns `true` if `account` has been granted `role`."
      },
      "owner()": {
        "details": "Returns the address of the current owner."
      },
      "renounceOwnership()": {
        "details": "Leaves the contract without owner. It will not be possible to call `onlyOwner` functions anymore. Can only be called by the current owner. NOTE: Renouncing ownership will leave the contract without an owner, thereby removing any functionality that is only available to the owner."
      },
      "renounceRole(bytes32,address)": {
        "details": "Revokes `role` from the calling account. Roles are often managed via {grantRole} and {revokeRole}: this function's purpose is to provide a mechanism for accounts to lose their privileges if they are compromised (such as when a trusted device is misplaced). If the calling account had been revoked `role`, emits a {RoleRevoked} event. Requirements: - the caller must be `account`. May emit a {RoleRevoked} event."
      },
      "revokeRole(bytes32,address)": {
        "details": "Revokes `role` from `account`. If `account` had been granted `role`, emits a {RoleRevoked} event. Requirements: - the caller must have ``role``'s admin role. May emit a {RoleRevoked} event."
      },
      "supportsInterface(bytes4)": {
        "details": "See {IERC165-supportsInterface}."
      },
      "transferOwnership(address)": {
        "details": "Transfers ownership of the contract to a new account (`newOwner`). Can only be called by the current owner."
      }
    },
    "version": 1
  },
  "userdoc": {
    "kind": "user",
    "methods": {},
    "version": 1
  }
}