{
  "contractName": "DiagnosticToken",
  "abi": [
    {
      "inputs": [],
      "stateMutability": "nonpayable",
      "type": "constructor"
    },
    {
      "anonymous": false,
      "inputs": [
        {
          "indexed": true,
          "internalType": "address",
          "name": "owner",
          "type": "address"
        },
        {
          "indexed": true,
          "internalType": "address",
          "name": "approved",
          "type": "address"
        },
        {
          "indexed": true,
          "internalType": "uint256",
          "name": "tokenId",
          "type": "uint256"
        }
      ],
      "name": "Approval",
      "type": "event"
    },
    {
      "anonymous": false,
      "inputs": [
        {
          "indexed": true,
          "internalType": "address",
          "name": "owner",
          "type": "address"
        },
        {
          "indexed": true,
          "internalType": "address",
          "name": "operator",
          "type": "address"
        },
        {
          "indexed": false,
          "internalType": "bool",
          "name": "approved",
          "type": "bool"
        }
      ],
      "name": "ApprovalForAll",
      "type": "event"
    },
    {
      "anonymous": false,
      "inputs": [
        {
          "indexed": true,
          "internalType": "bytes32",
          "name": "role",
          "type": "bytes32"
        },
        {
          "indexed": true,
          "internalType": "bytes32",
          "name": "previousAdminRole",
          "type": "bytes32"
        },
        {
          "indexed": true,
          "internalType": "bytes32",
          "name": "newAdminRole",
          "type": "bytes32"
        }
      ],
      "name": "RoleAdminChanged",
      "type": "event"
    },
    {
      "anonymous": false,
      "inputs": [
        {
          "indexed": true,
          "internalType": "bytes32",
          "name": "role",
          "type": "bytes32"
        },
        {
          "indexed": true,
          "internalType": "address",
          "name": "account",
          "type": "address"
        },
        {
          "indexed": true,
          "internalType": "address",
          "name": "sender",
          "type": "address"
        }
      ],
      "name": "RoleGranted",
      "type": "event"
    },
    {
      "anonymous": false,
      "inputs": [
        {
          "indexed": true,
          "internalType": "bytes32",
          "name": "role",
          "type": "bytes32"
        },
        {
          "indexed": true,
          "internalType": "address",
          "name": "account",
          "type": "address"
        },
        {
          "indexed": true,
          "internalType": "address",
          "name": "sender",
          "type": "address"
        }
      ],
      "name": "RoleRevoked",
      "type": "event"
    },
    {
      "anonymous": false,
      "inputs": [
        {
          "indexed": true,
          "internalType": "address",
          "name": "from",
          "type": "address"
        },
        {
          "indexed": true,
          "internalType": "address",
          "name": "to",
          "type": "address"
        },
        {
          "indexed": true,
          "internalType": "uint256",
          "name": "tokenId",
          "type": "uint256"
        }
      ],
      "name": "Transfer",
      "type": "event"
    },
    {
      "inputs": [],
      "name": "DEFAULT_ADMIN_ROLE",
      "outputs": [
        {
          "internalType": "bytes32",
          "name": "",
          "type": "bytes32"
        }
      ],
      "stateMutability": "view",
      "type": "function",
      "constant": true
    },
    {
      "inputs": [],
      "name": "DIAGNOSTICIAN_ROLE",
      "outputs": [
        {
          "internalType": "bytes32",
          "name": "",
          "type": "bytes32"
        }
      ],
      "stateMutability": "view",
      "type": "function",
      "constant": true
    },
    {
      "inputs": [
        {
          "internalType": "address",
          "name": "to",
          "type": "address"
        },
        {
          "internalType": "uint256",
          "name": "tokenId",
          "type": "uint256"
        }
      ],
      "name": "approve",
      "outputs": [],
      "stateMutability": "nonpayable",
      "type": "function"
    },
    {
      "inputs": [
        {
          "internalType": "address",
          "name": "owner",
          "type": "address"
        }
      ],
      "name": "balanceOf",
      "outputs": [
        {
          "internalType": "uint256",
          "name": "",
          "type": "uint256"
        }
      ],
      "stateMutability": "view",
      "type": "function",
      "constant": true
    },
    {
      "inputs": [
        {
          "internalType": "uint256",
          "name": "tokenId",
          "type": "uint256"
        }
      ],
      "name": "getApproved",
      "outputs": [
        {
          "internalType": "address",
          "name": "",
          "type": "address"
        }
      ],
      "stateMutability": "view",
      "type": "function",
      "constant": true
    },
    {
      "inputs": [
        {
          "internalType": "bytes32",
          "name": "role",
          "type": "bytes32"
        }
      ],
      "name": "getRoleAdmin",
      "outputs": [
        {
          "internalType": "bytes32",
          "name": "",
          "type": "bytes32"
        }
      ],
      "stateMutability": "view",
      "type": "function",
      "constant": true
    },
    {
      "inputs": [
        {
          "internalType": "bytes32",
          "name": "role",
          "type": "bytes32"
        },
        {
          "internalType": "address",
          "name": "account",
          "type": "address"
        }
      ],
      "name": "grantRole",
      "outputs": [],
      "stateMutability": "nonpayable",
      "type": "function"
    },
    {
      "inputs": [
        {
          "internalType": "bytes32",
          "name": "role",
          "type": "bytes32"
        },
        {
          "internalType": "address",
          "name": "account",
          "type": "address"
        }
      ],
      "name": "hasRole",
      "outputs": [
        {
          "internalType": "bool",
          "name": "",
          "type": "bool"
        }
      ],
      "stateMutability": "view",
      "type": "function",
      "constant": true
    },
    {
      "inputs": [
        {
          "internalType": "address",
          "name": "owner",
          "type": "address"
        },
        {
          "internalType": "address",
          "name": "operator",
          "type": "address"
        }
      ],
      "name": "isApprovedForAll",
      "outputs": [
        {
          "internalType": "bool",
          "name": "",
          "type": "bool"
        }
      ],
      "stateMutability": "view",
      "type": "function",
      "constant": true
    },
    {
      "inputs": [],
      "name": "name",
      "outputs": [
        {
          "internalType": "string",
          "name": "",
          "type": "string"
        }
      ],
      "stateMutability": "view",
      "type": "function",
      "constant": true
    },
    {
      "inputs": [
        {
          "internalType": "uint256",
          "name": "tokenId",
          "type": "uint256"
        }
      ],
      "name": "ownerOf",
      "outputs": [
        {
          "internalType": "address",
          "name": "",
          "type": "address"
        }
      ],
      "stateMutability": "view",
      "type": "function",
      "constant": true
    },
    {
      "inputs": [
        {
          "internalType": "bytes32",
          "name": "role",
          "type": "bytes32"
        },
        {
          "internalType": "address",
          "name": "account",
          "type": "address"
        }
      ],
      "name": "renounceRole",
      "outputs": [],
      "stateMutability": "nonpayable",
      "type": "function"
    },
    {
      "inputs": [
        {
          "internalType": "bytes32",
          "name": "role",
          "type": "bytes32"
        },
        {
          "internalType": "address",
          "name": "account",
          "type": "address"
        }
      ],
      "name": "revokeRole",
      "outputs": [],
      "stateMutability": "nonpayable",
      "type": "function"
    },
    {
      "inputs": [
        {
          "internalType": "address",
          "name": "from",
          "type": "address"
        },
        {
          "internalType": "address",
          "name": "to",
          "type": "address"
        },
        {
          "internalType": "uint256",
          "name": "tokenId",
          "type": "uint256"
        }
      ],
      "name": "safeTransferFrom",
      "outputs": [],
      "stateMutability": "nonpayable",
      "type": "function"
    },
    {
      "inputs": [
        {
          "internalType": "address",
          "name": "from",
          "type": "address"
        },
        {
          "internalType": "address",
          "name": "to",
          "type": "address"
        },
        {
          "internalType": "uint256",
          "name": "tokenId",
          "type": "uint256"
        },
        {
          "internalType": "bytes",
          "name": "data",
          "type": "bytes"
        }
      ],
      "name": "safeTransferFrom",
      "outputs": [],
      "stateMutability": "nonpayable",
      "type": "function"
    },
    {
      "inputs": [
        {
          "internalType": "address",
          "name": "operator",
          "type": "address"
        },
        {
          "internalType": "bool",
          "name": "approved",
          "type": "bool"
        }
      ],
      "name": "setApprovalForAll",
      "outputs": [],
      "stateMutability": "nonpayable",
      "type": "function"
    },
    {
      "inputs": [],
      "name": "symbol",
      "outputs": [
        {
          "internalType": "string",
          "name": "",
          "type": "string"
        }
      ],
      "stateMutability": "view",
      "type": "function",
      "constant": true
    },
    {
      "inputs": [
        {
          "internalType": "address",
          "name": "from",
          "type": "address"
        },
        {
          "internalType": "address",
          "name": "to",
          "type": "address"
        },
        {
          "internalType": "uint256",
          "name": "tokenId",
          "type": "uint256"
        }
      ],
      "name": "transferFrom",
      "outputs": [],
      "stateMutability": "nonpayable",
      "type": "function"
    },
    {
      "inputs": [
        {
          "internalType": "address",
          "name": "to",
          "type": "address"
        },
        {
          "internalType": "string",
          "name": "uri",
          "type": "string"
        }
      ],
      "name": "safeMint",
      "outputs": [],
      "stateMutability": "nonpayable",
      "type": "function"
    },
    {
      "inputs": [
        {
          "internalType": "address",
          "name": "_to",
          "type": "address"
        },
        {
          "internalType": "uint256",
          "name": "_tokenId",
          "type": "uint256"
        },
        {
          "internalType": "string",
          "name": "_tokenURI",
          "type": "string"
        }
      ],
      "name": "mintDiagnostic",
      "outputs": [],
      "stateMutability": "nonpayable",
      "type": "function"
    },
    {
      "inputs": [
        {
          "internalType": "uint256",
          "name": "tokenId",
          "type": "uint256"
        },
        {
          "internalType": "string",
          "name": "pdfHash",
          "type": "string"
        }
      ],
      "name": "setPDFHash",
      "outputs": [],
      "stateMutability": "nonpayable",
      "type": "function"
    },
    {
      "inputs": [
        {
          "internalType": "uint256",
          "name": "tokenId",
          "type": "uint256"
        }
      ],
      "name": "getPDFHash",
      "outputs": [
        {
          "internalType": "string",
          "name": "",
          "type": "string"
        }
      ],
      "stateMutability": "view",
      "type": "function",
      "constant": true
    },
    {
      "inputs": [
        {
          "internalType": "uint256",
          "name": "tokenId",
          "type": "uint256"
        }
      ],
      "name": "tokenURI",
      "outputs": [
        {
          "internalType": "string",
          "name": "",
          "type": "string"
        }
      ],
      "stateMutability": "view",
      "type": "function",
      "constant": true
    },
    {
      "inputs": [
        {
          "internalType": "bytes4",
          "name": "interfaceId",
          "type": "bytes4"
        }
      ],
      "name": "supportsInterface",
      "outputs": [
        {
          "internalType": "bool",
          "name": "",
          "type": "bool"
        }
      ],
      "stateMutability": "view",
      "type": "function",
      "constant": true
    }
  ],
  "bytecode": "0x60806040523480156200001157600080fd5b506040518060400160405280600a81526020017f446961676e6f73746963000000000000000000000000000000000000000000008152506040518060400160405280600381526020017f444743000000000000000000000000000000000000000000000000000000000081525081600090816200008f9190620004d1565b508060019081620000a19190620004d1565b505050620000d67f9f2df0fed2c77648de5860a4cc508cd0818c85b8b8a1ab4ceeef8d981c8956a633620000dc60201b60201c565b620005b8565b620000ee8282620000f260201b60201c565b5050565b620001048282620001e460201b60201c565b620001e05760016007600084815260200190815260200160002060000160008373ffffffffffffffffffffffffffffffffffffffff1673ffffffffffffffffffffffffffffffffffffffff16815260200190815260200160002060006101000a81548160ff021916908315150217905550620001856200024f60201b60201c565b73ffffffffffffffffffffffffffffffffffffffff168173ffffffffffffffffffffffffffffffffffffffff16837f2f8788117e7eff1d82e926ec794901d17c78024a50270940304540a733656f0d60405160405180910390a45b5050565b60006007600084815260200190815260200160002060000160008373ffffffffffffffffffffffffffffffffffffffff1673ffffffffffffffffffffffffffffffffffffffff16815260200190815260200160002060009054906101000a900460ff16905092915050565b600033905090565b600081519050919050565b7f4e487b7100000000000000000000000000000000000000000000000000000000600052604160045260246000fd5b7f4e487b7100000000000000000000000000000000000000000000000000000000600052602260045260246000fd5b60006002820490506001821680620002d957607f821691505b602082108103620002ef57620002ee62000291565b5b50919050565b60008190508160005260206000209050919050565b60006020601f8301049050919050565b600082821b905092915050565b600060088302620003597fffffffffffffffffffffffffffffffffffffffffffffffffffffffffffffffff826200031a565b6200036586836200031a565b95508019841693508086168417925050509392505050565b6000819050919050565b6000819050919050565b6000620003b2620003ac620003a6846200037d565b62000387565b6200037d565b9050919050565b6000819050919050565b620003ce8362000391565b620003e6620003dd82620003b9565b84845462000327565b825550505050565b600090565b620003fd620003ee565b6200040a818484620003c3565b505050565b5b81811015620004325762000426600082620003f3565b60018101905062000410565b5050565b601f82111562000481576200044b81620002f5565b62000456846200030a565b8101602085101562000466578190505b6200047e62000475856200030a565b8301826200040f565b50505b505050565b600082821c905092915050565b6000620004a66000198460080262000486565b1980831691505092915050565b6000620004c1838362000493565b9150826002028217905092915050565b620004dc8262000257565b67ffffffffffffffff811115620004f857620004f762000262565b5b620005048254620002c0565b6200051182828562000436565b600060209050601f83116001811462000549576000841562000534578287015190505b620005408582620004b3565b865550620005b0565b601f1984166200055986620002f5565b60005b8281101562000583578489015182556001820191506020850194506020810190506200055c565b86831015620005a357848901516200059f601f89168262000493565b8355505b6001600288020188555050505b505050505050565b613a8b80620005c86000396000f3fe608060405234801561001057600080fd5b50600436106101585760003560e01c80636352211e116100c3578063b88d4fde1161007c578063b88d4fde146103d5578063bb9c02f9146103f1578063c87b56dd14610421578063d204c45e14610451578063d547741f1461046d578063e985e9c51461048957610158565b80636352211e146102ed57806370a082311461031d57806391d148541461034d57806395d89b411461037d578063a217fddf1461039b578063a22cb465146103b957610158565b8063248a9ca311610115578063248a9ca31461022f5780632f2ff15d1461025f57806336568abe1461027b57806342842e0e146102975780634e0dbfaa146102b35780634e983a85146102d157610158565b806301ffc9a71461015d57806306fdde031461018d578063081812fc146101ab578063095ea7b3146101db57806311cf3d33146101f757806323b872dd14610213575b600080fd5b61017760048036038101906101729190612417565b6104b9565b604051610184919061245f565b60405180910390f35b6101956104cb565b6040516101a2919061250a565b60405180910390f35b6101c560048036038101906101c09190612562565b61055d565b6040516101d291906125d0565b60405180910390f35b6101f560048036038101906101f09190612617565b6105a3565b005b610211600480360381019061020c919061278c565b6106ba565b005b61022d600480360381019061022891906127e8565b61076c565b005b61024960048036038101906102449190612871565b6107cc565b60405161025691906128ad565b60405180910390f35b610279600480360381019061027491906128c8565b6107ec565b005b610295600480360381019061029091906128c8565b61080d565b005b6102b160048036038101906102ac91906127e8565b610890565b005b6102bb6108b0565b6040516102c891906128ad565b60405180910390f35b6102eb60048036038101906102e69190612908565b6108d4565b005b61030760048036038101906103029190612562565b6108ed565b60405161031491906125d0565b60405180910390f35b61033760048036038101906103329190612977565b610973565b60405161034491906129b3565b60405180910390f35b610367600480360381019061036291906128c8565b610a2a565b604051610374919061245f565b60405180910390f35b610385610a95565b604051610392919061250a565b60405180910390f35b6103a3610b27565b6040516103b091906128ad565b60405180910390f35b6103d360048036038101906103ce91906129fa565b610b2e565b005b6103ef60048036038101906103ea9190612adb565b610b44565b005b61040b60048036038101906104069190612562565b610ba6565b604051610418919061250a565b60405180910390f35b61043b60048036038101906104369190612562565b610c93565b604051610448919061250a565b60405180910390f35b61046b60048036038101906104669190612b5e565b610ca5565b005b610487600480360381019061048291906128c8565b610cd6565b005b6104a3600480360381019061049e9190612bba565b610cf7565b6040516104b0919061245f565b60405180910390f35b60006104c482610d8b565b9050919050565b6060600080546104da90612c29565b80601f016020809104026020016040519081016040528092919081815260200182805461050690612c29565b80156105535780601f1061052857610100808354040283529160200191610553565b820191906000526020600020905b81548152906001019060200180831161053657829003601f168201915b5050505050905090565b600061056882610e05565b6004600083815260200190815260200160002060009054906101000a900473ffffffffffffffffffffffffffffffffffffffff169050919050565b60006105ae826108ed565b90508073ffffffffffffffffffffffffffffffffffffffff168373ffffffffffffffffffffffffffffffffffffffff160361061e576040517f08c379a000000000000000000000000000000000000000000000000000000000815260040161061590612ccc565b60405180910390fd5b8073ffffffffffffffffffffffffffffffffffffffff1661063d610e50565b73ffffffffffffffffffffffffffffffffffffffff16148061066c575061066b81610666610e50565b610cf7565b5b6106ab576040517f08c379a00000000000000000000000000000000000000000000000000000000081526004016106a290612d5e565b60405180910390fd5b6106b58383610e58565b505050565b6008600083815260200190815260200160002060009054906101000a900460ff161561071b576040517f08c379a000000000000000000000000000000000000000000000000000000000815260040161071290612df0565b60405180910390fd5b80600a6000848152602001908152602001600020908161073b9190612fbc565b5060016008600084815260200190815260200160002060006101000a81548160ff0219169083151502179055505050565b61077d610777610e50565b82610f11565b6107bc576040517f08c379a00000000000000000000000000000000000000000000000000000000081526004016107b390613100565b60405180910390fd5b6107c7838383610fa6565b505050565b600060076000838152602001908152602001600020600101549050919050565b6107f5826107cc565b6107fe8161129f565b61080883836112b3565b505050565b610815610e50565b73ffffffffffffffffffffffffffffffffffffffff168173ffffffffffffffffffffffffffffffffffffffff1614610882576040517f08c379a000000000000000000000000000000000000000000000000000000000815260040161087990613192565b60405180910390fd5b61088c8282611394565b5050565b6108ab83838360405180602001604052806000815250610b44565b505050565b7f9f2df0fed2c77648de5860a4cc508cd0818c85b8b8a1ab4ceeef8d981c8956a681565b6108de8383611476565b6108e88282611494565b505050565b6000806108f983611501565b9050600073ffffffffffffffffffffffffffffffffffffffff168173ffffffffffffffffffffffffffffffffffffffff160361096a576040517f08c379a0000000000000000000000000000000000000000000000000000000008152600401610961906131fe565b60405180910390fd5b80915050919050565b60008073ffffffffffffffffffffffffffffffffffffffff168273ffffffffffffffffffffffffffffffffffffffff16036109e3576040517f08c379a00000000000000000000000000000000000000000000000000000000081526004016109da90613290565b60405180910390fd5b600360008373ffffffffffffffffffffffffffffffffffffffff1673ffffffffffffffffffffffffffffffffffffffff168152602001908152602001600020549050919050565b60006007600084815260200190815260200160002060000160008373ffffffffffffffffffffffffffffffffffffffff1673ffffffffffffffffffffffffffffffffffffffff16815260200190815260200160002060009054906101000a900460ff16905092915050565b606060018054610aa490612c29565b80601f0160208091040260200160405190810160405280929190818152602001828054610ad090612c29565b8015610b1d5780601f10610af257610100808354040283529160200191610b1d565b820191906000526020600020905b815481529060010190602001808311610b0057829003601f168201915b5050505050905090565b6000801b81565b610b40610b39610e50565b838361153e565b5050565b610b55610b4f610e50565b83610f11565b610b94576040517f08c379a0000000000000000000000000000000000000000000000000000000008152600401610b8b90613100565b60405180910390fd5b610ba0848484846116aa565b50505050565b6060610bb182611706565b610bf0576040517f08c379a0000000000000000000000000000000000000000000000000000000008152600401610be7906132fc565b60405180910390fd5b600a60008381526020019081526020016000208054610c0e90612c29565b80601f0160208091040260200160405190810160405280929190818152602001828054610c3a90612c29565b8015610c875780601f10610c5c57610100808354040283529160200191610c87565b820191906000526020600020905b815481529060010190602001808311610c6a57829003601f168201915b50505050509050919050565b6060610c9e82611747565b9050919050565b6000610cb16009611859565b9050610cbd6009611867565b610cc78382611476565b610cd18183611494565b505050565b610cdf826107cc565b610ce88161129f565b610cf28383611394565b505050565b6000600560008473ffffffffffffffffffffffffffffffffffffffff1673ffffffffffffffffffffffffffffffffffffffff16815260200190815260200160002060008373ffffffffffffffffffffffffffffffffffffffff1673ffffffffffffffffffffffffffffffffffffffff16815260200190815260200160002060009054906101000a900460ff16905092915050565b60007f7965db0b000000000000000000000000000000000000000000000000000000007bffffffffffffffffffffffffffffffffffffffffffffffffffffffff1916827bffffffffffffffffffffffffffffffffffffffffffffffffffffffff19161480610dfe5750610dfd8261187d565b5b9050919050565b610e0e81611706565b610e4d576040517f08c379a0000000000000000000000000000000000000000000000000000000008152600401610e44906131fe565b60405180910390fd5b50565b600033905090565b816004600083815260200190815260200160002060006101000a81548173ffffffffffffffffffffffffffffffffffffffff021916908373ffffffffffffffffffffffffffffffffffffffff160217905550808273ffffffffffffffffffffffffffffffffffffffff16610ecb836108ed565b73ffffffffffffffffffffffffffffffffffffffff167f8c5be1e5ebec7d5bd14f71427d1e84f3dd0314c0f7b2291e5b200ac8c7c3b92560405160405180910390a45050565b600080610f1d836108ed565b90508073ffffffffffffffffffffffffffffffffffffffff168473ffffffffffffffffffffffffffffffffffffffff161480610f5f5750610f5e8185610cf7565b5b80610f9d57508373ffffffffffffffffffffffffffffffffffffffff16610f858461055d565b73ffffffffffffffffffffffffffffffffffffffff16145b91505092915050565b8273ffffffffffffffffffffffffffffffffffffffff16610fc6826108ed565b73ffffffffffffffffffffffffffffffffffffffff161461101c576040517f08c379a00000000000000000000000000000000000000000000000000000000081526004016110139061338e565b60405180910390fd5b600073ffffffffffffffffffffffffffffffffffffffff168273ffffffffffffffffffffffffffffffffffffffff160361108b576040517f08c379a000000000000000000000000000000000000000000000000000000000815260040161108290613420565b60405180910390fd5b611098838383600161195f565b8273ffffffffffffffffffffffffffffffffffffffff166110b8826108ed565b73ffffffffffffffffffffffffffffffffffffffff161461110e576040517f08c379a00000000000000000000000000000000000000000000000000000000081526004016111059061338e565b60405180910390fd5b6004600082815260200190815260200160002060006101000a81549073ffffffffffffffffffffffffffffffffffffffff02191690556001600360008573ffffffffffffffffffffffffffffffffffffffff1673ffffffffffffffffffffffffffffffffffffffff168152602001908152602001600020600082825403925050819055506001600360008473ffffffffffffffffffffffffffffffffffffffff1673ffffffffffffffffffffffffffffffffffffffff16815260200190815260200160002060008282540192505081905550816002600083815260200190815260200160002060006101000a81548173ffffffffffffffffffffffffffffffffffffffff021916908373ffffffffffffffffffffffffffffffffffffffff160217905550808273ffffffffffffffffffffffffffffffffffffffff168473ffffffffffffffffffffffffffffffffffffffff167fddf252ad1be2c89b69c2b068fc378daa952ba7f163c4a11628f55a4df523b3ef60405160405180910390a461129a8383836001611965565b505050565b6112b0816112ab610e50565b61196b565b50565b6112bd8282610a2a565b6113905760016007600084815260200190815260200160002060000160008373ffffffffffffffffffffffffffffffffffffffff1673ffffffffffffffffffffffffffffffffffffffff16815260200190815260200160002060006101000a81548160ff021916908315150217905550611335610e50565b73ffffffffffffffffffffffffffffffffffffffff168173ffffffffffffffffffffffffffffffffffffffff16837f2f8788117e7eff1d82e926ec794901d17c78024a50270940304540a733656f0d60405160405180910390a45b5050565b61139e8282610a2a565b156114725760006007600084815260200190815260200160002060000160008373ffffffffffffffffffffffffffffffffffffffff1673ffffffffffffffffffffffffffffffffffffffff16815260200190815260200160002060006101000a81548160ff021916908315150217905550611417610e50565b73ffffffffffffffffffffffffffffffffffffffff168173ffffffffffffffffffffffffffffffffffffffff16837ff6391f5c32d9c69d2a47ea670b442974b53935d1edc7fd64eb21e047a839171b60405160405180910390a45b5050565b6114908282604051806020016040528060008152506119f0565b5050565b61149d82611706565b6114dc576040517f08c379a00000000000000000000000000000000000000000000000000000000081526004016114d3906134b2565b60405180910390fd5b806006600084815260200190815260200160002090816114fc9190612fbc565b505050565b60006002600083815260200190815260200160002060009054906101000a900473ffffffffffffffffffffffffffffffffffffffff169050919050565b8173ffffffffffffffffffffffffffffffffffffffff168373ffffffffffffffffffffffffffffffffffffffff16036115ac576040517f08c379a00000000000000000000000000000000000000000000000000000000081526004016115a39061351e565b60405180910390fd5b80600560008573ffffffffffffffffffffffffffffffffffffffff1673ffffffffffffffffffffffffffffffffffffffff16815260200190815260200160002060008473ffffffffffffffffffffffffffffffffffffffff1673ffffffffffffffffffffffffffffffffffffffff16815260200190815260200160002060006101000a81548160ff0219169083151502179055508173ffffffffffffffffffffffffffffffffffffffff168373ffffffffffffffffffffffffffffffffffffffff167f17307eab39ab6107e8899845ad3d59bd9653f200f220920489ca2b5937696c318360405161169d919061245f565b60405180910390a3505050565b6116b5848484610fa6565b6116c184848484611a4b565b611700576040517f08c379a00000000000000000000000000000000000000000000000000000000081526004016116f7906135b0565b60405180910390fd5b50505050565b60008073ffffffffffffffffffffffffffffffffffffffff1661172883611501565b73ffffffffffffffffffffffffffffffffffffffff1614159050919050565b606061175282610e05565b600060066000848152602001908152602001600020805461177290612c29565b80601f016020809104026020016040519081016040528092919081815260200182805461179e90612c29565b80156117eb5780601f106117c0576101008083540402835291602001916117eb565b820191906000526020600020905b8154815290600101906020018083116117ce57829003601f168201915b5050505050905060006117fc611bd2565b90506000815103611811578192505050611854565b60008251111561184657808260405160200161182e92919061360c565b60405160208183030381529060405292505050611854565b61184f84611c0f565b925050505b919050565b600081600001549050919050565b6001816000016000828254019250508190555050565b60007f80ac58cd000000000000000000000000000000000000000000000000000000007bffffffffffffffffffffffffffffffffffffffffffffffffffffffff1916827bffffffffffffffffffffffffffffffffffffffffffffffffffffffff1916148061194857507f5b5e139f000000000000000000000000000000000000000000000000000000007bffffffffffffffffffffffffffffffffffffffffffffffffffffffff1916827bffffffffffffffffffffffffffffffffffffffffffffffffffffffff1916145b80611958575061195782611c77565b5b9050919050565b50505050565b50505050565b6119758282610a2a565b6119ec5761198281611ce1565b6119908360001c6020611d0e565b6040516020016119a19291906136c8565b6040516020818303038152906040526040517f08c379a00000000000000000000000000000000000000000000000000000000081526004016119e3919061250a565b60405180910390fd5b5050565b6119fa8383611f4a565b611a076000848484611a4b565b611a46576040517f08c379a0000000000000000000000000000000000000000000000000000000008152600401611a3d906135b0565b60405180910390fd5b505050565b6000611a6c8473ffffffffffffffffffffffffffffffffffffffff16612167565b15611bc5578373ffffffffffffffffffffffffffffffffffffffff1663150b7a02611a95610e50565b8786866040518563ffffffff1660e01b8152600401611ab79493929190613757565b6020604051808303816000875af1925050508015611af357506040513d601f19601f82011682018060405250810190611af091906137b8565b60015b611b75573d8060008114611b23576040519150601f19603f3d011682016040523d82523d6000602084013e611b28565b606091505b506000815103611b6d576040517f08c379a0000000000000000000000000000000000000000000000000000000008152600401611b64906135b0565b60405180910390fd5b805181602001fd5b63150b7a0260e01b7bffffffffffffffffffffffffffffffffffffffffffffffffffffffff1916817bffffffffffffffffffffffffffffffffffffffffffffffffffffffff191614915050611bca565b600190505b949350505050565b60606040518060400160405280600481526020017f6970667300000000000000000000000000000000000000000000000000000000815250905090565b6060611c1a82610e05565b6000611c24611bd2565b90506000815111611c445760405180602001604052806000815250611c6f565b80611c4e8461218a565b604051602001611c5f92919061360c565b6040516020818303038152906040525b915050919050565b60007f01ffc9a7000000000000000000000000000000000000000000000000000000007bffffffffffffffffffffffffffffffffffffffffffffffffffffffff1916827bffffffffffffffffffffffffffffffffffffffffffffffffffffffff1916149050919050565b6060611d078273ffffffffffffffffffffffffffffffffffffffff16601460ff16611d0e565b9050919050565b606060006002836002611d219190613814565b611d2b9190613856565b67ffffffffffffffff811115611d4457611d43612661565b5b6040519080825280601f01601f191660200182016040528015611d765781602001600182028036833780820191505090505b5090507f300000000000000000000000000000000000000000000000000000000000000081600081518110611dae57611dad61388a565b5b60200101907effffffffffffffffffffffffffffffffffffffffffffffffffffffffffffff1916908160001a9053507f780000000000000000000000000000000000000000000000000000000000000081600181518110611e1257611e1161388a565b5b60200101907effffffffffffffffffffffffffffffffffffffffffffffffffffffffffffff1916908160001a90535060006001846002611e529190613814565b611e5c9190613856565b90505b6001811115611efc577f3031323334353637383961626364656600000000000000000000000000000000600f861660108110611e9e57611e9d61388a565b5b1a60f81b828281518110611eb557611eb461388a565b5b60200101907effffffffffffffffffffffffffffffffffffffffffffffffffffffffffffff1916908160001a905350600485901c945080611ef5906138b9565b9050611e5f565b5060008414611f40576040517f08c379a0000000000000000000000000000000000000000000000000000000008152600401611f379061392e565b60405180910390fd5b8091505092915050565b600073ffffffffffffffffffffffffffffffffffffffff168273ffffffffffffffffffffffffffffffffffffffff1603611fb9576040517f08c379a0000000000000000000000000000000000000000000000000000000008152600401611fb09061399a565b60405180910390fd5b611fc281611706565b15612002576040517f08c379a0000000000000000000000000000000000000000000000000000000008152600401611ff990613a06565b60405180910390fd5b61201060008383600161195f565b61201981611706565b15612059576040517f08c379a000000000000000000000000000000000000000000000000000000000815260040161205090613a06565b60405180910390fd5b6001600360008473ffffffffffffffffffffffffffffffffffffffff1673ffffffffffffffffffffffffffffffffffffffff16815260200190815260200160002060008282540192505081905550816002600083815260200190815260200160002060006101000a81548173ffffffffffffffffffffffffffffffffffffffff021916908373ffffffffffffffffffffffffffffffffffffffff160217905550808273ffffffffffffffffffffffffffffffffffffffff16600073ffffffffffffffffffffffffffffffffffffffff167fddf252ad1be2c89b69c2b068fc378daa952ba7f163c4a11628f55a4df523b3ef60405160405180910390a4612163600083836001611965565b5050565b6000808273ffffffffffffffffffffffffffffffffffffffff163b119050919050565b60606000600161219984612258565b01905060008167ffffffffffffffff8111156121b8576121b7612661565b5b6040519080825280601f01601f1916602001820160405280156121ea5781602001600182028036833780820191505090505b509050600082602001820190505b60011561224d578080600190039150507f3031323334353637383961626364656600000000000000000000000000000000600a86061a8153600a858161224157612240613a26565b5b049450600085036121f8575b819350505050919050565b600080600090507a184f03e93ff9f4daa797ed6e38ed64bf6a1f01000000000000000083106122b6577a184f03e93ff9f4daa797ed6e38ed64bf6a1f01000000000000000083816122ac576122ab613a26565b5b0492506040810190505b6d04ee2d6d415b85acef810000000083106122f3576d04ee2d6d415b85acef810000000083816122e9576122e8613a26565b5b0492506020810190505b662386f26fc10000831061232257662386f26fc10000838161231857612317613a26565b5b0492506010810190505b6305f5e100831061234b576305f5e100838161234157612340613a26565b5b0492506008810190505b612710831061237057612710838161236657612365613a26565b5b0492506004810190505b60648310612393576064838161238957612388613a26565b5b0492506002810190505b600a83106123a2576001810190505b80915050919050565b6000604051905090565b600080fd5b600080fd5b60007fffffffff0000000000000000000000000000000000000000000000000000000082169050919050565b6123f4816123bf565b81146123ff57600080fd5b50565b600081359050612411816123eb565b92915050565b60006020828403121561242d5761242c6123b5565b5b600061243b84828501612402565b91505092915050565b60008115159050919050565b61245981612444565b82525050565b60006020820190506124746000830184612450565b92915050565b600081519050919050565b600082825260208201905092915050565b60005b838110156124b4578082015181840152602081019050612499565b60008484015250505050565b6000601f19601f8301169050919050565b60006124dc8261247a565b6124e68185612485565b93506124f6818560208601612496565b6124ff816124c0565b840191505092915050565b6000602082019050818103600083015261252481846124d1565b905092915050565b6000819050919050565b61253f8161252c565b811461254a57600080fd5b50565b60008135905061255c81612536565b92915050565b600060208284031215612578576125776123b5565b5b60006125868482850161254d565b91505092915050565b600073ffffffffffffffffffffffffffffffffffffffff82169050919050565b60006125ba8261258f565b9050919050565b6125ca816125af565b82525050565b60006020820190506125e560008301846125c1565b92915050565b6125f4816125af565b81146125ff57600080fd5b50565b600081359050612611816125eb565b92915050565b6000806040838503121561262e5761262d6123b5565b5b600061263c85828601612602565b925050602061264d8582860161254d565b9150509250929050565b600080fd5b600080fd5b7f4e487b7100000000000000000000000000000000000000000000000000000000600052604160045260246000fd5b612699826124c0565b810181811067ffffffffffffffff821117156126b8576126b7612661565b5b80604052505050565b60006126cb6123ab565b90506126d78282612690565b919050565b600067ffffffffffffffff8211156126f7576126f6612661565b5b612700826124c0565b9050602081019050919050565b82818337600083830152505050565b600061272f61272a846126dc565b6126c1565b90508281526020810184848401111561274b5761274a61265c565b5b61275684828561270d565b509392505050565b600082601f83011261277357612772612657565b5b813561278384826020860161271c565b91505092915050565b600080604083850312156127a3576127a26123b5565b5b60006127b18582860161254d565b925050602083013567ffffffffffffffff8111156127d2576127d16123ba565b5b6127de8582860161275e565b9150509250929050565b600080600060608486031215612801576128006123b5565b5b600061280f86828701612602565b935050602061282086828701612602565b92505060406128318682870161254d565b9150509250925092565b6000819050919050565b61284e8161283b565b811461285957600080fd5b50565b60008135905061286b81612845565b92915050565b600060208284031215612887576128866123b5565b5b60006128958482850161285c565b91505092915050565b6128a78161283b565b82525050565b60006020820190506128c2600083018461289e565b92915050565b600080604083850312156128df576128de6123b5565b5b60006128ed8582860161285c565b92505060206128fe85828601612602565b9150509250929050565b600080600060608486031215612921576129206123b5565b5b600061292f86828701612602565b93505060206129408682870161254d565b925050604084013567ffffffffffffffff811115612961576129606123ba565b5b61296d8682870161275e565b9150509250925092565b60006020828403121561298d5761298c6123b5565b5b600061299b84828501612602565b91505092915050565b6129ad8161252c565b82525050565b60006020820190506129c860008301846129a4565b92915050565b6129d781612444565b81146129e257600080fd5b50565b6000813590506129f4816129ce565b92915050565b60008060408385031215612a1157612a106123b5565b5b6000612a1f85828601612602565b9250506020612a30858286016129e5565b9150509250929050565b600067ffffffffffffffff821115612a5557612a54612661565b5b612a5e826124c0565b9050602081019050919050565b6000612a7e612a7984612a3a565b6126c1565b905082815260208101848484011115612a9a57612a9961265c565b5b612aa584828561270d565b509392505050565b600082601f830112612ac257612ac1612657565b5b8135612ad2848260208601612a6b565b91505092915050565b60008060008060808587031215612af557612af46123b5565b5b6000612b0387828801612602565b9450506020612b1487828801612602565b9350506040612b258782880161254d565b925050606085013567ffffffffffffffff811115612b4657612b456123ba565b5b612b5287828801612aad565b91505092959194509250565b60008060408385031215612b7557612b746123b5565b5b6000612b8385828601612602565b925050602083013567ffffffffffffffff811115612ba457612ba36123ba565b5b612bb08582860161275e565b9150509250929050565b60008060408385031215612bd157612bd06123b5565b5b6000612bdf85828601612602565b9250506020612bf085828601612602565b9150509250929050565b7f4e487b7100000000000000000000000000000000000000000000000000000000600052602260045260246000fd5b60006002820490506001821680612c4157607f821691505b602082108103612c5457612c53612bfa565b5b50919050565b7f4552433732313a20617070726f76616c20746f2063757272656e74206f776e6560008201527f7200000000000000000000000000000000000000000000000000000000000000602082015250565b6000612cb6602183612485565b9150612cc182612c5a565b604082019050919050565b60006020820190508181036000830152612ce581612ca9565b9050919050565b7f4552433732313a20617070726f76652063616c6c6572206973206e6f7420746f60008201527f6b656e206f776e6572206f7220617070726f76656420666f7220616c6c000000602082015250565b6000612d48603d83612485565b9150612d5382612cec565b604082019050919050565b60006020820190508181036000830152612d7781612d3b565b9050919050565b7f50444620686173682068617320616c7265616479206265656e2073657420666f60008201527f72207468697320746f6b656e2049440000000000000000000000000000000000602082015250565b6000612dda602f83612485565b9150612de582612d7e565b604082019050919050565b60006020820190508181036000830152612e0981612dcd565b9050919050565b60008190508160005260206000209050919050565b60006020601f8301049050919050565b600082821b905092915050565b600060088302612e727fffffffffffffffffffffffffffffffffffffffffffffffffffffffffffffffff82612e35565b612e7c8683612e35565b95508019841693508086168417925050509392505050565b6000819050919050565b6000612eb9612eb4612eaf8461252c565b612e94565b61252c565b9050919050565b6000819050919050565b612ed383612e9e565b612ee7612edf82612ec0565b848454612e42565b825550505050565b600090565b612efc612eef565b612f07818484612eca565b505050565b5b81811015612f2b57612f20600082612ef4565b600181019050612f0d565b5050565b601f821115612f7057612f4181612e10565b612f4a84612e25565b81016020851015612f59578190505b612f6d612f6585612e25565b830182612f0c565b50505b505050565b600082821c905092915050565b6000612f9360001984600802612f75565b1980831691505092915050565b6000612fac8383612f82565b9150826002028217905092915050565b612fc58261247a565b67ffffffffffffffff811115612fde57612fdd612661565b5b612fe88254612c29565b612ff3828285612f2f565b600060209050601f8311600181146130265760008415613014578287015190505b61301e8582612fa0565b865550613086565b601f19841661303486612e10565b60005b8281101561305c57848901518255600182019150602085019450602081019050613037565b868310156130795784890151613075601f891682612f82565b8355505b6001600288020188555050505b505050505050565b7f4552433732313a2063616c6c6572206973206e6f7420746f6b656e206f776e6560008201527f72206f7220617070726f76656400000000000000000000000000000000000000602082015250565b60006130ea602d83612485565b91506130f58261308e565b604082019050919050565b60006020820190508181036000830152613119816130dd565b9050919050565b7f416363657373436f6e74726f6c3a2063616e206f6e6c792072656e6f756e636560008201527f20726f6c657320666f722073656c660000000000000000000000000000000000602082015250565b600061317c602f83612485565b915061318782613120565b604082019050919050565b600060208201905081810360008301526131ab8161316f565b9050919050565b7f4552433732313a20696e76616c696420746f6b656e2049440000000000000000600082015250565b60006131e8601883612485565b91506131f3826131b2565b602082019050919050565b60006020820190508181036000830152613217816131db565b9050919050565b7f4552433732313a2061646472657373207a65726f206973206e6f74206120766160008201527f6c6964206f776e65720000000000000000000000000000000000000000000000602082015250565b600061327a602983612485565b91506132858261321e565b604082019050919050565b600060208201905081810360008301526132a98161326d565b9050919050565b7f546f6b656e20646f6573206e6f74206578697374000000000000000000000000600082015250565b60006132e6601483612485565b91506132f1826132b0565b602082019050919050565b60006020820190508181036000830152613315816132d9565b9050919050565b7f4552433732313a207472616e736665722066726f6d20696e636f72726563742060008201527f6f776e6572000000000000000000000000000000000000000000000000000000602082015250565b6000613378602583612485565b91506133838261331c565b604082019050919050565b600060208201905081810360008301526133a78161336b565b9050919050565b7f4552433732313a207472616e7366657220746f20746865207a65726f2061646460008201527f7265737300000000000000000000000000000000000000000000000000000000602082015250565b600061340a602483612485565b9150613415826133ae565b604082019050919050565b60006020820190508181036000830152613439816133fd565b9050919050565b7f45524337323155524953746f726167653a2055524920736574206f66206e6f6e60008201527f6578697374656e7420746f6b656e000000000000000000000000000000000000602082015250565b600061349c602e83612485565b91506134a782613440565b604082019050919050565b600060208201905081810360008301526134cb8161348f565b9050919050565b7f4552433732313a20617070726f766520746f2063616c6c657200000000000000600082015250565b6000613508601983612485565b9150613513826134d2565b602082019050919050565b60006020820190508181036000830152613537816134fb565b9050919050565b7f4552433732313a207472616e7366657220746f206e6f6e20455243373231526560008201527f63656976657220696d706c656d656e7465720000000000000000000000000000602082015250565b600061359a603283612485565b91506135a58261353e565b604082019050919050565b600060208201905081810360008301526135c98161358d565b9050919050565b600081905092915050565b60006135e68261247a565b6135f081856135d0565b9350613600818560208601612496565b80840191505092915050565b600061361882856135db565b915061362482846135db565b91508190509392505050565b7f416363657373436f6e74726f6c3a206163636f756e7420000000000000000000600082015250565b60006136666017836135d0565b915061367182613630565b601782019050919050565b7f206973206d697373696e6720726f6c6520000000000000000000000000000000600082015250565b60006136b26011836135d0565b91506136bd8261367c565b601182019050919050565b60006136d382613659565b91506136df82856135db565b91506136ea826136a5565b91506136f682846135db565b91508190509392505050565b600081519050919050565b600082825260208201905092915050565b600061372982613702565b613733818561370d565b9350613743818560208601612496565b61374c816124c0565b840191505092915050565b600060808201905061376c60008301876125c1565b61377960208301866125c1565b61378660408301856129a4565b8181036060830152613798818461371e565b905095945050505050565b6000815190506137b2816123eb565b92915050565b6000602082840312156137ce576137cd6123b5565b5b60006137dc848285016137a3565b91505092915050565b7f4e487b7100000000000000000000000000000000000000000000000000000000600052601160045260246000fd5b600061381f8261252c565b915061382a8361252c565b92508282026138388161252c565b9150828204841483151761384f5761384e6137e5565b5b5092915050565b60006138618261252c565b915061386c8361252c565b9250828201905080821115613884576138836137e5565b5b92915050565b7f4e487b7100000000000000000000000000000000000000000000000000000000600052603260045260246000fd5b60006138c48261252c565b9150600082036138d7576138d66137e5565b5b600182039050919050565b7f537472696e67733a20686578206c656e67746820696e73756666696369656e74600082015250565b6000613918602083612485565b9150613923826138e2565b602082019050919050565b600060208201905081810360008301526139478161390b565b9050919050565b7f4552433732313a206d696e7420746f20746865207a65726f2061646472657373600082015250565b6000613984602083612485565b915061398f8261394e565b602082019050919050565b600060208201905081810360008301526139b381613977565b9050919050565b7f4552433732313a20746f6b656e20616c7265616479206d696e74656400000000600082015250565b60006139f0601c83612485565b91506139fb826139ba565b602082019050919050565b60006020820190508181036000830152613a1f816139e3565b9050919050565b7f4e487b7100000000000000000000000000000000000000000000000000000000600052601260045260246000fdfea264697066735822122056b6bbbe6e5c0c51a41b0842d22cf0bc878a70b51ddccb62bcb3ae46ed0a9efe64736f6c63430008120033",
  "immutableReferences": {},
  "source": "// SPDX-License-Identifier: GPL-3.0\r\npragma solidity 0.8.18;\r\n\r\nimport \"@openzeppelin/contracts/token/ERC721/ERC721.sol\";\r\nimport \"@openzeppelin/contracts/token/ERC721/extensions/ERC721Enumerable.sol\";\r\nimport \"@openzeppelin/contracts/token/ERC721/extensions/ERC721URIStorage.sol\";\r\nimport \"@openzeppelin/contracts/access/AccessControl.sol\";\r\nimport \"@openzeppelin/contracts/utils/cryptography/draft-EIP712.sol\";\r\nimport \"@openzeppelin/contracts/token/ERC721/extensions/draft-ERC721Votes.sol\";\r\nimport \"@openzeppelin/contracts/utils/Counters.sol\";\r\n\r\ncontract DiagnosticToken is ERC721, ERC721URIStorage, AccessControl {\r\n    using Counters for Counters.Counter;\r\n    mapping(uint256 => bool) private _pdfHashSet;\r\n    bytes32 public constant DIAGNOSTICIAN_ROLE = keccak256(\"MINTER_ROLE\");\r\n    Counters.Counter private _tokenIdCounter;\r\n\r\n    // Define mapping to store PDF hash for each token ID\r\n    mapping(uint256 => string) private _pdfHashes;\r\n\r\n    function _baseURI() internal pure override returns (string memory) {\r\n        return \"ipfs\";\r\n    }\r\n\r\n    constructor() ERC721(\"Diagnostic\", \"DGC\") {\r\n        _setupRole(DIAGNOSTICIAN_ROLE, msg.sender);\r\n    }\r\n\r\n    function safeMint(address to, string memory uri) public {\r\n        uint256 tokenId = _tokenIdCounter.current();\r\n        _tokenIdCounter.increment();\r\n        _safeMint(to, tokenId);\r\n        _setTokenURI(tokenId, uri);\r\n    }\r\n\r\n    function mintDiagnostic(\r\n        address _to,\r\n        uint256 _tokenId,\r\n        string memory _tokenURI\r\n    ) external {\r\n        _safeMint(_to, _tokenId);\r\n        _setTokenURI(_tokenId, _tokenURI);\r\n    }\r\n\r\n    function setPDFHash(uint256 tokenId, string memory pdfHash) public {\r\n        require(\r\n            !_pdfHashSet[tokenId],\r\n            \"PDF hash has already been set for this token ID\"\r\n        );\r\n        _pdfHashes[tokenId] = pdfHash;\r\n        _pdfHashSet[tokenId] = true;\r\n    }\r\n\r\n    function getPDFHash(uint256 tokenId) public view returns (string memory) {\r\n        require(_exists(tokenId), \"Token does not exist\");\r\n        return _pdfHashes[tokenId];\r\n    }\r\n\r\n    // The following functions are overrides required by Solidity.\r\n    function _burn(\r\n        uint256 tokenId\r\n    ) internal override(ERC721, ERC721URIStorage) {\r\n        super._burn(tokenId);\r\n    }\r\n\r\n    function tokenURI(\r\n        uint256 tokenId\r\n    ) public view override(ERC721, ERC721URIStorage) returns (string memory) {\r\n        return super.tokenURI(tokenId);\r\n    }\r\n\r\n    function supportsInterface(\r\n        bytes4 interfaceId\r\n    ) public view override(ERC721, AccessControl) returns (bool) {\r\n        return super.supportsInterface(interfaceId);\r\n    }\r\n}\r\n",
  "sourcePath": "D:\\dev_blockchain\\alyra\\Diagnostify - Copy\\truffle\\contracts\\DiagnosticToken.sol",
  "compiler": {
    "name": "solc",
    "version": "0.8.18+commit.87f61d96.Emscripten.clang"
  },
  "schemaVersion": "3.4.13",
  "updatedAt": "2023-04-04T21:57:13.351Z",
  "networkType": "ethereum",
  "devdoc": {
    "events": {
      "Approval(address,address,uint256)": {
        "details": "Emitted when `owner` enables `approved` to manage the `tokenId` token."
      },
      "ApprovalForAll(address,address,bool)": {
        "details": "Emitted when `owner` enables or disables (`approved`) `operator` to manage all of its assets."
      },
      "RoleAdminChanged(bytes32,bytes32,bytes32)": {
        "details": "Emitted when `newAdminRole` is set as ``role``'s admin role, replacing `previousAdminRole` `DEFAULT_ADMIN_ROLE` is the starting admin for all roles, despite {RoleAdminChanged} not being emitted signaling this. _Available since v3.1._"
      },
      "RoleGranted(bytes32,address,address)": {
        "details": "Emitted when `account` is granted `role`. `sender` is the account that originated the contract call, an admin role bearer except when using {AccessControl-_setupRole}."
      },
      "RoleRevoked(bytes32,address,address)": {
        "details": "Emitted when `account` is revoked `role`. `sender` is the account that originated the contract call:   - if using `revokeRole`, it is the admin role bearer   - if using `renounceRole`, it is the role bearer (i.e. `account`)"
      },
      "Transfer(address,address,uint256)": {
        "details": "Emitted when `tokenId` token is transferred from `from` to `to`."
      }
    },
    "kind": "dev",
    "methods": {
      "approve(address,uint256)": {
        "details": "See {IERC721-approve}."
      },
      "balanceOf(address)": {
        "details": "See {IERC721-balanceOf}."
      },
      "getApproved(uint256)": {
        "details": "See {IERC721-getApproved}."
      },
      "getRoleAdmin(bytes32)": {
        "details": "Returns the admin role that controls `role`. See {grantRole} and {revokeRole}. To change a role's admin, use {_setRoleAdmin}."
      },
      "grantRole(bytes32,address)": {
        "details": "Grants `role` to `account`. If `account` had not been already granted `role`, emits a {RoleGranted} event. Requirements: - the caller must have ``role``'s admin role. May emit a {RoleGranted} event."
      },
      "hasRole(bytes32,address)": {
        "details": "Returns `true` if `account` has been granted `role`."
      },
      "isApprovedForAll(address,address)": {
        "details": "See {IERC721-isApprovedForAll}."
      },
      "name()": {
        "details": "See {IERC721Metadata-name}."
      },
      "ownerOf(uint256)": {
        "details": "See {IERC721-ownerOf}."
      },
      "renounceRole(bytes32,address)": {
        "details": "Revokes `role` from the calling account. Roles are often managed via {grantRole} and {revokeRole}: this function's purpose is to provide a mechanism for accounts to lose their privileges if they are compromised (such as when a trusted device is misplaced). If the calling account had been revoked `role`, emits a {RoleRevoked} event. Requirements: - the caller must be `account`. May emit a {RoleRevoked} event."
      },
      "revokeRole(bytes32,address)": {
        "details": "Revokes `role` from `account`. If `account` had been granted `role`, emits a {RoleRevoked} event. Requirements: - the caller must have ``role``'s admin role. May emit a {RoleRevoked} event."
      },
      "safeTransferFrom(address,address,uint256)": {
        "details": "See {IERC721-safeTransferFrom}."
      },
      "safeTransferFrom(address,address,uint256,bytes)": {
        "details": "See {IERC721-safeTransferFrom}."
      },
      "setApprovalForAll(address,bool)": {
        "details": "See {IERC721-setApprovalForAll}."
      },
      "symbol()": {
        "details": "See {IERC721Metadata-symbol}."
      },
      "transferFrom(address,address,uint256)": {
        "details": "See {IERC721-transferFrom}."
      }
    },
    "version": 1
  },
  "userdoc": {
    "kind": "user",
    "methods": {},
    "version": 1
  }
}