{
  "contractName": "PropertyFactory",
  "abi": [
    {
      "inputs": [],
      "stateMutability": "nonpayable",
      "type": "constructor"
    },
    {
      "inputs": [
        {
          "internalType": "address",
          "name": "",
          "type": "address"
        }
      ],
      "name": "properties",
      "outputs": [
        {
          "internalType": "contract Property",
          "name": "",
          "type": "address"
        }
      ],
      "stateMutability": "view",
      "type": "function",
      "constant": true
    },
    {
      "inputs": [
        {
          "internalType": "address",
          "name": "",
          "type": "address"
        },
        {
          "internalType": "uint256",
          "name": "",
          "type": "uint256"
        }
      ],
      "name": "userProperties",
      "outputs": [
        {
          "internalType": "contract Property",
          "name": "",
          "type": "address"
        }
      ],
      "stateMutability": "view",
      "type": "function",
      "constant": true
    },
    {
      "inputs": [
        {
          "internalType": "string",
          "name": "_name",
          "type": "string"
        },
        {
          "internalType": "string",
          "name": "_symbol",
          "type": "string"
        }
      ],
      "name": "createProperty",
      "outputs": [
        {
          "internalType": "address",
          "name": "",
          "type": "address"
        }
      ],
      "stateMutability": "nonpayable",
      "type": "function"
    },
    {
      "inputs": [
        {
          "internalType": "address",
          "name": "_property",
          "type": "address"
        },
        {
          "internalType": "string",
          "name": "_documentHash",
          "type": "string"
        },
        {
          "internalType": "string",
          "name": "_tokenURI",
          "type": "string"
        },
        {
          "internalType": "uint256",
          "name": "_expiryDate",
          "type": "uint256"
        }
      ],
      "name": "createDiagnostic",
      "outputs": [
        {
          "internalType": "uint256",
          "name": "",
          "type": "uint256"
        }
      ],
      "stateMutability": "nonpayable",
      "type": "function"
    },
    {
      "inputs": [
        {
          "internalType": "address",
          "name": "property",
          "type": "address"
        }
      ],
      "name": "getPropertyContract",
      "outputs": [
        {
          "internalType": "contract Property",
          "name": "",
          "type": "address"
        }
      ],
      "stateMutability": "view",
      "type": "function",
      "constant": true
    },
    {
      "inputs": [],
      "name": "getUserProperties",
      "outputs": [
        {
          "internalType": "contract Property[]",
          "name": "",
          "type": "address[]"
        }
      ],
      "stateMutability": "view",
      "type": "function",
      "constant": true
    },
    {
      "inputs": [
        {
          "internalType": "address",
          "name": "property",
          "type": "address"
        },
        {
          "internalType": "uint256",
          "name": "tokenId",
          "type": "uint256"
        }
      ],
      "name": "getDiagnosticHash",
      "outputs": [
        {
          "internalType": "string",
          "name": "",
          "type": "string"
        }
      ],
      "stateMutability": "view",
      "type": "function",
      "constant": true
    },
    {
      "inputs": [
        {
          "internalType": "address",
          "name": "_property",
          "type": "address"
        },
        {
          "internalType": "address",
          "name": "_to",
          "type": "address"
        },
        {
          "internalType": "uint256",
          "name": "_tokenId",
          "type": "uint256"
        }
      ],
      "name": "transferOwnership",
      "outputs": [],
      "stateMutability": "nonpayable",
      "type": "function"
    }
  ],
  "bytecode": "0x608060405234801561001057600080fd5b50614852806100206000396000f3fe60806040523480156200001157600080fd5b5060043610620000945760003560e01c806329e70ffe116200006357806329e70ffe146200015b5780635d09be601462000191578063b913a1a914620001b3578063e2271c9f14620001e95762000094565b806307460b6614620000995780630d14e63314620000cf578063171c00fd146200010557806325ec77d71462000125575b600080fd5b620000b76004803603810190620000b1919062000a50565b6200021f565b604051620000c6919062000b1a565b60405180910390f35b620000ed6004803603810190620000e7919062000ba3565b6200038c565b604051620000fc919062000c64565b60405180910390f35b6200012360048036038101906200011d919062000c81565b62000551565b005b6200014360048036038101906200013d919062000cdd565b62000628565b60405162000152919062000d7a565b60405180910390f35b62000179600480360381019062000173919062000cdd565b6200065b565b60405162000188919062000d7a565b60405180910390f35b6200019b620006c4565b604051620001aa919062000e65565b60405180910390f35b620001d16004803603810190620001cb919062000e89565b62000790565b604051620001e0919062000f59565b60405180910390f35b62000207600480360381019062000201919062000e89565b6200087d565b60405162000216919062000d7a565b60405180910390f35b60008083836040516200023290620008cc565b6200023f92919062000f7d565b604051809103906000f0801580156200025c573d6000803e3d6000fd5b5090506000803373ffffffffffffffffffffffffffffffffffffffff1673ffffffffffffffffffffffffffffffffffffffff168152602001908152602001600020819080600181540180825580915050600190039060005260206000200160009091909190916101000a81548173ffffffffffffffffffffffffffffffffffffffff021916908373ffffffffffffffffffffffffffffffffffffffff160217905550600081905081600160008373ffffffffffffffffffffffffffffffffffffffff1673ffffffffffffffffffffffffffffffffffffffff16815260200190815260200160002060006101000a81548173ffffffffffffffffffffffffffffffffffffffff021916908373ffffffffffffffffffffffffffffffffffffffff160217905550809250505092915050565b600080600160008773ffffffffffffffffffffffffffffffffffffffff1673ffffffffffffffffffffffffffffffffffffffff16815260200190815260200160002060009054906101000a900473ffffffffffffffffffffffffffffffffffffffff1673ffffffffffffffffffffffffffffffffffffffff1663c772745a3386866040518463ffffffff1660e01b81526004016200042d9392919062000fb8565b6020604051808303816000875af11580156200044d573d6000803e3d6000fd5b505050506040513d601f19601f8201168201806040525081019062000473919062001013565b9050600160008773ffffffffffffffffffffffffffffffffffffffff1673ffffffffffffffffffffffffffffffffffffffff16815260200190815260200160002060009054906101000a900473ffffffffffffffffffffffffffffffffffffffff1673ffffffffffffffffffffffffffffffffffffffff166354f7873782876040518363ffffffff1660e01b81526004016200051192919062001045565b600060405180830381600087803b1580156200052c57600080fd5b505af115801562000541573d6000803e3d6000fd5b5050505080915050949350505050565b600160008473ffffffffffffffffffffffffffffffffffffffff1673ffffffffffffffffffffffffffffffffffffffff16815260200190815260200160002060009054906101000a900473ffffffffffffffffffffffffffffffffffffffff1673ffffffffffffffffffffffffffffffffffffffff166323b872dd3384846040518463ffffffff1660e01b8152600401620005ef9392919062001079565b600060405180830381600087803b1580156200060a57600080fd5b505af11580156200061f573d6000803e3d6000fd5b50505050505050565b60016020528060005260406000206000915054906101000a900473ffffffffffffffffffffffffffffffffffffffff1681565b6000600160008373ffffffffffffffffffffffffffffffffffffffff1673ffffffffffffffffffffffffffffffffffffffff16815260200190815260200160002060009054906101000a900473ffffffffffffffffffffffffffffffffffffffff169050919050565b60606000803373ffffffffffffffffffffffffffffffffffffffff1673ffffffffffffffffffffffffffffffffffffffff1681526020019081526020016000208054806020026020016040519081016040528092919081815260200182805480156200078657602002820191906000526020600020905b8160009054906101000a900473ffffffffffffffffffffffffffffffffffffffff1673ffffffffffffffffffffffffffffffffffffffff16815260200190600101908083116200073b575b5050505050905090565b6060600160008473ffffffffffffffffffffffffffffffffffffffff1673ffffffffffffffffffffffffffffffffffffffff16815260200190815260200160002060009054906101000a900473ffffffffffffffffffffffffffffffffffffffff1673ffffffffffffffffffffffffffffffffffffffff16638796ec86836040518263ffffffff1660e01b81526004016200082c919062000c64565b600060405180830381865afa1580156200084a573d6000803e3d6000fd5b505050506040513d6000823e3d601f19601f8201168201806040525081019062000875919062001134565b905092915050565b600060205281600052604060002081815481106200089a57600080fd5b906000526020600020016000915091509054906101000a900473ffffffffffffffffffffffffffffffffffffffff1681565b613697806200118683390190565b6000604051905090565b600080fd5b600080fd5b600080fd5b600080fd5b6000601f19601f8301169050919050565b7f4e487b7100000000000000000000000000000000000000000000000000000000600052604160045260246000fd5b6200094382620008f8565b810181811067ffffffffffffffff8211171562000965576200096462000909565b5b80604052505050565b60006200097a620008da565b905062000988828262000938565b919050565b600067ffffffffffffffff821115620009ab57620009aa62000909565b5b620009b682620008f8565b9050602081019050919050565b82818337600083830152505050565b6000620009e9620009e3846200098d565b6200096e565b90508281526020810184848401111562000a085762000a07620008f3565b5b62000a15848285620009c3565b509392505050565b600082601f83011262000a355762000a34620008ee565b5b813562000a47848260208601620009d2565b91505092915050565b6000806040838503121562000a6a5762000a69620008e4565b5b600083013567ffffffffffffffff81111562000a8b5762000a8a620008e9565b5b62000a998582860162000a1d565b925050602083013567ffffffffffffffff81111562000abd5762000abc620008e9565b5b62000acb8582860162000a1d565b9150509250929050565b600073ffffffffffffffffffffffffffffffffffffffff82169050919050565b600062000b028262000ad5565b9050919050565b62000b148162000af5565b82525050565b600060208201905062000b31600083018462000b09565b92915050565b62000b428162000af5565b811462000b4e57600080fd5b50565b60008135905062000b628162000b37565b92915050565b6000819050919050565b62000b7d8162000b68565b811462000b8957600080fd5b50565b60008135905062000b9d8162000b72565b92915050565b6000806000806080858703121562000bc05762000bbf620008e4565b5b600062000bd08782880162000b51565b945050602085013567ffffffffffffffff81111562000bf45762000bf3620008e9565b5b62000c028782880162000a1d565b935050604085013567ffffffffffffffff81111562000c265762000c25620008e9565b5b62000c348782880162000a1d565b925050606062000c478782880162000b8c565b91505092959194509250565b62000c5e8162000b68565b82525050565b600060208201905062000c7b600083018462000c53565b92915050565b60008060006060848603121562000c9d5762000c9c620008e4565b5b600062000cad8682870162000b51565b935050602062000cc08682870162000b51565b925050604062000cd38682870162000b8c565b9150509250925092565b60006020828403121562000cf65762000cf5620008e4565b5b600062000d068482850162000b51565b91505092915050565b6000819050919050565b600062000d3a62000d3462000d2e8462000ad5565b62000d0f565b62000ad5565b9050919050565b600062000d4e8262000d19565b9050919050565b600062000d628262000d41565b9050919050565b62000d748162000d55565b82525050565b600060208201905062000d91600083018462000d69565b92915050565b600081519050919050565b600082825260208201905092915050565b6000819050602082019050919050565b62000dce8162000d55565b82525050565b600062000de2838362000dc3565b60208301905092915050565b6000602082019050919050565b600062000e088262000d97565b62000e14818562000da2565b935062000e218362000db3565b8060005b8381101562000e5857815162000e3c888262000dd4565b975062000e498362000dee565b92505060018101905062000e25565b5085935050505092915050565b6000602082019050818103600083015262000e81818462000dfb565b905092915050565b6000806040838503121562000ea35762000ea2620008e4565b5b600062000eb38582860162000b51565b925050602062000ec68582860162000b8c565b9150509250929050565b600081519050919050565b600082825260208201905092915050565b60005b8381101562000f0c57808201518184015260208101905062000eef565b60008484015250505050565b600062000f258262000ed0565b62000f31818562000edb565b935062000f4381856020860162000eec565b62000f4e81620008f8565b840191505092915050565b6000602082019050818103600083015262000f75818462000f18565b905092915050565b6000604082019050818103600083015262000f99818562000f18565b9050818103602083015262000faf818462000f18565b90509392505050565b600060608201905062000fcf600083018662000b09565b818103602083015262000fe3818562000f18565b905062000ff4604083018462000c53565b949350505050565b6000815190506200100d8162000b72565b92915050565b6000602082840312156200102c576200102b620008e4565b5b60006200103c8482850162000ffc565b91505092915050565b60006040820190506200105c600083018562000c53565b818103602083015262001070818462000f18565b90509392505050565b600060608201905062001090600083018662000b09565b6200109f602083018562000b09565b620010ae604083018462000c53565b949350505050565b6000620010cd620010c7846200098d565b6200096e565b905082815260208101848484011115620010ec57620010eb620008f3565b5b620010f984828562000eec565b509392505050565b600082601f830112620011195762001118620008ee565b5b81516200112b848260208601620010b6565b91505092915050565b6000602082840312156200114d576200114c620008e4565b5b600082015167ffffffffffffffff8111156200116e576200116d620008e9565b5b6200117c8482850162001101565b9150509291505056fe60806040523480156200001157600080fd5b5060405162003697380380620036978339818101604052810190620000379190620001fa565b818181600090816200004a9190620004ca565b5080600190816200005c9190620004ca565b5050505050620005b1565b6000604051905090565b600080fd5b600080fd5b600080fd5b600080fd5b6000601f19601f8301169050919050565b7f4e487b7100000000000000000000000000000000000000000000000000000000600052604160045260246000fd5b620000d08262000085565b810181811067ffffffffffffffff82111715620000f257620000f162000096565b5b80604052505050565b60006200010762000067565b9050620001158282620000c5565b919050565b600067ffffffffffffffff82111562000138576200013762000096565b5b620001438262000085565b9050602081019050919050565b60005b838110156200017057808201518184015260208101905062000153565b60008484015250505050565b6000620001936200018d846200011a565b620000fb565b905082815260208101848484011115620001b257620001b162000080565b5b620001bf84828562000150565b509392505050565b600082601f830112620001df57620001de6200007b565b5b8151620001f18482602086016200017c565b91505092915050565b6000806040838503121562000214576200021362000071565b5b600083015167ffffffffffffffff81111562000235576200023462000076565b5b6200024385828601620001c7565b925050602083015167ffffffffffffffff81111562000267576200026662000076565b5b6200027585828601620001c7565b9150509250929050565b600081519050919050565b7f4e487b7100000000000000000000000000000000000000000000000000000000600052602260045260246000fd5b60006002820490506001821680620002d257607f821691505b602082108103620002e857620002e76200028a565b5b50919050565b60008190508160005260206000209050919050565b60006020601f8301049050919050565b600082821b905092915050565b600060088302620003527fffffffffffffffffffffffffffffffffffffffffffffffffffffffffffffffff8262000313565b6200035e868362000313565b95508019841693508086168417925050509392505050565b6000819050919050565b6000819050919050565b6000620003ab620003a56200039f8462000376565b62000380565b62000376565b9050919050565b6000819050919050565b620003c7836200038a565b620003df620003d682620003b2565b84845462000320565b825550505050565b600090565b620003f6620003e7565b62000403818484620003bc565b505050565b5b818110156200042b576200041f600082620003ec565b60018101905062000409565b5050565b601f8211156200047a576200044481620002ee565b6200044f8462000303565b810160208510156200045f578190505b620004776200046e8562000303565b83018262000408565b50505b505050565b600082821c905092915050565b60006200049f600019846008026200047f565b1980831691505092915050565b6000620004ba83836200048c565b9150826002028217905092915050565b620004d5826200027f565b67ffffffffffffffff811115620004f157620004f062000096565b5b620004fd8254620002b9565b6200050a8282856200042f565b600060209050601f8311600181146200054257600084156200052d578287015190505b620005398582620004ac565b865550620005a9565b601f1984166200055286620002ee565b60005b828110156200057c5784890151825560018201915060208501945060208101905062000555565b868310156200059c578489015162000598601f8916826200048c565b8355505b6001600288020188555050505b505050505050565b6130d680620005c16000396000f3fe608060405234801561001057600080fd5b50600436106101165760003560e01c806370a08231116100a2578063b88d4fde11610071578063b88d4fde14610303578063c772745a1461031f578063c87b56dd1461034f578063e985e9c51461037f578063f577a500146103af57610116565b806370a08231146102695780638796ec861461029957806395d89b41146102c9578063a22cb465146102e757610116565b8063150b7a02116100e9578063150b7a02146101b557806323b872dd146101e557806342842e0e1461020157806354f787371461021d5780636352211e1461023957610116565b806301ffc9a71461011b57806306fdde031461014b578063081812fc14610169578063095ea7b314610199575b600080fd5b61013560048036038101906101309190611cb4565b6103df565b6040516101429190611cfc565b60405180910390f35b6101536104c1565b6040516101609190611da7565b60405180910390f35b610183600480360381019061017e9190611dff565b610553565b6040516101909190611e6d565b60405180910390f35b6101b360048036038101906101ae9190611eb4565b610599565b005b6101cf60048036038101906101ca9190611f59565b6106b0565b6040516101dc9190611ff0565b60405180910390f35b6101ff60048036038101906101fa919061200b565b6106c5565b005b61021b6004803603810190610216919061200b565b610725565b005b6102376004803603810190610232919061218e565b610745565b005b610253600480360381019061024e9190611dff565b6107f7565b6040516102609190611e6d565b60405180910390f35b610283600480360381019061027e91906121ea565b61087d565b6040516102909190612226565b60405180910390f35b6102b360048036038101906102ae9190611dff565b610934565b6040516102c09190611da7565b60405180910390f35b6102d1610a21565b6040516102de9190611da7565b60405180910390f35b61030160048036038101906102fc919061226d565b610ab3565b005b61031d6004803603810190610318919061234e565b610ac9565b005b610339600480360381019061033491906123d1565b610b2b565b6040516103469190612226565b60405180910390f35b61036960048036038101906103649190611dff565b610bdb565b6040516103769190611da7565b60405180910390f35b61039960048036038101906103949190612440565b610bed565b6040516103a69190611cfc565b60405180910390f35b6103c960048036038101906103c49190611dff565b610c81565b6040516103d69190611cfc565b60405180910390f35b60007f80ac58cd000000000000000000000000000000000000000000000000000000007bffffffffffffffffffffffffffffffffffffffffffffffffffffffff1916827bffffffffffffffffffffffffffffffffffffffffffffffffffffffff191614806104aa57507f5b5e139f000000000000000000000000000000000000000000000000000000007bffffffffffffffffffffffffffffffffffffffffffffffffffffffff1916827bffffffffffffffffffffffffffffffffffffffffffffffffffffffff1916145b806104ba57506104b982610ce8565b5b9050919050565b6060600080546104d0906124af565b80601f01602080910402602001604051908101604052809291908181526020018280546104fc906124af565b80156105495780601f1061051e57610100808354040283529160200191610549565b820191906000526020600020905b81548152906001019060200180831161052c57829003601f168201915b5050505050905090565b600061055e82610d52565b6004600083815260200190815260200160002060009054906101000a900473ffffffffffffffffffffffffffffffffffffffff169050919050565b60006105a4826107f7565b90508073ffffffffffffffffffffffffffffffffffffffff168373ffffffffffffffffffffffffffffffffffffffff1603610614576040517f08c379a000000000000000000000000000000000000000000000000000000000815260040161060b90612552565b60405180910390fd5b8073ffffffffffffffffffffffffffffffffffffffff16610633610d9d565b73ffffffffffffffffffffffffffffffffffffffff16148061066257506106618161065c610d9d565b610bed565b5b6106a1576040517f08c379a0000000000000000000000000000000000000000000000000000000008152600401610698906125e4565b60405180910390fd5b6106ab8383610da5565b505050565b600063150b7a0260e01b905095945050505050565b6106d66106d0610d9d565b82610e5e565b610715576040517f08c379a000000000000000000000000000000000000000000000000000000000815260040161070c90612676565b60405180910390fd5b610720838383610ef3565b505050565b61074083838360405180602001604052806000815250610ac9565b505050565b6008600083815260200190815260200160002060009054906101000a900460ff16156107a6576040517f08c379a000000000000000000000000000000000000000000000000000000000815260040161079d90612708565b60405180910390fd5b806007600084815260200190815260200160002090816107c691906128d4565b5060016008600084815260200190815260200160002060006101000a81548160ff0219169083151502179055505050565b600080610803836111ec565b9050600073ffffffffffffffffffffffffffffffffffffffff168173ffffffffffffffffffffffffffffffffffffffff1603610874576040517f08c379a000000000000000000000000000000000000000000000000000000000815260040161086b906129f2565b60405180910390fd5b80915050919050565b60008073ffffffffffffffffffffffffffffffffffffffff168273ffffffffffffffffffffffffffffffffffffffff16036108ed576040517f08c379a00000000000000000000000000000000000000000000000000000000081526004016108e490612a84565b60405180910390fd5b600360008373ffffffffffffffffffffffffffffffffffffffff1673ffffffffffffffffffffffffffffffffffffffff168152602001908152602001600020549050919050565b606061093f82611229565b61097e576040517f08c379a000000000000000000000000000000000000000000000000000000000815260040161097590612af0565b60405180910390fd5b60076000838152602001908152602001600020805461099c906124af565b80601f01602080910402602001604051908101604052809291908181526020018280546109c8906124af565b8015610a155780601f106109ea57610100808354040283529160200191610a15565b820191906000526020600020905b8154815290600101906020018083116109f857829003601f168201915b50505050509050919050565b606060018054610a30906124af565b80601f0160208091040260200160405190810160405280929190818152602001828054610a5c906124af565b8015610aa95780601f10610a7e57610100808354040283529160200191610aa9565b820191906000526020600020905b815481529060010190602001808311610a8c57829003601f168201915b5050505050905090565b610ac5610abe610d9d565b838361126a565b5050565b610ada610ad4610d9d565b83610e5e565b610b19576040517f08c379a0000000000000000000000000000000000000000000000000000000008152600401610b1090612676565b60405180910390fd5b610b25848484846113d6565b50505050565b600080429050808311610b73576040517f08c379a0000000000000000000000000000000000000000000000000000000008152600401610b6a90612b82565b60405180910390fd5b6000610b7f600b611432565b9050610b8b600b611440565b610b958682611456565b610b9f8186611673565b81600960008381526020019081526020016000208190555083600a60008381526020019081526020016000208190555080925050509392505050565b6060610be6826116e0565b9050919050565b6000600560008473ffffffffffffffffffffffffffffffffffffffff1673ffffffffffffffffffffffffffffffffffffffff16815260200190815260200160002060008373ffffffffffffffffffffffffffffffffffffffff1673ffffffffffffffffffffffffffffffffffffffff16815260200190815260200160002060009054906101000a900460ff16905092915050565b6000610c8c82611229565b610ccb576040517f08c379a0000000000000000000000000000000000000000000000000000000008152600401610cc290612af0565b60405180910390fd5b600a60008381526020019081526020016000205442109050919050565b60007f01ffc9a7000000000000000000000000000000000000000000000000000000007bffffffffffffffffffffffffffffffffffffffffffffffffffffffff1916827bffffffffffffffffffffffffffffffffffffffffffffffffffffffff1916149050919050565b610d5b81611229565b610d9a576040517f08c379a0000000000000000000000000000000000000000000000000000000008152600401610d91906129f2565b60405180910390fd5b50565b600033905090565b816004600083815260200190815260200160002060006101000a81548173ffffffffffffffffffffffffffffffffffffffff021916908373ffffffffffffffffffffffffffffffffffffffff160217905550808273ffffffffffffffffffffffffffffffffffffffff16610e18836107f7565b73ffffffffffffffffffffffffffffffffffffffff167f8c5be1e5ebec7d5bd14f71427d1e84f3dd0314c0f7b2291e5b200ac8c7c3b92560405160405180910390a45050565b600080610e6a836107f7565b90508073ffffffffffffffffffffffffffffffffffffffff168473ffffffffffffffffffffffffffffffffffffffff161480610eac5750610eab8185610bed565b5b80610eea57508373ffffffffffffffffffffffffffffffffffffffff16610ed284610553565b73ffffffffffffffffffffffffffffffffffffffff16145b91505092915050565b8273ffffffffffffffffffffffffffffffffffffffff16610f13826107f7565b73ffffffffffffffffffffffffffffffffffffffff1614610f69576040517f08c379a0000000000000000000000000000000000000000000000000000000008152600401610f6090612c14565b60405180910390fd5b600073ffffffffffffffffffffffffffffffffffffffff168273ffffffffffffffffffffffffffffffffffffffff1603610fd8576040517f08c379a0000000000000000000000000000000000000000000000000000000008152600401610fcf90612ca6565b60405180910390fd5b610fe583838360016117f2565b8273ffffffffffffffffffffffffffffffffffffffff16611005826107f7565b73ffffffffffffffffffffffffffffffffffffffff161461105b576040517f08c379a000000000000000000000000000000000000000000000000000000000815260040161105290612c14565b60405180910390fd5b6004600082815260200190815260200160002060006101000a81549073ffffffffffffffffffffffffffffffffffffffff02191690556001600360008573ffffffffffffffffffffffffffffffffffffffff1673ffffffffffffffffffffffffffffffffffffffff168152602001908152602001600020600082825403925050819055506001600360008473ffffffffffffffffffffffffffffffffffffffff1673ffffffffffffffffffffffffffffffffffffffff16815260200190815260200160002060008282540192505081905550816002600083815260200190815260200160002060006101000a81548173ffffffffffffffffffffffffffffffffffffffff021916908373ffffffffffffffffffffffffffffffffffffffff160217905550808273ffffffffffffffffffffffffffffffffffffffff168473ffffffffffffffffffffffffffffffffffffffff167fddf252ad1be2c89b69c2b068fc378daa952ba7f163c4a11628f55a4df523b3ef60405160405180910390a46111e783838360016117f8565b505050565b60006002600083815260200190815260200160002060009054906101000a900473ffffffffffffffffffffffffffffffffffffffff169050919050565b60008073ffffffffffffffffffffffffffffffffffffffff1661124b836111ec565b73ffffffffffffffffffffffffffffffffffffffff1614159050919050565b8173ffffffffffffffffffffffffffffffffffffffff168373ffffffffffffffffffffffffffffffffffffffff16036112d8576040517f08c379a00000000000000000000000000000000000000000000000000000000081526004016112cf90612d12565b60405180910390fd5b80600560008573ffffffffffffffffffffffffffffffffffffffff1673ffffffffffffffffffffffffffffffffffffffff16815260200190815260200160002060008473ffffffffffffffffffffffffffffffffffffffff1673ffffffffffffffffffffffffffffffffffffffff16815260200190815260200160002060006101000a81548160ff0219169083151502179055508173ffffffffffffffffffffffffffffffffffffffff168373ffffffffffffffffffffffffffffffffffffffff167f17307eab39ab6107e8899845ad3d59bd9653f200f220920489ca2b5937696c31836040516113c99190611cfc565b60405180910390a3505050565b6113e1848484610ef3565b6113ed848484846117fe565b61142c576040517f08c379a000000000000000000000000000000000000000000000000000000000815260040161142390612da4565b60405180910390fd5b50505050565b600081600001549050919050565b6001816000016000828254019250508190555050565b600073ffffffffffffffffffffffffffffffffffffffff168273ffffffffffffffffffffffffffffffffffffffff16036114c5576040517f08c379a00000000000000000000000000000000000000000000000000000000081526004016114bc90612e10565b60405180910390fd5b6114ce81611229565b1561150e576040517f08c379a000000000000000000000000000000000000000000000000000000000815260040161150590612e7c565b60405180910390fd5b61151c6000838360016117f2565b61152581611229565b15611565576040517f08c379a000000000000000000000000000000000000000000000000000000000815260040161155c90612e7c565b60405180910390fd5b6001600360008473ffffffffffffffffffffffffffffffffffffffff1673ffffffffffffffffffffffffffffffffffffffff16815260200190815260200160002060008282540192505081905550816002600083815260200190815260200160002060006101000a81548173ffffffffffffffffffffffffffffffffffffffff021916908373ffffffffffffffffffffffffffffffffffffffff160217905550808273ffffffffffffffffffffffffffffffffffffffff16600073ffffffffffffffffffffffffffffffffffffffff167fddf252ad1be2c89b69c2b068fc378daa952ba7f163c4a11628f55a4df523b3ef60405160405180910390a461166f6000838360016117f8565b5050565b61167c82611229565b6116bb576040517f08c379a00000000000000000000000000000000000000000000000000000000081526004016116b290612f0e565b60405180910390fd5b806006600084815260200190815260200160002090816116db91906128d4565b505050565b60606116eb82610d52565b600060066000848152602001908152602001600020805461170b906124af565b80601f0160208091040260200160405190810160405280929190818152602001828054611737906124af565b80156117845780601f1061175957610100808354040283529160200191611784565b820191906000526020600020905b81548152906001019060200180831161176757829003601f168201915b505050505090506000611795611985565b905060008151036117aa5781925050506117ed565b6000825111156117df5780826040516020016117c7929190612f6a565b604051602081830303815290604052925050506117ed565b6117e88461199c565b925050505b919050565b50505050565b50505050565b600061181f8473ffffffffffffffffffffffffffffffffffffffff16611a04565b15611978578373ffffffffffffffffffffffffffffffffffffffff1663150b7a02611848610d9d565b8786866040518563ffffffff1660e01b815260040161186a9493929190612fe3565b6020604051808303816000875af19250505080156118a657506040513d601f19601f820116820180604052508101906118a39190613044565b60015b611928573d80600081146118d6576040519150601f19603f3d011682016040523d82523d6000602084013e6118db565b606091505b506000815103611920576040517f08c379a000000000000000000000000000000000000000000000000000000000815260040161191790612da4565b60405180910390fd5b805181602001fd5b63150b7a0260e01b7bffffffffffffffffffffffffffffffffffffffffffffffffffffffff1916817bffffffffffffffffffffffffffffffffffffffffffffffffffffffff19161491505061197d565b600190505b949350505050565b606060405180602001604052806000815250905090565b60606119a782610d52565b60006119b1611985565b905060008151116119d157604051806020016040528060008152506119fc565b806119db84611a27565b6040516020016119ec929190612f6a565b6040516020818303038152906040525b915050919050565b6000808273ffffffffffffffffffffffffffffffffffffffff163b119050919050565b606060006001611a3684611af5565b01905060008167ffffffffffffffff811115611a5557611a54612063565b5b6040519080825280601f01601f191660200182016040528015611a875781602001600182028036833780820191505090505b509050600082602001820190505b600115611aea578080600190039150507f3031323334353637383961626364656600000000000000000000000000000000600a86061a8153600a8581611ade57611add613071565b5b04945060008503611a95575b819350505050919050565b600080600090507a184f03e93ff9f4daa797ed6e38ed64bf6a1f0100000000000000008310611b53577a184f03e93ff9f4daa797ed6e38ed64bf6a1f0100000000000000008381611b4957611b48613071565b5b0492506040810190505b6d04ee2d6d415b85acef81000000008310611b90576d04ee2d6d415b85acef81000000008381611b8657611b85613071565b5b0492506020810190505b662386f26fc100008310611bbf57662386f26fc100008381611bb557611bb4613071565b5b0492506010810190505b6305f5e1008310611be8576305f5e1008381611bde57611bdd613071565b5b0492506008810190505b6127108310611c0d576127108381611c0357611c02613071565b5b0492506004810190505b60648310611c305760648381611c2657611c25613071565b5b0492506002810190505b600a8310611c3f576001810190505b80915050919050565b6000604051905090565b600080fd5b600080fd5b60007fffffffff0000000000000000000000000000000000000000000000000000000082169050919050565b611c9181611c5c565b8114611c9c57600080fd5b50565b600081359050611cae81611c88565b92915050565b600060208284031215611cca57611cc9611c52565b5b6000611cd884828501611c9f565b91505092915050565b60008115159050919050565b611cf681611ce1565b82525050565b6000602082019050611d116000830184611ced565b92915050565b600081519050919050565b600082825260208201905092915050565b60005b83811015611d51578082015181840152602081019050611d36565b60008484015250505050565b6000601f19601f8301169050919050565b6000611d7982611d17565b611d838185611d22565b9350611d93818560208601611d33565b611d9c81611d5d565b840191505092915050565b60006020820190508181036000830152611dc18184611d6e565b905092915050565b6000819050919050565b611ddc81611dc9565b8114611de757600080fd5b50565b600081359050611df981611dd3565b92915050565b600060208284031215611e1557611e14611c52565b5b6000611e2384828501611dea565b91505092915050565b600073ffffffffffffffffffffffffffffffffffffffff82169050919050565b6000611e5782611e2c565b9050919050565b611e6781611e4c565b82525050565b6000602082019050611e826000830184611e5e565b92915050565b611e9181611e4c565b8114611e9c57600080fd5b50565b600081359050611eae81611e88565b92915050565b60008060408385031215611ecb57611eca611c52565b5b6000611ed985828601611e9f565b9250506020611eea85828601611dea565b9150509250929050565b600080fd5b600080fd5b600080fd5b60008083601f840112611f1957611f18611ef4565b5b8235905067ffffffffffffffff811115611f3657611f35611ef9565b5b602083019150836001820283011115611f5257611f51611efe565b5b9250929050565b600080600080600060808688031215611f7557611f74611c52565b5b6000611f8388828901611e9f565b9550506020611f9488828901611e9f565b9450506040611fa588828901611dea565b935050606086013567ffffffffffffffff811115611fc657611fc5611c57565b5b611fd288828901611f03565b92509250509295509295909350565b611fea81611c5c565b82525050565b60006020820190506120056000830184611fe1565b92915050565b60008060006060848603121561202457612023611c52565b5b600061203286828701611e9f565b935050602061204386828701611e9f565b925050604061205486828701611dea565b9150509250925092565b600080fd5b7f4e487b7100000000000000000000000000000000000000000000000000000000600052604160045260246000fd5b61209b82611d5d565b810181811067ffffffffffffffff821117156120ba576120b9612063565b5b80604052505050565b60006120cd611c48565b90506120d98282612092565b919050565b600067ffffffffffffffff8211156120f9576120f8612063565b5b61210282611d5d565b9050602081019050919050565b82818337600083830152505050565b600061213161212c846120de565b6120c3565b90508281526020810184848401111561214d5761214c61205e565b5b61215884828561210f565b509392505050565b600082601f83011261217557612174611ef4565b5b813561218584826020860161211e565b91505092915050565b600080604083850312156121a5576121a4611c52565b5b60006121b385828601611dea565b925050602083013567ffffffffffffffff8111156121d4576121d3611c57565b5b6121e085828601612160565b9150509250929050565b600060208284031215612200576121ff611c52565b5b600061220e84828501611e9f565b91505092915050565b61222081611dc9565b82525050565b600060208201905061223b6000830184612217565b92915050565b61224a81611ce1565b811461225557600080fd5b50565b60008135905061226781612241565b92915050565b6000806040838503121561228457612283611c52565b5b600061229285828601611e9f565b92505060206122a385828601612258565b9150509250929050565b600067ffffffffffffffff8211156122c8576122c7612063565b5b6122d182611d5d565b9050602081019050919050565b60006122f16122ec846122ad565b6120c3565b90508281526020810184848401111561230d5761230c61205e565b5b61231884828561210f565b509392505050565b600082601f83011261233557612334611ef4565b5b81356123458482602086016122de565b91505092915050565b6000806000806080858703121561236857612367611c52565b5b600061237687828801611e9f565b945050602061238787828801611e9f565b935050604061239887828801611dea565b925050606085013567ffffffffffffffff8111156123b9576123b8611c57565b5b6123c587828801612320565b91505092959194509250565b6000806000606084860312156123ea576123e9611c52565b5b60006123f886828701611e9f565b935050602084013567ffffffffffffffff81111561241957612418611c57565b5b61242586828701612160565b925050604061243686828701611dea565b9150509250925092565b6000806040838503121561245757612456611c52565b5b600061246585828601611e9f565b925050602061247685828601611e9f565b9150509250929050565b7f4e487b7100000000000000000000000000000000000000000000000000000000600052602260045260246000fd5b600060028204905060018216806124c757607f821691505b6020821081036124da576124d9612480565b5b50919050565b7f4552433732313a20617070726f76616c20746f2063757272656e74206f776e6560008201527f7200000000000000000000000000000000000000000000000000000000000000602082015250565b600061253c602183611d22565b9150612547826124e0565b604082019050919050565b6000602082019050818103600083015261256b8161252f565b9050919050565b7f4552433732313a20617070726f76652063616c6c6572206973206e6f7420746f60008201527f6b656e206f776e6572206f7220617070726f76656420666f7220616c6c000000602082015250565b60006125ce603d83611d22565b91506125d982612572565b604082019050919050565b600060208201905081810360008301526125fd816125c1565b9050919050565b7f4552433732313a2063616c6c6572206973206e6f7420746f6b656e206f776e6560008201527f72206f7220617070726f76656400000000000000000000000000000000000000602082015250565b6000612660602d83611d22565b915061266b82612604565b604082019050919050565b6000602082019050818103600083015261268f81612653565b9050919050565b7f446f63756d656e7420686173682068617320616c7265616479206265656e207360008201527f657420666f72207468697320746f6b656e204944000000000000000000000000602082015250565b60006126f2603483611d22565b91506126fd82612696565b604082019050919050565b60006020820190508181036000830152612721816126e5565b9050919050565b60008190508160005260206000209050919050565b60006020601f8301049050919050565b600082821b905092915050565b60006008830261278a7fffffffffffffffffffffffffffffffffffffffffffffffffffffffffffffffff8261274d565b612794868361274d565b95508019841693508086168417925050509392505050565b6000819050919050565b60006127d16127cc6127c784611dc9565b6127ac565b611dc9565b9050919050565b6000819050919050565b6127eb836127b6565b6127ff6127f7826127d8565b84845461275a565b825550505050565b600090565b612814612807565b61281f8184846127e2565b505050565b5b818110156128435761283860008261280c565b600181019050612825565b5050565b601f8211156128885761285981612728565b6128628461273d565b81016020851015612871578190505b61288561287d8561273d565b830182612824565b50505b505050565b600082821c905092915050565b60006128ab6000198460080261288d565b1980831691505092915050565b60006128c4838361289a565b9150826002028217905092915050565b6128dd82611d17565b67ffffffffffffffff8111156128f6576128f5612063565b5b61290082546124af565b61290b828285612847565b600060209050601f83116001811461293e576000841561292c578287015190505b61293685826128b8565b86555061299e565b601f19841661294c86612728565b60005b828110156129745784890151825560018201915060208501945060208101905061294f565b86831015612991578489015161298d601f89168261289a565b8355505b6001600288020188555050505b505050505050565b7f4552433732313a20696e76616c696420746f6b656e2049440000000000000000600082015250565b60006129dc601883611d22565b91506129e7826129a6565b602082019050919050565b60006020820190508181036000830152612a0b816129cf565b9050919050565b7f4552433732313a2061646472657373207a65726f206973206e6f74206120766160008201527f6c6964206f776e65720000000000000000000000000000000000000000000000602082015250565b6000612a6e602983611d22565b9150612a7982612a12565b604082019050919050565b60006020820190508181036000830152612a9d81612a61565b9050919050565b7f546f6b656e20646f6573206e6f74206578697374000000000000000000000000600082015250565b6000612ada601483611d22565b9150612ae582612aa4565b602082019050919050565b60006020820190508181036000830152612b0981612acd565b9050919050565b7f45787069727920646174652073686f756c6420626520696e207468652066757460008201527f7572650000000000000000000000000000000000000000000000000000000000602082015250565b6000612b6c602383611d22565b9150612b7782612b10565b604082019050919050565b60006020820190508181036000830152612b9b81612b5f565b9050919050565b7f4552433732313a207472616e736665722066726f6d20696e636f72726563742060008201527f6f776e6572000000000000000000000000000000000000000000000000000000602082015250565b6000612bfe602583611d22565b9150612c0982612ba2565b604082019050919050565b60006020820190508181036000830152612c2d81612bf1565b9050919050565b7f4552433732313a207472616e7366657220746f20746865207a65726f2061646460008201527f7265737300000000000000000000000000000000000000000000000000000000602082015250565b6000612c90602483611d22565b9150612c9b82612c34565b604082019050919050565b60006020820190508181036000830152612cbf81612c83565b9050919050565b7f4552433732313a20617070726f766520746f2063616c6c657200000000000000600082015250565b6000612cfc601983611d22565b9150612d0782612cc6565b602082019050919050565b60006020820190508181036000830152612d2b81612cef565b9050919050565b7f4552433732313a207472616e7366657220746f206e6f6e20455243373231526560008201527f63656976657220696d706c656d656e7465720000000000000000000000000000602082015250565b6000612d8e603283611d22565b9150612d9982612d32565b604082019050919050565b60006020820190508181036000830152612dbd81612d81565b9050919050565b7f4552433732313a206d696e7420746f20746865207a65726f2061646472657373600082015250565b6000612dfa602083611d22565b9150612e0582612dc4565b602082019050919050565b60006020820190508181036000830152612e2981612ded565b9050919050565b7f4552433732313a20746f6b656e20616c7265616479206d696e74656400000000600082015250565b6000612e66601c83611d22565b9150612e7182612e30565b602082019050919050565b60006020820190508181036000830152612e9581612e59565b9050919050565b7f45524337323155524953746f726167653a2055524920736574206f66206e6f6e60008201527f6578697374656e7420746f6b656e000000000000000000000000000000000000602082015250565b6000612ef8602e83611d22565b9150612f0382612e9c565b604082019050919050565b60006020820190508181036000830152612f2781612eeb565b9050919050565b600081905092915050565b6000612f4482611d17565b612f4e8185612f2e565b9350612f5e818560208601611d33565b80840191505092915050565b6000612f768285612f39565b9150612f828284612f39565b91508190509392505050565b600081519050919050565b600082825260208201905092915050565b6000612fb582612f8e565b612fbf8185612f99565b9350612fcf818560208601611d33565b612fd881611d5d565b840191505092915050565b6000608082019050612ff86000830187611e5e565b6130056020830186611e5e565b6130126040830185612217565b81810360608301526130248184612faa565b905095945050505050565b60008151905061303e81611c88565b92915050565b60006020828403121561305a57613059611c52565b5b60006130688482850161302f565b91505092915050565b7f4e487b7100000000000000000000000000000000000000000000000000000000600052601260045260246000fdfea2646970667358221220c77639d4200f1f020d587f26491319fa31fc223dcc8a0bdcb9f92e5afeb76a8864736f6c63430008120033a264697066735822122085433f57e6e9a9b2711adabc4296946deaba65ab5239880fe070af566a7d611564736f6c63430008120033",
  "immutableReferences": {},
  "source": "// SPDX-License-Identifier: GPL-3.0\r\npragma solidity 0.8.18;\r\n\r\nimport \"@openzeppelin/contracts/token/ERC721/ERC721.sol\";\r\nimport \"@openzeppelin/contracts/token/ERC721/extensions/ERC721Enumerable.sol\";\r\nimport \"@openzeppelin/contracts/token/ERC721/extensions/ERC721URIStorage.sol\";\r\nimport \"@openzeppelin/contracts/access/AccessControl.sol\";\r\nimport \"@openzeppelin/contracts/utils/cryptography/draft-EIP712.sol\";\r\nimport \"@openzeppelin/contracts/token/ERC721/extensions/draft-ERC721Votes.sol\";\r\nimport \"@openzeppelin/contracts/utils/Counters.sol\";\r\nimport \"./Property.sol\";\r\n\r\n/**\r\n * @title PropertyFactory Contract\r\n * @author EL BACHRA\r\n * @notice TPropertyFactory is a smart contract that manages the creation of\r\n *  Property contracts and the minting of diagnostics as ERC721 tokens.\r\n * The contract allows users to create new Property contracts, create diagnostic tokens\r\n * with a document hash and token URI, and transfer tokens between users.\r\n * Each user can have multiple Property contracts, and each contract can have multiple\r\n * diagnostic tokens associated with it.\r\n */\r\ncontract PropertyFactory {\r\n    // property Owner to list of properties\r\n    mapping(address => Property[]) public userProperties;\r\n\r\n    // property contract address to property\r\n    mapping(address => Property) public properties;\r\n\r\n    constructor() {}\r\n\r\n    /**\r\n     * @dev Function to create a new Property contract and store its reference.\r\n     * @param _name The name of the Property contract.\r\n     * @param _symbol The symbol of the Property contract.\r\n     * @return propertyAddress The address of the newly created Property contract.\r\n     */\r\n    function createProperty(\r\n        string memory _name,\r\n        string memory _symbol\r\n    ) public returns (address) {\r\n        Property newProperty = new Property(_name, _symbol);\r\n        userProperties[msg.sender].push(newProperty);\r\n        address propertyAddress = address(newProperty);\r\n        properties[propertyAddress] = newProperty;\r\n        return propertyAddress;\r\n    }\r\n\r\n    /**\r\n     * @dev Function to create a new diagnostic, mint a token associated with it, and set the document hash.\r\n     * @param _property The address of the Property contract associated with the diagnostic.\r\n     * @param _documentHash The hash of the document related to the diagnostic.\r\n     * @param _tokenURI The URI for the token metadata.\r\n     * @param _expiryDate The expiration date of the diagnostic.\r\n     * @return tokenId The ID of the newly minted token associated with the diagnostic.\r\n     */\r\n    function createDiagnostic(\r\n        address _property,\r\n        string memory _documentHash,\r\n        string memory _tokenURI,\r\n        uint256 _expiryDate\r\n    ) public returns (uint256) {\r\n        uint256 tokenId = properties[_property].safeMint(\r\n            msg.sender,\r\n            _tokenURI,\r\n            _expiryDate\r\n        );\r\n        properties[_property].setDocumentHash(tokenId, _documentHash);\r\n        return tokenId;\r\n    }\r\n\r\n    /**\r\n     * @dev Returns the Property contract associated with the given property address.\r\n     * @param property The address of the Property contract.\r\n     * @return A `Property` object representing the Property contract.\r\n     */\r\n    function getPropertyContract(\r\n        address property\r\n    ) public view returns (Property) {\r\n        return properties[property];\r\n    }\r\n\r\n    /**\r\n     * @dev Returns an array of `Property` objects owned by the caller of the function.\r\n     * @return An array of `Property` objects owned by the caller of the function.\r\n     */\r\n    function getUserProperties() public view returns (Property[] memory) {\r\n        return userProperties[msg.sender];\r\n    }\r\n\r\n    /**\r\n     * @dev Returns the document hash associated with the given property and token ID.\r\n     * @param property The address of the Property contract.\r\n     * @param tokenId The ID of the token representing the diagnostic report.\r\n     * @return A string representing the document hash associated with the diagnostic report.\r\n     */\r\n    function getDiagnosticHash(\r\n        address property,\r\n        uint256 tokenId\r\n    ) public view returns (string memory) {\r\n        return properties[property].getDocumentHash(tokenId);\r\n    }\r\n\r\n    /**\r\n     * @dev Transfers ownership of a token representing a diagnostic report to a new owner.\r\n     * @param _property The address of the Property contract.\r\n     * @param _to The address of the new owner.\r\n     * @param _tokenId The ID of the token representing the diagnostic report.\r\n     */\r\n    function transferOwnership(\r\n        address _property,\r\n        address _to,\r\n        uint256 _tokenId\r\n    ) public {\r\n        properties[_property].transferFrom(msg.sender, _to, _tokenId);\r\n    }\r\n}\r\n",
  "sourcePath": "D:\\dev_blockchain\\final\\Diagnostify final\\truffle\\contracts\\PropertyFactory.sol",
  "compiler": {
    "name": "solc",
    "version": "0.8.18+commit.87f61d96.Emscripten.clang"
  },
  "schemaVersion": "3.4.13",
  "updatedAt": "2023-04-10T15:33:06.419Z",
  "networkType": "ethereum",
  "devdoc": {
    "author": "EL BACHRA",
    "kind": "dev",
    "methods": {
      "createDiagnostic(address,string,string,uint256)": {
        "details": "Function to create a new diagnostic, mint a token associated with it, and set the document hash.",
        "params": {
          "_documentHash": "The hash of the document related to the diagnostic.",
          "_expiryDate": "The expiration date of the diagnostic.",
          "_property": "The address of the Property contract associated with the diagnostic.",
          "_tokenURI": "The URI for the token metadata."
        },
        "returns": {
          "_0": "tokenId The ID of the newly minted token associated with the diagnostic."
        }
      },
      "createProperty(string,string)": {
        "details": "Function to create a new Property contract and store its reference.",
        "params": {
          "_name": "The name of the Property contract.",
          "_symbol": "The symbol of the Property contract."
        },
        "returns": {
          "_0": "propertyAddress The address of the newly created Property contract."
        }
      },
      "getDiagnosticHash(address,uint256)": {
        "details": "Returns the document hash associated with the given property and token ID.",
        "params": {
          "property": "The address of the Property contract.",
          "tokenId": "The ID of the token representing the diagnostic report."
        },
        "returns": {
          "_0": "A string representing the document hash associated with the diagnostic report."
        }
      },
      "getPropertyContract(address)": {
        "details": "Returns the Property contract associated with the given property address.",
        "params": {
          "property": "The address of the Property contract."
        },
        "returns": {
          "_0": "A `Property` object representing the Property contract."
        }
      },
      "getUserProperties()": {
        "details": "Returns an array of `Property` objects owned by the caller of the function.",
        "returns": {
          "_0": "An array of `Property` objects owned by the caller of the function."
        }
      },
      "transferOwnership(address,address,uint256)": {
        "details": "Transfers ownership of a token representing a diagnostic report to a new owner.",
        "params": {
          "_property": "The address of the Property contract.",
          "_to": "The address of the new owner.",
          "_tokenId": "The ID of the token representing the diagnostic report."
        }
      }
    },
    "title": "PropertyFactory Contract",
    "version": 1
  },
  "userdoc": {
    "kind": "user",
    "methods": {},
    "notice": "TPropertyFactory is a smart contract that manages the creation of  Property contracts and the minting of diagnostics as ERC721 tokens. The contract allows users to create new Property contracts, create diagnostic tokens with a document hash and token URI, and transfer tokens between users. Each user can have multiple Property contracts, and each contract can have multiple diagnostic tokens associated with it.",
    "version": 1
  }
}