{
  "contractName": "PropertyManager",
  "abi": [
    {
      "inputs": [
        {
          "internalType": "address",
          "name": "propertyFactoryAddress",
          "type": "address"
        }
      ],
      "stateMutability": "nonpayable",
      "type": "constructor"
    },
    {
      "anonymous": false,
      "inputs": [
        {
          "indexed": false,
          "internalType": "address",
          "name": "diagnosticianAddress",
          "type": "address"
        }
      ],
      "name": "AskedVerification",
      "type": "event"
    },
    {
      "anonymous": false,
      "inputs": [
        {
          "indexed": true,
          "internalType": "address",
          "name": "property",
          "type": "address"
        },
        {
          "indexed": true,
          "internalType": "uint256",
          "name": "tokenId",
          "type": "uint256"
        }
      ],
      "name": "DiagnosticCreated",
      "type": "event"
    },
    {
      "anonymous": false,
      "inputs": [
        {
          "indexed": false,
          "internalType": "uint256",
          "name": "requestId",
          "type": "uint256"
        },
        {
          "indexed": false,
          "internalType": "address",
          "name": "propertyOwner",
          "type": "address"
        },
        {
          "indexed": false,
          "internalType": "address",
          "name": "diagnostician",
          "type": "address"
        },
        {
          "indexed": false,
          "internalType": "address",
          "name": "propertyAddress",
          "type": "address"
        }
      ],
      "name": "DiagnosticRequested",
      "type": "event"
    },
    {
      "anonymous": false,
      "inputs": [
        {
          "indexed": false,
          "internalType": "uint256",
          "name": "requestId",
          "type": "uint256"
        },
        {
          "indexed": false,
          "internalType": "address",
          "name": "propertyOwner",
          "type": "address"
        },
        {
          "indexed": false,
          "internalType": "string",
          "name": "propertyAddress",
          "type": "string"
        }
      ],
      "name": "DiagnosticRequested",
      "type": "event"
    },
    {
      "anonymous": false,
      "inputs": [
        {
          "indexed": false,
          "internalType": "address",
          "name": "diagnosticianAddress",
          "type": "address"
        }
      ],
      "name": "DiagnosticianCertified",
      "type": "event"
    },
    {
      "anonymous": false,
      "inputs": [
        {
          "indexed": false,
          "internalType": "address",
          "name": "diagnosticianAddress",
          "type": "address"
        }
      ],
      "name": "DiagnosticianRevoked",
      "type": "event"
    },
    {
      "anonymous": false,
      "inputs": [
        {
          "indexed": false,
          "internalType": "address",
          "name": "account",
          "type": "address"
        }
      ],
      "name": "FundsWithdrawn",
      "type": "event"
    },
    {
      "anonymous": false,
      "inputs": [
        {
          "indexed": false,
          "internalType": "address",
          "name": "ownerAddress",
          "type": "address"
        }
      ],
      "name": "OwnerRegistered",
      "type": "event"
    },
    {
      "anonymous": false,
      "inputs": [
        {
          "indexed": true,
          "internalType": "address",
          "name": "previousOwner",
          "type": "address"
        },
        {
          "indexed": true,
          "internalType": "address",
          "name": "newOwner",
          "type": "address"
        }
      ],
      "name": "OwnershipTransferred",
      "type": "event"
    },
    {
      "anonymous": false,
      "inputs": [
        {
          "indexed": true,
          "internalType": "address",
          "name": "property",
          "type": "address"
        }
      ],
      "name": "PropertyCreated",
      "type": "event"
    },
    {
      "inputs": [
        {
          "internalType": "address",
          "name": "",
          "type": "address"
        },
        {
          "internalType": "uint256",
          "name": "",
          "type": "uint256"
        }
      ],
      "name": "diagnosticRequests",
      "outputs": [
        {
          "internalType": "address",
          "name": "propertyOwner",
          "type": "address"
        },
        {
          "internalType": "address",
          "name": "property",
          "type": "address"
        },
        {
          "internalType": "bool",
          "name": "isCompleted",
          "type": "bool"
        }
      ],
      "stateMutability": "view",
      "type": "function",
      "constant": true
    },
    {
      "inputs": [],
      "name": "owner",
      "outputs": [
        {
          "internalType": "address",
          "name": "",
          "type": "address"
        }
      ],
      "stateMutability": "view",
      "type": "function",
      "constant": true
    },
    {
      "inputs": [
        {
          "internalType": "address",
          "name": "",
          "type": "address"
        }
      ],
      "name": "registeredOwners",
      "outputs": [
        {
          "internalType": "bool",
          "name": "",
          "type": "bool"
        }
      ],
      "stateMutability": "view",
      "type": "function",
      "constant": true
    },
    {
      "inputs": [],
      "name": "registrationFee",
      "outputs": [
        {
          "internalType": "uint256",
          "name": "",
          "type": "uint256"
        }
      ],
      "stateMutability": "view",
      "type": "function",
      "constant": true
    },
    {
      "inputs": [],
      "name": "renounceOwnership",
      "outputs": [],
      "stateMutability": "nonpayable",
      "type": "function"
    },
    {
      "inputs": [
        {
          "internalType": "string",
          "name": "",
          "type": "string"
        }
      ],
      "name": "siretToDiagnostician",
      "outputs": [
        {
          "internalType": "address",
          "name": "",
          "type": "address"
        }
      ],
      "stateMutability": "view",
      "type": "function",
      "constant": true
    },
    {
      "inputs": [
        {
          "internalType": "address",
          "name": "",
          "type": "address"
        }
      ],
      "name": "verifiedDiagnostician",
      "outputs": [
        {
          "internalType": "string",
          "name": "name",
          "type": "string"
        },
        {
          "internalType": "bool",
          "name": "pendingVerification",
          "type": "bool"
        },
        {
          "internalType": "bool",
          "name": "isCertified",
          "type": "bool"
        },
        {
          "internalType": "uint256",
          "name": "price",
          "type": "uint256"
        }
      ],
      "stateMutability": "view",
      "type": "function",
      "constant": true
    },
    {
      "inputs": [],
      "name": "myself",
      "outputs": [
        {
          "components": [
            {
              "internalType": "string",
              "name": "role",
              "type": "string"
            },
            {
              "internalType": "bool",
              "name": "isCertified",
              "type": "bool"
            }
          ],
          "internalType": "struct PropertyManager.UserInfo",
          "name": "",
          "type": "tuple"
        }
      ],
      "stateMutability": "view",
      "type": "function",
      "constant": true
    },
    {
      "inputs": [],
      "name": "registerOwner",
      "outputs": [],
      "stateMutability": "payable",
      "type": "function",
      "payable": true
    },
    {
      "inputs": [
        {
          "internalType": "string",
          "name": "_name",
          "type": "string"
        },
        {
          "internalType": "string",
          "name": "_siret",
          "type": "string"
        }
      ],
      "name": "requestVerification",
      "outputs": [],
      "stateMutability": "nonpayable",
      "type": "function"
    },
    {
      "inputs": [
        {
          "internalType": "address",
          "name": "_diagnostician",
          "type": "address"
        }
      ],
      "name": "verifyDiagnostician",
      "outputs": [],
      "stateMutability": "nonpayable",
      "type": "function"
    },
    {
      "inputs": [
        {
          "internalType": "string",
          "name": "_name",
          "type": "string"
        },
        {
          "internalType": "string",
          "name": "_symbol",
          "type": "string"
        }
      ],
      "name": "createProperty",
      "outputs": [
        {
          "internalType": "address",
          "name": "",
          "type": "address"
        }
      ],
      "stateMutability": "nonpayable",
      "type": "function"
    },
    {
      "inputs": [
        {
          "internalType": "address",
          "name": "_propertyAddress",
          "type": "address"
        },
        {
          "internalType": "address",
          "name": "_diagnostician",
          "type": "address"
        }
      ],
      "name": "requestDiagnostic",
      "outputs": [],
      "stateMutability": "nonpayable",
      "type": "function"
    },
    {
      "inputs": [
        {
          "internalType": "uint256",
          "name": "requestId",
          "type": "uint256"
        },
        {
          "internalType": "string",
          "name": "_documentHash",
          "type": "string"
        },
        {
          "internalType": "string",
          "name": "_tokenURI",
          "type": "string"
        },
        {
          "internalType": "uint256",
          "name": "_expiryDate",
          "type": "uint256"
        }
      ],
      "name": "createDiagnostic",
      "outputs": [],
      "stateMutability": "nonpayable",
      "type": "function"
    },
    {
      "inputs": [
        {
          "internalType": "address",
          "name": "_property",
          "type": "address"
        },
        {
          "internalType": "address",
          "name": "_to",
          "type": "address"
        },
        {
          "internalType": "uint256",
          "name": "_tokenId",
          "type": "uint256"
        }
      ],
      "name": "transferOwnership",
      "outputs": [],
      "stateMutability": "nonpayable",
      "type": "function"
    },
    {
      "inputs": [
        {
          "internalType": "address",
          "name": "newOwner",
          "type": "address"
        }
      ],
      "name": "transferOwnership",
      "outputs": [],
      "stateMutability": "nonpayable",
      "type": "function"
    },
    {
      "inputs": [
        {
          "internalType": "address",
          "name": "_diagnostician",
          "type": "address"
        }
      ],
      "name": "revokeDiagnosticianVerification",
      "outputs": [],
      "stateMutability": "nonpayable",
      "type": "function"
    },
    {
      "inputs": [
        {
          "internalType": "address payable",
          "name": "_recipient",
          "type": "address"
        }
      ],
      "name": "withdrawFunds",
      "outputs": [],
      "stateMutability": "nonpayable",
      "type": "function"
    },
    {
      "inputs": [
        {
          "internalType": "uint256",
          "name": "_newFee",
          "type": "uint256"
        }
      ],
      "name": "setRegistrationFee",
      "outputs": [],
      "stateMutability": "nonpayable",
      "type": "function"
    },
    {
      "inputs": [
        {
          "internalType": "address",
          "name": "_diagnostician",
          "type": "address"
        }
      ],
      "name": "getDiagnosticRequests",
      "outputs": [
        {
          "components": [
            {
              "internalType": "address",
              "name": "propertyOwner",
              "type": "address"
            },
            {
              "internalType": "address",
              "name": "property",
              "type": "address"
            },
            {
              "internalType": "bool",
              "name": "isCompleted",
              "type": "bool"
            }
          ],
          "internalType": "struct PropertyManager.DiagnosticRequest[]",
          "name": "",
          "type": "tuple[]"
        }
      ],
      "stateMutability": "view",
      "type": "function",
      "constant": true
    },
    {
      "inputs": [
        {
          "internalType": "address",
          "name": "property",
          "type": "address"
        },
        {
          "internalType": "uint256",
          "name": "tokenId",
          "type": "uint256"
        }
      ],
      "name": "getDiagnosticHash",
      "outputs": [
        {
          "internalType": "string",
          "name": "",
          "type": "string"
        }
      ],
      "stateMutability": "view",
      "type": "function",
      "constant": true
    },
    {
      "inputs": [],
      "name": "getUserProperties",
      "outputs": [
        {
          "internalType": "contract Property[]",
          "name": "",
          "type": "address[]"
        }
      ],
      "stateMutability": "view",
      "type": "function",
      "constant": true
    }
  ],
  "bytecode": "0x60806040523480156200001157600080fd5b506040516200386b3803806200386b8339818101604052810190620000379190620001d5565b620000576200004b6200009f60201b60201c565b620000a760201b60201c565b80600560006101000a81548173ffffffffffffffffffffffffffffffffffffffff021916908373ffffffffffffffffffffffffffffffffffffffff1602179055505062000207565b600033905090565b60008060009054906101000a900473ffffffffffffffffffffffffffffffffffffffff169050816000806101000a81548173ffffffffffffffffffffffffffffffffffffffff021916908373ffffffffffffffffffffffffffffffffffffffff1602179055508173ffffffffffffffffffffffffffffffffffffffff168173ffffffffffffffffffffffffffffffffffffffff167f8be0079c531659141344cd1fd0a4f28419497f9722a3daafe3b4186f6b6457e060405160405180910390a35050565b600080fd5b600073ffffffffffffffffffffffffffffffffffffffff82169050919050565b60006200019d8262000170565b9050919050565b620001af8162000190565b8114620001bb57600080fd5b50565b600081519050620001cf81620001a4565b92915050565b600060208284031215620001ee57620001ed6200016b565b5b6000620001fe84828501620001be565b91505092915050565b61365480620002176000396000f3fe6080604052600436106101355760003560e01c8063715018a6116100ab5780639e8b3dde1161006f5780639e8b3dde14610408578063b913a1a914610431578063c320c7271461046e578063d276fd9314610497578063f2fde38b146104c2578063fde8046a146104eb57610135565b8063715018a61461034257806371fd5ef91461035957806383b8d9f714610396578063894bc278146103a05780638da5cb5b146103dd57610135565b80634de2bfbf116100fd5780634de2bfbf1461021d57806354728d23146102465780635905bb891461026f5780635d09be60146102ae57806362e47cc2146102d957806368742da61461031957610135565b806307460b661461013a5780630d63bd731461017757806314c44e09146101a0578063171c00fd146101cb57806347dd202e146101f4575b600080fd5b34801561014657600080fd5b50610161600480360381019061015c91906121d9565b610528565b60405161016e9190612292565b60405180910390f35b34801561018357600080fd5b5061019e600480360381019061019991906122d9565b6106ae565b005b3480156101ac57600080fd5b506101b56109a1565b6040516101c29190612332565b60405180910390f35b3480156101d757600080fd5b506101f260048036038101906101ed9190612379565b6109a7565b005b34801561020057600080fd5b5061021b600480360381019061021691906123cc565b610ad0565b005b34801561022957600080fd5b50610244600480360381019061023f91906121d9565b610ed1565b005b34801561025257600080fd5b5061026d6004803603810190610268919061246b565b6111a0565b005b34801561027b57600080fd5b5061029660048036038101906102919190612498565b6112d3565b6040516102a5939291906124f3565b60405180910390f35b3480156102ba57600080fd5b506102c3611367565b6040516102d09190612638565b60405180910390f35b3480156102e557600080fd5b5061030060048036038101906102fb919061246b565b611404565b60405161031094939291906126d9565b60405180910390f35b34801561032557600080fd5b50610340600480360381019061033b9190612763565b6114d6565b005b34801561034e57600080fd5b5061035761155f565b005b34801561036557600080fd5b50610380600480360381019061037b919061246b565b611573565b60405161038d919061289f565b60405180910390f35b61039e61176e565b005b3480156103ac57600080fd5b506103c760048036038101906103c2919061246b565b6118d1565b6040516103d491906128c1565b60405180910390f35b3480156103e957600080fd5b506103f26118f1565b6040516103ff9190612292565b60405180910390f35b34801561041457600080fd5b5061042f600480360381019061042a919061246b565b61191a565b005b34801561043d57600080fd5b5061045860048036038101906104539190612498565b611aa7565b60405161046591906128dc565b60405180910390f35b34801561047a57600080fd5b50610495600480360381019061049091906128fe565b611b54565b005b3480156104a357600080fd5b506104ac611b66565b6040516104b991906129b2565b60405180910390f35b3480156104ce57600080fd5b506104e960048036038101906104e4919061246b565b611e4d565b005b3480156104f757600080fd5b50610512600480360381019061050d91906129d4565b611ed0565b60405161051f9190612292565b60405180910390f35b600060011515600360003373ffffffffffffffffffffffffffffffffffffffff1673ffffffffffffffffffffffffffffffffffffffff16815260200190815260200160002060009054906101000a900460ff161515146105bd576040517f08c379a00000000000000000000000000000000000000000000000000000000081526004016105b490612a8f565b60405180910390fd5b6000600560009054906101000a900473ffffffffffffffffffffffffffffffffffffffff1673ffffffffffffffffffffffffffffffffffffffff166307460b6685856040518363ffffffff1660e01b815260040161061c929190612aaf565b6020604051808303816000875af115801561063b573d6000803e3d6000fd5b505050506040513d601f19601f8201168201806040525081019061065f9190612afb565b90508073ffffffffffffffffffffffffffffffffffffffff167f05f35573428dbee5ccc6f8cc1b3fd7124c4c5b206a288190526c8dbcceb7d2e460405160405180910390a28091505092915050565b60011515600360003373ffffffffffffffffffffffffffffffffffffffff1673ffffffffffffffffffffffffffffffffffffffff16815260200190815260200160002060009054906101000a900460ff16151514610741576040517f08c379a000000000000000000000000000000000000000000000000000000000815260040161073890612a8f565b60405180910390fd5b600073ffffffffffffffffffffffffffffffffffffffff168273ffffffffffffffffffffffffffffffffffffffff16036107b0576040517f08c379a00000000000000000000000000000000000000000000000000000000081526004016107a790612b74565b60405180910390fd5b600060405180606001604052803373ffffffffffffffffffffffffffffffffffffffff1681526020018473ffffffffffffffffffffffffffffffffffffffff1681526020016000151581525090506000600460008473ffffffffffffffffffffffffffffffffffffffff1673ffffffffffffffffffffffffffffffffffffffff168152602001908152602001600020805490509050600460008473ffffffffffffffffffffffffffffffffffffffff1673ffffffffffffffffffffffffffffffffffffffff16815260200190815260200160002082908060018154018082558091505060019003906000526020600020906002020160009091909190915060008201518160000160006101000a81548173ffffffffffffffffffffffffffffffffffffffff021916908373ffffffffffffffffffffffffffffffffffffffff16021790555060208201518160010160006101000a81548173ffffffffffffffffffffffffffffffffffffffff021916908373ffffffffffffffffffffffffffffffffffffffff16021790555060408201518160010160146101000a81548160ff02191690831515021790555050507fb191d948c661ec4d3d74c6d91969a1fb1f20200b5000054b7b22369d5625da12813385876040516109939493929190612b94565b60405180910390a150505050565b60065481565b60011515600360003373ffffffffffffffffffffffffffffffffffffffff1673ffffffffffffffffffffffffffffffffffffffff16815260200190815260200160002060009054906101000a900460ff16151514610a3a576040517f08c379a0000000000000000000000000000000000000000000000000000000008152600401610a3190612a8f565b60405180910390fd5b600560009054906101000a900473ffffffffffffffffffffffffffffffffffffffff1673ffffffffffffffffffffffffffffffffffffffff1663171c00fd8484846040518463ffffffff1660e01b8152600401610a9993929190612bd9565b600060405180830381600087803b158015610ab357600080fd5b505af1158015610ac7573d6000803e3d6000fd5b50505050505050565b60011515600160003373ffffffffffffffffffffffffffffffffffffffff1673ffffffffffffffffffffffffffffffffffffffff16815260200190815260200160002060010160019054906101000a900460ff16151514610b66576040517f08c379a0000000000000000000000000000000000000000000000000000000008152600401610b5d90612a8f565b60405180910390fd5b600460003373ffffffffffffffffffffffffffffffffffffffff1673ffffffffffffffffffffffffffffffffffffffff168152602001908152602001600020805490508410610bea576040517f08c379a0000000000000000000000000000000000000000000000000000000008152600401610be190612c5c565b60405180910390fd5b600073ffffffffffffffffffffffffffffffffffffffff16600460003373ffffffffffffffffffffffffffffffffffffffff1673ffffffffffffffffffffffffffffffffffffffff1681526020019081526020016000208581548110610c5357610c52612c7c565b5b906000526020600020906002020160010160009054906101000a900473ffffffffffffffffffffffffffffffffffffffff1673ffffffffffffffffffffffffffffffffffffffff1603610cdb576040517f08c379a0000000000000000000000000000000000000000000000000000000008152600401610cd290612cf7565b60405180910390fd5b6000600460003373ffffffffffffffffffffffffffffffffffffffff1673ffffffffffffffffffffffffffffffffffffffff1681526020019081526020016000208581548110610d2e57610d2d612c7c565b5b906000526020600020906002020160010160009054906101000a900473ffffffffffffffffffffffffffffffffffffffff1690506000600560009054906101000a900473ffffffffffffffffffffffffffffffffffffffff1673ffffffffffffffffffffffffffffffffffffffff16630d14e633838787876040518563ffffffff1660e01b8152600401610dc59493929190612d17565b6020604051808303816000875af1158015610de4573d6000803e3d6000fd5b505050506040513d601f19601f82011682018060405250810190610e089190612d7f565b90506001600460003373ffffffffffffffffffffffffffffffffffffffff1673ffffffffffffffffffffffffffffffffffffffff1681526020019081526020016000208781548110610e5d57610e5c612c7c565b5b906000526020600020906002020160010160146101000a81548160ff021916908315150217905550808273ffffffffffffffffffffffffffffffffffffffff167fd088ccfa0e91dc887c223bb5fcf223a4c9cee4e053bdbaefe26991bda0cec69760405160405180910390a3505050505050565b60001515600160003373ffffffffffffffffffffffffffffffffffffffff1673ffffffffffffffffffffffffffffffffffffffff16815260200190815260200160002060010160019054906101000a900460ff16151514610f67576040517f08c379a0000000000000000000000000000000000000000000000000000000008152600401610f5e90612df8565b60405180910390fd5b60001515600160003373ffffffffffffffffffffffffffffffffffffffff1673ffffffffffffffffffffffffffffffffffffffff16815260200190815260200160002060010160019054906101000a900460ff16151514610ffd576040517f08c379a0000000000000000000000000000000000000000000000000000000008152600401610ff490612e64565b60405180910390fd5b600033905082600160008373ffffffffffffffffffffffffffffffffffffffff1673ffffffffffffffffffffffffffffffffffffffff16815260200190815260200160002060000190816110519190613086565b506000600160008373ffffffffffffffffffffffffffffffffffffffff1673ffffffffffffffffffffffffffffffffffffffff16815260200190815260200160002060010160016101000a81548160ff02191690831515021790555060018060008373ffffffffffffffffffffffffffffffffffffffff1673ffffffffffffffffffffffffffffffffffffffff16815260200190815260200160002060010160006101000a81548160ff021916908315150217905550336002836040516111189190613194565b908152602001604051809103902060006101000a81548173ffffffffffffffffffffffffffffffffffffffff021916908373ffffffffffffffffffffffffffffffffffffffff1602179055507fdb93a33261a88e8784b5e49bf38f3c65c17793892e2c0c1c37f5d962eb4df3f6816040516111939190612292565b60405180910390a1505050565b6111a8611f19565b60011515600160008373ffffffffffffffffffffffffffffffffffffffff1673ffffffffffffffffffffffffffffffffffffffff16815260200190815260200160002060010160019054906101000a900460ff1615151461123e576040517f08c379a0000000000000000000000000000000000000000000000000000000008152600401611235906131f7565b60405180910390fd5b6000600160008373ffffffffffffffffffffffffffffffffffffffff1673ffffffffffffffffffffffffffffffffffffffff16815260200190815260200160002060010160016101000a81548160ff0219169083151502179055507f55bae7298ec354ccfe06d703a73239bb68eb82b098cd7b64079ceb94545947cc816040516112c89190612292565b60405180910390a150565b600460205281600052604060002081815481106112ef57600080fd5b9060005260206000209060020201600091509150508060000160009054906101000a900473ffffffffffffffffffffffffffffffffffffffff16908060010160009054906101000a900473ffffffffffffffffffffffffffffffffffffffff16908060010160149054906101000a900460ff16905083565b6060600560009054906101000a900473ffffffffffffffffffffffffffffffffffffffff1673ffffffffffffffffffffffffffffffffffffffff16635d09be606040518163ffffffff1660e01b8152600401600060405180830381865afa1580156113d6573d6000803e3d6000fd5b505050506040513d6000823e3d601f19601f820116820180604052508101906113ff919061331d565b905090565b600160205280600052604060002060009150905080600001805461142790612eb3565b80601f016020809104026020016040519081016040528092919081815260200182805461145390612eb3565b80156114a05780601f10611475576101008083540402835291602001916114a0565b820191906000526020600020905b81548152906001019060200180831161148357829003601f168201915b5050505050908060010160009054906101000a900460ff16908060010160019054906101000a900460ff16908060020154905084565b6114de611f19565b8073ffffffffffffffffffffffffffffffffffffffff166108fc479081150290604051600060405180830381858888f19350505050158015611524573d6000803e3d6000fd5b507f07c755342db70f3cd9b012463bcfdc68a1009115e2f9910e5562f81d73e5c225306040516115549190612292565b60405180910390a150565b611567611f19565b6115716000611f97565b565b606060011515600160003373ffffffffffffffffffffffffffffffffffffffff1673ffffffffffffffffffffffffffffffffffffffff16815260200190815260200160002060010160019054906101000a900460ff1615151461160b576040517f08c379a000000000000000000000000000000000000000000000000000000000815260040161160290612a8f565b60405180910390fd5b600460008373ffffffffffffffffffffffffffffffffffffffff1673ffffffffffffffffffffffffffffffffffffffff168152602001908152602001600020805480602002602001604051908101604052809291908181526020016000905b8282101561176357838290600052602060002090600202016040518060600160405290816000820160009054906101000a900473ffffffffffffffffffffffffffffffffffffffff1673ffffffffffffffffffffffffffffffffffffffff1673ffffffffffffffffffffffffffffffffffffffff1681526020016001820160009054906101000a900473ffffffffffffffffffffffffffffffffffffffff1673ffffffffffffffffffffffffffffffffffffffff1673ffffffffffffffffffffffffffffffffffffffff1681526020016001820160149054906101000a900460ff1615151515815250508152602001906001019061166a565b505050509050919050565b6006543410156117b3576040517f08c379a00000000000000000000000000000000000000000000000000000000081526004016117aa906133b2565b60405180910390fd5b600360003373ffffffffffffffffffffffffffffffffffffffff1673ffffffffffffffffffffffffffffffffffffffff16815260200190815260200160002060009054906101000a900460ff1615611840576040517f08c379a00000000000000000000000000000000000000000000000000000000081526004016118379061341e565b60405180910390fd5b6001600360003373ffffffffffffffffffffffffffffffffffffffff1673ffffffffffffffffffffffffffffffffffffffff16815260200190815260200160002060006101000a81548160ff0219169083151502179055507fc86877ade012ddbf21935d8659bf56f8635a21861dfc191a5e417a57fdca8c2a336040516118c79190612292565b60405180910390a1565b60036020528060005260406000206000915054906101000a900460ff1681565b60008060009054906101000a900473ffffffffffffffffffffffffffffffffffffffff16905090565b611922611f19565b60001515600160008373ffffffffffffffffffffffffffffffffffffffff1673ffffffffffffffffffffffffffffffffffffffff16815260200190815260200160002060010160019054906101000a900460ff161515146119b8576040517f08c379a00000000000000000000000000000000000000000000000000000000081526004016119af90612e64565b60405180910390fd5b60018060008373ffffffffffffffffffffffffffffffffffffffff1673ffffffffffffffffffffffffffffffffffffffff16815260200190815260200160002060010160016101000a81548160ff0219169083151502179055506000600160008373ffffffffffffffffffffffffffffffffffffffff1673ffffffffffffffffffffffffffffffffffffffff16815260200190815260200160002060010160006101000a81548160ff0219169083151502179055507f30d05b2025fb2d037233ed74b152f14cada68119b8a2940f327d339e3dcc2e8381604051611a9c9190612292565b60405180910390a150565b6060600560009054906101000a900473ffffffffffffffffffffffffffffffffffffffff1673ffffffffffffffffffffffffffffffffffffffff1663b913a1a984846040518363ffffffff1660e01b8152600401611b0692919061343e565b600060405180830381865afa158015611b23573d6000803e3d6000fd5b505050506040513d6000823e3d601f19601f82011682018060405250810190611b4c91906134d7565b905092915050565b611b5c611f19565b8060068190555050565b611b6e612063565b611b766118f1565b73ffffffffffffffffffffffffffffffffffffffff163373ffffffffffffffffffffffffffffffffffffffff1603611bfc5760405180604001604052806040518060400160405280601281526020017f536d617274436f6e74726163744f776e657200000000000000000000000000008152508152602001600015158152509050611e4a565b600360003373ffffffffffffffffffffffffffffffffffffffff1673ffffffffffffffffffffffffffffffffffffffff16815260200190815260200160002060009054906101000a900460ff1615611ca25760405180604001604052806040518060400160405280600d81526020017f50726f70657274794f776e6572000000000000000000000000000000000000008152508152602001600015158152509050611e4a565b600160003373ffffffffffffffffffffffffffffffffffffffff1673ffffffffffffffffffffffffffffffffffffffff16815260200190815260200160002060010160019054906101000a900460ff1615611d4b5760405180604001604052806040518060400160405280601681526020017f436572746966696564446961676e6f7374696369616e000000000000000000008152508152602001600115158152509050611e4a565b60011515600160003373ffffffffffffffffffffffffffffffffffffffff1673ffffffffffffffffffffffffffffffffffffffff16815260200190815260200160002060010160009054906101000a900460ff16151503611dfa5760405180604001604052806040518060400160405280601881526020017f556e636572746966696564446961676e6f7374696369616e00000000000000008152508152602001600015158152509050611e4a565b60405180604001604052806040518060400160405280600681526020017f4e6f526f6c65000000000000000000000000000000000000000000000000000081525081526020016000151581525090505b90565b611e55611f19565b600073ffffffffffffffffffffffffffffffffffffffff168173ffffffffffffffffffffffffffffffffffffffff1603611ec4576040517f08c379a0000000000000000000000000000000000000000000000000000000008152600401611ebb90613592565b60405180910390fd5b611ecd81611f97565b50565b6002818051602081018201805184825260208301602085012081835280955050505050506000915054906101000a900473ffffffffffffffffffffffffffffffffffffffff1681565b611f2161205b565b73ffffffffffffffffffffffffffffffffffffffff16611f3f6118f1565b73ffffffffffffffffffffffffffffffffffffffff1614611f95576040517f08c379a0000000000000000000000000000000000000000000000000000000008152600401611f8c906135fe565b60405180910390fd5b565b60008060009054906101000a900473ffffffffffffffffffffffffffffffffffffffff169050816000806101000a81548173ffffffffffffffffffffffffffffffffffffffff021916908373ffffffffffffffffffffffffffffffffffffffff1602179055508173ffffffffffffffffffffffffffffffffffffffff168173ffffffffffffffffffffffffffffffffffffffff167f8be0079c531659141344cd1fd0a4f28419497f9722a3daafe3b4186f6b6457e060405160405180910390a35050565b600033905090565b6040518060400160405280606081526020016000151581525090565b6000604051905090565b600080fd5b600080fd5b600080fd5b600080fd5b6000601f19601f8301169050919050565b7f4e487b7100000000000000000000000000000000000000000000000000000000600052604160045260246000fd5b6120e68261209d565b810181811067ffffffffffffffff82111715612105576121046120ae565b5b80604052505050565b600061211861207f565b905061212482826120dd565b919050565b600067ffffffffffffffff821115612144576121436120ae565b5b61214d8261209d565b9050602081019050919050565b82818337600083830152505050565b600061217c61217784612129565b61210e565b90508281526020810184848401111561219857612197612098565b5b6121a384828561215a565b509392505050565b600082601f8301126121c0576121bf612093565b5b81356121d0848260208601612169565b91505092915050565b600080604083850312156121f0576121ef612089565b5b600083013567ffffffffffffffff81111561220e5761220d61208e565b5b61221a858286016121ab565b925050602083013567ffffffffffffffff81111561223b5761223a61208e565b5b612247858286016121ab565b9150509250929050565b600073ffffffffffffffffffffffffffffffffffffffff82169050919050565b600061227c82612251565b9050919050565b61228c81612271565b82525050565b60006020820190506122a76000830184612283565b92915050565b6122b681612271565b81146122c157600080fd5b50565b6000813590506122d3816122ad565b92915050565b600080604083850312156122f0576122ef612089565b5b60006122fe858286016122c4565b925050602061230f858286016122c4565b9150509250929050565b6000819050919050565b61232c81612319565b82525050565b60006020820190506123476000830184612323565b92915050565b61235681612319565b811461236157600080fd5b50565b6000813590506123738161234d565b92915050565b60008060006060848603121561239257612391612089565b5b60006123a0868287016122c4565b93505060206123b1868287016122c4565b92505060406123c286828701612364565b9150509250925092565b600080600080608085870312156123e6576123e5612089565b5b60006123f487828801612364565b945050602085013567ffffffffffffffff8111156124155761241461208e565b5b612421878288016121ab565b935050604085013567ffffffffffffffff8111156124425761244161208e565b5b61244e878288016121ab565b925050606061245f87828801612364565b91505092959194509250565b60006020828403121561248157612480612089565b5b600061248f848285016122c4565b91505092915050565b600080604083850312156124af576124ae612089565b5b60006124bd858286016122c4565b92505060206124ce85828601612364565b9150509250929050565b60008115159050919050565b6124ed816124d8565b82525050565b60006060820190506125086000830186612283565b6125156020830185612283565b61252260408301846124e4565b949350505050565b600081519050919050565b600082825260208201905092915050565b6000819050602082019050919050565b6000819050919050565b600061257b61257661257184612251565b612556565b612251565b9050919050565b600061258d82612560565b9050919050565b600061259f82612582565b9050919050565b6125af81612594565b82525050565b60006125c183836125a6565b60208301905092915050565b6000602082019050919050565b60006125e58261252a565b6125ef8185612535565b93506125fa83612546565b8060005b8381101561262b57815161261288826125b5565b975061261d836125cd565b9250506001810190506125fe565b5085935050505092915050565b6000602082019050818103600083015261265281846125da565b905092915050565b600081519050919050565b600082825260208201905092915050565b60005b83811015612694578082015181840152602081019050612679565b60008484015250505050565b60006126ab8261265a565b6126b58185612665565b93506126c5818560208601612676565b6126ce8161209d565b840191505092915050565b600060808201905081810360008301526126f381876126a0565b905061270260208301866124e4565b61270f60408301856124e4565b61271c6060830184612323565b95945050505050565b600061273082612251565b9050919050565b61274081612725565b811461274b57600080fd5b50565b60008135905061275d81612737565b92915050565b60006020828403121561277957612778612089565b5b60006127878482850161274e565b91505092915050565b600081519050919050565b600082825260208201905092915050565b6000819050602082019050919050565b6127c581612271565b82525050565b6127d4816124d8565b82525050565b6060820160008201516127f060008501826127bc565b50602082015161280360208501826127bc565b50604082015161281660408501826127cb565b50505050565b600061282883836127da565b60608301905092915050565b6000602082019050919050565b600061284c82612790565b612856818561279b565b9350612861836127ac565b8060005b83811015612892578151612879888261281c565b975061288483612834565b925050600181019050612865565b5085935050505092915050565b600060208201905081810360008301526128b98184612841565b905092915050565b60006020820190506128d660008301846124e4565b92915050565b600060208201905081810360008301526128f681846126a0565b905092915050565b60006020828403121561291457612913612089565b5b600061292284828501612364565b91505092915050565b600082825260208201905092915050565b60006129478261265a565b612951818561292b565b9350612961818560208601612676565b61296a8161209d565b840191505092915050565b60006040830160008301518482036000860152612992828261293c565b91505060208301516129a760208601826127cb565b508091505092915050565b600060208201905081810360008301526129cc8184612975565b905092915050565b6000602082840312156129ea576129e9612089565b5b600082013567ffffffffffffffff811115612a0857612a0761208e565b5b612a14848285016121ab565b91505092915050565b7f596f75277265206e6f7420612063657274696669656420646961676e6f73746960008201527f6369616e00000000000000000000000000000000000000000000000000000000602082015250565b6000612a79602483612665565b9150612a8482612a1d565b604082019050919050565b60006020820190508181036000830152612aa881612a6c565b9050919050565b60006040820190508181036000830152612ac981856126a0565b90508181036020830152612add81846126a0565b90509392505050565b600081519050612af5816122ad565b92915050565b600060208284031215612b1157612b10612089565b5b6000612b1f84828501612ae6565b91505092915050565b7f496e76616c69642070726f706572747920616464726573730000000000000000600082015250565b6000612b5e601883612665565b9150612b6982612b28565b602082019050919050565b60006020820190508181036000830152612b8d81612b51565b9050919050565b6000608082019050612ba96000830187612323565b612bb66020830186612283565b612bc36040830185612283565b612bd06060830184612283565b95945050505050565b6000606082019050612bee6000830186612283565b612bfb6020830185612283565b612c086040830184612323565b949350505050565b7f496e76616c696420726571756573742049440000000000000000000000000000600082015250565b6000612c46601283612665565b9150612c5182612c10565b602082019050919050565b60006020820190508181036000830152612c7581612c39565b9050919050565b7f4e487b7100000000000000000000000000000000000000000000000000000000600052603260045260246000fd5b7f4e6f20646961676e6f73746963207265717565737420666f756e640000000000600082015250565b6000612ce1601b83612665565b9150612cec82612cab565b602082019050919050565b60006020820190508181036000830152612d1081612cd4565b9050919050565b6000608082019050612d2c6000830187612283565b8181036020830152612d3e81866126a0565b90508181036040830152612d5281856126a0565b9050612d616060830184612323565b95945050505050565b600081519050612d798161234d565b92915050565b600060208284031215612d9557612d94612089565b5b6000612da384828501612d6a565b91505092915050565b7f596f7527726520612063657274696669656420646961676e6f7374696369616e600082015250565b6000612de2602083612665565b9150612ded82612dac565b602082019050919050565b60006020820190508181036000830152612e1181612dd5565b9050919050565b7f416c726561647920636572746966696564000000000000000000000000000000600082015250565b6000612e4e601183612665565b9150612e5982612e18565b602082019050919050565b60006020820190508181036000830152612e7d81612e41565b9050919050565b7f4e487b7100000000000000000000000000000000000000000000000000000000600052602260045260246000fd5b60006002820490506001821680612ecb57607f821691505b602082108103612ede57612edd612e84565b5b50919050565b60008190508160005260206000209050919050565b60006020601f8301049050919050565b600082821b905092915050565b600060088302612f467fffffffffffffffffffffffffffffffffffffffffffffffffffffffffffffffff82612f09565b612f508683612f09565b95508019841693508086168417925050509392505050565b6000612f83612f7e612f7984612319565b612556565b612319565b9050919050565b6000819050919050565b612f9d83612f68565b612fb1612fa982612f8a565b848454612f16565b825550505050565b600090565b612fc6612fb9565b612fd1818484612f94565b505050565b5b81811015612ff557612fea600082612fbe565b600181019050612fd7565b5050565b601f82111561303a5761300b81612ee4565b61301484612ef9565b81016020851015613023578190505b61303761302f85612ef9565b830182612fd6565b50505b505050565b600082821c905092915050565b600061305d6000198460080261303f565b1980831691505092915050565b6000613076838361304c565b9150826002028217905092915050565b61308f8261265a565b67ffffffffffffffff8111156130a8576130a76120ae565b5b6130b28254612eb3565b6130bd828285612ff9565b600060209050601f8311600181146130f057600084156130de578287015190505b6130e8858261306a565b865550613150565b601f1984166130fe86612ee4565b60005b8281101561312657848901518255600182019150602085019450602081019050613101565b86831015613143578489015161313f601f89168261304c565b8355505b6001600288020188555050505b505050505050565b600081905092915050565b600061316e8261265a565b6131788185613158565b9350613188818560208601612676565b80840191505092915050565b60006131a08284613163565b915081905092915050565b7f416c726561647920756e63657274696669656400000000000000000000000000600082015250565b60006131e1601383612665565b91506131ec826131ab565b602082019050919050565b60006020820190508181036000830152613210816131d4565b9050919050565b600067ffffffffffffffff821115613232576132316120ae565b5b602082029050602081019050919050565b600080fd5b600061325382612271565b9050919050565b61326381613248565b811461326e57600080fd5b50565b6000815190506132808161325a565b92915050565b600061329961329484613217565b61210e565b905080838252602082019050602084028301858111156132bc576132bb613243565b5b835b818110156132e557806132d18882613271565b8452602084019350506020810190506132be565b5050509392505050565b600082601f83011261330457613303612093565b5b8151613314848260208601613286565b91505092915050565b60006020828403121561333357613332612089565b5b600082015167ffffffffffffffff8111156133515761335061208e565b5b61335d848285016132ef565b91505092915050565b7f496e636f727265637420726567697374726174696f6e20666565000000000000600082015250565b600061339c601a83612665565b91506133a782613366565b602082019050919050565b600060208201905081810360008301526133cb8161338f565b9050919050565b7f4f776e657220616c726561647920726567697374657265640000000000000000600082015250565b6000613408601883612665565b9150613413826133d2565b602082019050919050565b60006020820190508181036000830152613437816133fb565b9050919050565b60006040820190506134536000830185612283565b6134606020830184612323565b9392505050565b600061347a61347584612129565b61210e565b90508281526020810184848401111561349657613495612098565b5b6134a1848285612676565b509392505050565b600082601f8301126134be576134bd612093565b5b81516134ce848260208601613467565b91505092915050565b6000602082840312156134ed576134ec612089565b5b600082015167ffffffffffffffff81111561350b5761350a61208e565b5b613517848285016134a9565b91505092915050565b7f4f776e61626c653a206e6577206f776e657220697320746865207a65726f206160008201527f6464726573730000000000000000000000000000000000000000000000000000602082015250565b600061357c602683612665565b915061358782613520565b604082019050919050565b600060208201905081810360008301526135ab8161356f565b9050919050565b7f4f776e61626c653a2063616c6c6572206973206e6f7420746865206f776e6572600082015250565b60006135e8602083612665565b91506135f3826135b2565b602082019050919050565b60006020820190508181036000830152613617816135db565b905091905056fea2646970667358221220a368c34c0e3046148ad9a1db1e817d41340e4b24606f02ce50873cd72336234f64736f6c63430008120033",
  "immutableReferences": {},
  "source": "// SPDX-License-Identifier: GPL-3.0\r\npragma solidity 0.8.18;\r\n\r\nimport \"@openzeppelin/contracts/token/ERC721/ERC721.sol\";\r\nimport \"@openzeppelin/contracts/token/ERC721/extensions/ERC721Enumerable.sol\";\r\nimport \"@openzeppelin/contracts/token/ERC721/extensions/ERC721URIStorage.sol\";\r\nimport \"@openzeppelin/contracts/access/AccessControl.sol\";\r\nimport \"@openzeppelin/contracts/utils/cryptography/draft-EIP712.sol\";\r\nimport \"@openzeppelin/contracts/token/ERC721/extensions/draft-ERC721Votes.sol\";\r\nimport \"@openzeppelin/contracts/utils/Counters.sol\";\r\nimport \"@openzeppelin/contracts/access/Ownable.sol\";\r\nimport \"./PropertyFactory.sol\";\r\n\r\n/**\r\n * @title PropertyManager\r\n * @author EL BACHRA\r\n * @dev This contract manages property ownership and diagnostics requests for properties.\r\nIt allows property owners to register, certified diagnosticians to create diagnostic reports,\r\nand property factory contracts to create and transfer property ownership. It also includes a\r\nregistration fee, and events for property and diagnostic creation, owner and diagnostician\r\nregistration and certification, and fund withdrawals.\r\n*/\r\ncontract PropertyManager is Ownable {\r\n    /**\r\n     * @dev Diagnostician struct represents a diagnostician in the system.\r\n     * @param name The name of the diagnostician.\r\n     * @param pendingVerification A boolean indicating whether the diagnostician's verification is pending or not.\r\n     * @param isCertified A boolean indicating whether the diagnostician is certified or not.\r\n     * @param price The price of a diagnostic service provided by the diagnostician.\r\n     */\r\n    struct Diagnostician {\r\n        string name;\r\n        bool pendingVerification;\r\n        bool isCertified;\r\n        uint256 price;\r\n    }\r\n\r\n    /**\r\n     * @dev DiagnosticRequest struct represents a request for diagnostics made by a property owner.\r\n     * @param propertyOwner The address of the property owner who made the request.\r\n     * @param property The address of the property for which diagnostics were requested.\r\n     * @param isCompleted A boolean indicating whether the diagnostic request has been completed or not.\r\n     */\r\n    struct DiagnosticRequest {\r\n        address propertyOwner;\r\n        address property;\r\n        bool isCompleted;\r\n    }\r\n\r\n    struct UserInfo {\r\n        string role;\r\n        bool isCertified;\r\n    }\r\n\r\n    //////// FIELDS\r\n    mapping(address => Diagnostician) public verifiedDiagnostician;\r\n    mapping(string => address) public siretToDiagnostician;\r\n    mapping(address => bool) public registeredOwners;\r\n    mapping(address => DiagnosticRequest[]) public diagnosticRequests; //diagnotician => requests to be done\r\n\r\n    PropertyFactory private _propertyFactory;\r\n    uint256 public registrationFee;\r\n\r\n    //////// CONSTRUCTOR\r\n    /**\r\n     * @notice The constructor initializes the PropertyManager contract with the provided propertyFactoryAddress.\r\n     * @param propertyFactoryAddress The address of the PropertyFactory contract.\r\n     */\r\n    constructor(address propertyFactoryAddress) {\r\n        _propertyFactory = PropertyFactory(propertyFactoryAddress);\r\n    }\r\n\r\n    //////// EVENTS\r\n    /**\r\n     * @notice The event emitted when a diagnostic is requested.\r\n     * @param requestId The unique identifier of the diagnostic request.\r\n     * @param propertyOwner The address of the property owner who requested the diagnostic.\r\n     * @param diagnostician The address of the diagnostician assigned to perform the diagnostic.\r\n     * @param propertyAddress The address of the property for which the diagnostic is requested.\r\n     */\r\n    event DiagnosticRequested(\r\n        uint256 requestId,\r\n        address propertyOwner,\r\n        address diagnostician,\r\n        address propertyAddress\r\n    );\r\n\r\n    /**\r\n     * @notice The event emitted when a diagnostic is created.\r\n     * @param property The address of the property for which the diagnostic was created.\r\n     * @param tokenId The unique identifier of the created diagnostic.\r\n     */\r\n    event DiagnosticCreated(address indexed property, uint256 indexed tokenId);\r\n\r\n    /**\r\n     * @notice The event emitted when a property is created.\r\n     * @param property The address of the created property.\r\n     */\r\n    event PropertyCreated(address indexed property);\r\n\r\n    /**\r\n     * @notice The event emitted when a diagnostician asks for verification.\r\n     * @param diagnosticianAddress The address of the diagnostician requesting verification.\r\n     */\r\n    event AskedVerification(address diagnosticianAddress);\r\n\r\n    /**\r\n     * @notice The event emitted when a diagnostician is certified.\r\n     * @param diagnosticianAddress The address of the certified diagnostician.\r\n     */\r\n    event DiagnosticianCertified(address diagnosticianAddress);\r\n\r\n    /**\r\n     * @notice The event emitted when a diagnostician's certification is revoked.\r\n     * @param diagnosticianAddress The address of the diagnostician whose certification is revoked.\r\n     */\r\n    event DiagnosticianRevoked(address diagnosticianAddress);\r\n\r\n    /**\r\n     * @notice The event emitted when a property owner is registered.\r\n     * @param ownerAddress The address of the registered property owner.\r\n     */\r\n    event OwnerRegistered(address ownerAddress);\r\n\r\n    /**\r\n     * @notice The event emitted when funds are withdrawn from the contract.\r\n     * @param account The address of the account that withdrew the funds.\r\n     */\r\n    event FundsWithdrawn(address account);\r\n\r\n    /**\r\n     * @notice The event emitted when a diagnostic is requested (alternative version with propertyAddress as string).\r\n     * @param requestId The unique identifier of the diagnostic request.\r\n     * @param propertyOwner The address of the property owner who requested the diagnostic.\r\n     * @param propertyAddress The string representation of the property address for which the diagnostic is requested.\r\n     */\r\n    event DiagnosticRequested(\r\n        uint256 requestId,\r\n        address propertyOwner,\r\n        string propertyAddress\r\n    );\r\n\r\n    //////// MODIFIERS\r\n\r\n    /**\r\n     * @dev Modifier that restricts access to only certified diagnosticians.\r\n     * It checks whether the sender is a certified diagnostician and reverts with an error message if not.\r\n     * If the condition is met, the function execution continues.\r\n     */\r\n    modifier onlyCertifiedDiagnosticians() {\r\n        require(\r\n            verifiedDiagnostician[msg.sender].isCertified == true,\r\n            \"You're not a certified diagnostician\"\r\n        );\r\n        _;\r\n    }\r\n\r\n    /**\r\n     * @dev Modifier that restricts access to only uncertified diagnosticians.\r\n     * It checks whether the sender is not a certified diagnostician and reverts with an error message if the sender is certified.\r\n     * If the condition is met, the function execution continues.\r\n     */\r\n    modifier onlyUnCertifiedDiagnosticians() {\r\n        require(\r\n            verifiedDiagnostician[msg.sender].isCertified == false,\r\n            \"You're a certified diagnostician\"\r\n        );\r\n        _;\r\n    }\r\n\r\n    /**\r\n     * @dev Modifier that restricts access to only registered property owners.\r\n     * It checks whether the sender is a registered property owner and reverts with an error message if not.\r\n     * If the condition is met, the function execution continues.\r\n     */\r\n    modifier onlyPropertyOwners() {\r\n        require(\r\n            registeredOwners[msg.sender] == true,\r\n            \"You're not a certified diagnostician\"\r\n        );\r\n        _;\r\n    }\r\n\r\n    //////// FUNCTIONS\r\n\r\n    /**\r\n     * @dev Function that returns the role and certification status of the caller.\r\n     * The possible roles are SmartContractOwner, PropertyOwner, CertifiedDiagnostician,\r\n     * UncertifiedDiagnostician, and NoRole.\r\n     * @return UserInfo memory object containing the role and certification status of the caller.\r\n     */\r\n    function myself() public view returns (UserInfo memory) {\r\n        if (msg.sender == owner()) {\r\n            return UserInfo({role: \"SmartContractOwner\", isCertified: false});\r\n        } else if (registeredOwners[msg.sender]) {\r\n            return UserInfo({role: \"PropertyOwner\", isCertified: false});\r\n        } else if (verifiedDiagnostician[msg.sender].isCertified) {\r\n            return\r\n                UserInfo({role: \"CertifiedDiagnostician\", isCertified: true});\r\n        } else if (\r\n            verifiedDiagnostician[msg.sender].pendingVerification == true\r\n        ) {\r\n            return\r\n                UserInfo({\r\n                    role: \"UncertifiedDiagnostician\",\r\n                    isCertified: false\r\n                });\r\n        } else {\r\n            return UserInfo({role: \"NoRole\", isCertified: false});\r\n        }\r\n    }\r\n\r\n    /**\r\n     * @dev Function that allows users to register as a property owner.\r\n     * The function checks if the sent value is greater than or equal to the registration fee and\r\n     * if the sender is not already a registered owner. If both conditions are met, the sender\r\n     * is registered as a property owner and the OwnerRegistered event is emitted.\r\n     */\r\n    function registerOwner() public payable {\r\n        require(msg.value >= registrationFee, \"Incorrect registration fee\");\r\n        require(!registeredOwners[msg.sender], \"Owner already registered\");\r\n        registeredOwners[msg.sender] = true;\r\n        emit OwnerRegistered(msg.sender);\r\n    }\r\n\r\n    /**\r\n     * @dev Function that allows uncertified diagnosticians to request verification.\r\n     * The function checks if the sender is not already certified, and if so, stores their\r\n     * information and sets their pendingVerification status to true. It also emits an\r\n     * AskedVerification event.\r\n     * @param _name The name of the diagnostician.\r\n     * @param _siret The SIRET identifier of the diagnostician.\r\n     */\r\n    function requestVerification(\r\n        string memory _name,\r\n        string memory _siret\r\n    ) external onlyUnCertifiedDiagnosticians {\r\n        require(\r\n            verifiedDiagnostician[msg.sender].isCertified == false,\r\n            \"Already certified\"\r\n        );\r\n        address requester = msg.sender;\r\n        verifiedDiagnostician[requester].name = _name;\r\n        verifiedDiagnostician[requester].isCertified = false;\r\n        verifiedDiagnostician[requester].pendingVerification = true;\r\n        siretToDiagnostician[_siret] = msg.sender;\r\n        emit AskedVerification(requester);\r\n    }\r\n\r\n    /**\r\n     * @dev Function that allows the smart contract owner to verify a diagnostician.\r\n     * The function checks if the diagnostician is not already certified, and if so, sets their\r\n     * isCertified status to true and pendingVerification status to false. It also emits a\r\n     * DiagnosticianCertified event.\r\n     * @param _diagnostician The address of the diagnostician to be verified.\r\n     */\r\n    function verifyDiagnostician(address _diagnostician) public onlyOwner {\r\n        require(\r\n            verifiedDiagnostician[_diagnostician].isCertified == false,\r\n            \"Already certified\"\r\n        );\r\n        verifiedDiagnostician[_diagnostician].isCertified = true;\r\n        verifiedDiagnostician[_diagnostician].pendingVerification = false;\r\n        emit DiagnosticianCertified(_diagnostician);\r\n    }\r\n\r\n    /**\r\n     * @dev Function that allows property owners to create a new property.\r\n     * The function calls the createProperty function of the PropertyFactory contract and emits a\r\n     * PropertyCreated event.\r\n     * @param _name The name of the property.\r\n     * @param _symbol The symbol of the property.\r\n     * @return The address of the created property.\r\n     */\r\n    function createProperty(\r\n        string memory _name,\r\n        string memory _symbol\r\n    ) public onlyPropertyOwners returns (address) {\r\n        address propertyAddress = _propertyFactory.createProperty(\r\n            _name,\r\n            _symbol\r\n        );\r\n\r\n        emit PropertyCreated(propertyAddress);\r\n        return propertyAddress;\r\n    }\r\n\r\n    /**\r\n     * @dev Function that allows property owners to request a diagnostic.\r\n     * The function creates a new DiagnosticRequest struct, stores it in the diagnosticRequests\r\n     * mapping, and emits a DiagnosticRequested event.\r\n     * @param _propertyAddress The address of the property to be diagnosed.\r\n     * @param _diagnostician The address of the certified diagnostician.\r\n     */\r\n    function requestDiagnostic(\r\n        address _propertyAddress,\r\n        address _diagnostician\r\n    ) public onlyPropertyOwners {\r\n        require(_propertyAddress != address(0), \"Invalid property address\");\r\n\r\n        DiagnosticRequest memory newRequest = DiagnosticRequest({\r\n            propertyOwner: msg.sender,\r\n            property: _propertyAddress,\r\n            isCompleted: false\r\n        });\r\n\r\n        uint256 requestId = diagnosticRequests[_diagnostician].length;\r\n        diagnosticRequests[_diagnostician].push(newRequest);\r\n        emit DiagnosticRequested(\r\n            requestId,\r\n            msg.sender,\r\n            _diagnostician,\r\n            _propertyAddress\r\n        );\r\n    }\r\n\r\n    /**\r\n     * @dev Function that allows certified diagnosticians to create a diagnostic.\r\n     * The function checks if the requestId is valid and if a diagnostic request exists for the\r\n     * given requestId. It then calls the createDiagnostic function of the PropertyFactory contract,\r\n     * marks the request as completed, and emits a DiagnosticCreated event.\r\n     * @param requestId The identifier of the diagnostic request.\r\n     * @param _documentHash The IPFS hash of the diagnostic document.\r\n     * @param _tokenURI The URI of the diagnostic token.\r\n     * @param _expiryDate The expiry date of the diagnostic in UNIX timestamp format.\r\n     */\r\n    function createDiagnostic(\r\n        uint256 requestId,\r\n        string memory _documentHash,\r\n        string memory _tokenURI,\r\n        uint256 _expiryDate\r\n    ) public onlyCertifiedDiagnosticians {\r\n        require(\r\n            requestId < diagnosticRequests[msg.sender].length,\r\n            \"Invalid request ID\"\r\n        );\r\n        require(\r\n            diagnosticRequests[msg.sender][requestId].property != address(0),\r\n            \"No diagnostic request found\"\r\n        );\r\n        address property = diagnosticRequests[msg.sender][requestId].property;\r\n        uint256 tokenId = _propertyFactory.createDiagnostic(\r\n            property,\r\n            _documentHash,\r\n            _tokenURI,\r\n            _expiryDate\r\n        );\r\n        diagnosticRequests[msg.sender][requestId].isCompleted = true;\r\n\r\n        emit DiagnosticCreated(property, tokenId);\r\n    }\r\n\r\n    /**\r\n     * @dev Function that allows property owners to transfer ownership of a diagnostic token.\r\n     * The function calls the transferOwnership function of the PropertyFactory contract.\r\n     * @param _property The address of the property associated with the diagnostic token.\r\n     * @param _to The address to transfer the ownership of the token to.\r\n     * @param _tokenId The identifier of the diagnostic token.\r\n     */\r\n    function transferOwnership(\r\n        address _property,\r\n        address _to,\r\n        uint256 _tokenId\r\n    ) public onlyPropertyOwners {\r\n        _propertyFactory.transferOwnership(_property, _to, _tokenId);\r\n    }\r\n\r\n    /**\r\n     * @dev Function that revokes the verification status of a diagnostician.\r\n     * Only the smart contract owner can call this function. The function sets\r\n     * the isCertified status of the diagnostician to false and emits a\r\n     * DiagnosticianRevoked event.\r\n     * @param _diagnostician The address of the diagnostician whose verification status is to be revoked.\r\n     */\r\n    function revokeDiagnosticianVerification(\r\n        address _diagnostician\r\n    ) public onlyOwner {\r\n        require(\r\n            verifiedDiagnostician[_diagnostician].isCertified == true,\r\n            \"Already uncertified\"\r\n        );\r\n        verifiedDiagnostician[_diagnostician].isCertified = false;\r\n        emit DiagnosticianRevoked(_diagnostician);\r\n    }\r\n\r\n    /**\r\n     * @dev Private function that checks if a diagnostician is verified (certified).\r\n     * @param diagnostician The address of the diagnostician to check.\r\n     * @return A boolean value indicating if the diagnostician is certified.\r\n     */\r\n    function _isDiagnosticianVerified(\r\n        address diagnostician\r\n    ) private view returns (bool) {\r\n        return verifiedDiagnostician[diagnostician].isCertified;\r\n    }\r\n\r\n    /**\r\n     * @dev Function that allows the smart contract owner to withdraw the accumulated funds.\r\n     * The function transfers the contract balance to the provided recipient address and emits\r\n     * a FundsWithdrawn event.\r\n     * @param _recipient The address of the recipient to receive the funds.\r\n     */\r\n    function withdrawFunds(address payable _recipient) public onlyOwner {\r\n        _recipient.transfer(address(this).balance);\r\n        emit FundsWithdrawn(address(this));\r\n    }\r\n\r\n    /**\r\n     * @dev Function that allows the smart contract owner to set a new registration fee.\r\n     * @param _newFee The new registration fee value.\r\n     */\r\n    function setRegistrationFee(uint256 _newFee) public onlyOwner {\r\n        registrationFee = _newFee;\r\n    }\r\n\r\n    /**\r\n     * @dev Function that returns an array of DiagnosticRequest structs for a certified diagnostician.\r\n     * @param _diagnostician The address of the certified diagnostician.\r\n     * @return An array of DiagnosticRequest structs.\r\n     */\r\n    function getDiagnosticRequests(\r\n        address _diagnostician\r\n    )\r\n        public\r\n        view\r\n        onlyCertifiedDiagnosticians\r\n        returns (DiagnosticRequest[] memory)\r\n    {\r\n        return diagnosticRequests[_diagnostician];\r\n    }\r\n\r\n    /**\r\n     * @dev Function that retrieves the IPFS hash of a diagnostic associated with a property and a token ID.\r\n     * @param property The address of the property associated with the diagnostic.\r\n     * @param tokenId The identifier of the diagnostic token.\r\n     * @return The IPFS hash of the diagnostic document.\r\n     */\r\n    function getDiagnosticHash(\r\n        address property,\r\n        uint256 tokenId\r\n    ) public view returns (string memory) {\r\n        return _propertyFactory.getDiagnosticHash(property, tokenId);\r\n    }\r\n\r\n    /**\r\n     * @dev Function that returns an array of Property structs for the calling user.\r\n     * @return An array of Property structs.\r\n     */\r\n    function getUserProperties() public view returns (Property[] memory) {\r\n        return _propertyFactory.getUserProperties();\r\n    }\r\n}\r\n",
  "sourcePath": "D:\\dev_blockchain\\final\\Diagnostify final\\truffle\\contracts\\PropertyManager.sol",
  "compiler": {
    "name": "solc",
    "version": "0.8.18+commit.87f61d96.Emscripten.clang"
  },
  "schemaVersion": "3.4.13",
  "updatedAt": "2023-04-10T15:33:06.401Z",
  "networkType": "ethereum",
  "devdoc": {
    "author": "EL BACHRA",
    "details": "This contract manages property ownership and diagnostics requests for properties. It allows property owners to register, certified diagnosticians to create diagnostic reports, and property factory contracts to create and transfer property ownership. It also includes a registration fee, and events for property and diagnostic creation, owner and diagnostician registration and certification, and fund withdrawals.",
    "events": {
      "AskedVerification(address)": {
        "params": {
          "diagnosticianAddress": "The address of the diagnostician requesting verification."
        }
      },
      "DiagnosticCreated(address,uint256)": {
        "params": {
          "property": "The address of the property for which the diagnostic was created.",
          "tokenId": "The unique identifier of the created diagnostic."
        }
      },
      "DiagnosticRequested(uint256,address,address,address)": {
        "params": {
          "diagnostician": "The address of the diagnostician assigned to perform the diagnostic.",
          "propertyAddress": "The address of the property for which the diagnostic is requested.",
          "propertyOwner": "The address of the property owner who requested the diagnostic.",
          "requestId": "The unique identifier of the diagnostic request."
        }
      },
      "DiagnosticRequested(uint256,address,string)": {
        "params": {
          "propertyAddress": "The string representation of the property address for which the diagnostic is requested.",
          "propertyOwner": "The address of the property owner who requested the diagnostic.",
          "requestId": "The unique identifier of the diagnostic request."
        }
      },
      "DiagnosticianCertified(address)": {
        "params": {
          "diagnosticianAddress": "The address of the certified diagnostician."
        }
      },
      "DiagnosticianRevoked(address)": {
        "params": {
          "diagnosticianAddress": "The address of the diagnostician whose certification is revoked."
        }
      },
      "FundsWithdrawn(address)": {
        "params": {
          "account": "The address of the account that withdrew the funds."
        }
      },
      "OwnerRegistered(address)": {
        "params": {
          "ownerAddress": "The address of the registered property owner."
        }
      },
      "PropertyCreated(address)": {
        "params": {
          "property": "The address of the created property."
        }
      }
    },
    "kind": "dev",
    "methods": {
      "constructor": {
        "params": {
          "propertyFactoryAddress": "The address of the PropertyFactory contract."
        }
      },
      "createDiagnostic(uint256,string,string,uint256)": {
        "details": "Function that allows certified diagnosticians to create a diagnostic. The function checks if the requestId is valid and if a diagnostic request exists for the given requestId. It then calls the createDiagnostic function of the PropertyFactory contract, marks the request as completed, and emits a DiagnosticCreated event.",
        "params": {
          "_documentHash": "The IPFS hash of the diagnostic document.",
          "_expiryDate": "The expiry date of the diagnostic in UNIX timestamp format.",
          "_tokenURI": "The URI of the diagnostic token.",
          "requestId": "The identifier of the diagnostic request."
        }
      },
      "createProperty(string,string)": {
        "details": "Function that allows property owners to create a new property. The function calls the createProperty function of the PropertyFactory contract and emits a PropertyCreated event.",
        "params": {
          "_name": "The name of the property.",
          "_symbol": "The symbol of the property."
        },
        "returns": {
          "_0": "The address of the created property."
        }
      },
      "getDiagnosticHash(address,uint256)": {
        "details": "Function that retrieves the IPFS hash of a diagnostic associated with a property and a token ID.",
        "params": {
          "property": "The address of the property associated with the diagnostic.",
          "tokenId": "The identifier of the diagnostic token."
        },
        "returns": {
          "_0": "The IPFS hash of the diagnostic document."
        }
      },
      "getDiagnosticRequests(address)": {
        "details": "Function that returns an array of DiagnosticRequest structs for a certified diagnostician.",
        "params": {
          "_diagnostician": "The address of the certified diagnostician."
        },
        "returns": {
          "_0": "An array of DiagnosticRequest structs."
        }
      },
      "getUserProperties()": {
        "details": "Function that returns an array of Property structs for the calling user.",
        "returns": {
          "_0": "An array of Property structs."
        }
      },
      "myself()": {
        "details": "Function that returns the role and certification status of the caller. The possible roles are SmartContractOwner, PropertyOwner, CertifiedDiagnostician, UncertifiedDiagnostician, and NoRole.",
        "returns": {
          "_0": "UserInfo memory object containing the role and certification status of the caller."
        }
      },
      "owner()": {
        "details": "Returns the address of the current owner."
      },
      "registerOwner()": {
        "details": "Function that allows users to register as a property owner. The function checks if the sent value is greater than or equal to the registration fee and if the sender is not already a registered owner. If both conditions are met, the sender is registered as a property owner and the OwnerRegistered event is emitted."
      },
      "renounceOwnership()": {
        "details": "Leaves the contract without owner. It will not be possible to call `onlyOwner` functions anymore. Can only be called by the current owner. NOTE: Renouncing ownership will leave the contract without an owner, thereby removing any functionality that is only available to the owner."
      },
      "requestDiagnostic(address,address)": {
        "details": "Function that allows property owners to request a diagnostic. The function creates a new DiagnosticRequest struct, stores it in the diagnosticRequests mapping, and emits a DiagnosticRequested event.",
        "params": {
          "_diagnostician": "The address of the certified diagnostician.",
          "_propertyAddress": "The address of the property to be diagnosed."
        }
      },
      "requestVerification(string,string)": {
        "details": "Function that allows uncertified diagnosticians to request verification. The function checks if the sender is not already certified, and if so, stores their information and sets their pendingVerification status to true. It also emits an AskedVerification event.",
        "params": {
          "_name": "The name of the diagnostician.",
          "_siret": "The SIRET identifier of the diagnostician."
        }
      },
      "revokeDiagnosticianVerification(address)": {
        "details": "Function that revokes the verification status of a diagnostician. Only the smart contract owner can call this function. The function sets the isCertified status of the diagnostician to false and emits a DiagnosticianRevoked event.",
        "params": {
          "_diagnostician": "The address of the diagnostician whose verification status is to be revoked."
        }
      },
      "setRegistrationFee(uint256)": {
        "details": "Function that allows the smart contract owner to set a new registration fee.",
        "params": {
          "_newFee": "The new registration fee value."
        }
      },
      "transferOwnership(address)": {
        "details": "Transfers ownership of the contract to a new account (`newOwner`). Can only be called by the current owner."
      },
      "transferOwnership(address,address,uint256)": {
        "details": "Function that allows property owners to transfer ownership of a diagnostic token. The function calls the transferOwnership function of the PropertyFactory contract.",
        "params": {
          "_property": "The address of the property associated with the diagnostic token.",
          "_to": "The address to transfer the ownership of the token to.",
          "_tokenId": "The identifier of the diagnostic token."
        }
      },
      "verifyDiagnostician(address)": {
        "details": "Function that allows the smart contract owner to verify a diagnostician. The function checks if the diagnostician is not already certified, and if so, sets their isCertified status to true and pendingVerification status to false. It also emits a DiagnosticianCertified event.",
        "params": {
          "_diagnostician": "The address of the diagnostician to be verified."
        }
      },
      "withdrawFunds(address)": {
        "details": "Function that allows the smart contract owner to withdraw the accumulated funds. The function transfers the contract balance to the provided recipient address and emits a FundsWithdrawn event.",
        "params": {
          "_recipient": "The address of the recipient to receive the funds."
        }
      }
    },
    "title": "PropertyManager",
    "version": 1
  },
  "userdoc": {
    "events": {
      "AskedVerification(address)": {
        "notice": "The event emitted when a diagnostician asks for verification."
      },
      "DiagnosticCreated(address,uint256)": {
        "notice": "The event emitted when a diagnostic is created."
      },
      "DiagnosticRequested(uint256,address,address,address)": {
        "notice": "The event emitted when a diagnostic is requested."
      },
      "DiagnosticRequested(uint256,address,string)": {
        "notice": "The event emitted when a diagnostic is requested (alternative version with propertyAddress as string)."
      },
      "DiagnosticianCertified(address)": {
        "notice": "The event emitted when a diagnostician is certified."
      },
      "DiagnosticianRevoked(address)": {
        "notice": "The event emitted when a diagnostician's certification is revoked."
      },
      "FundsWithdrawn(address)": {
        "notice": "The event emitted when funds are withdrawn from the contract."
      },
      "OwnerRegistered(address)": {
        "notice": "The event emitted when a property owner is registered."
      },
      "PropertyCreated(address)": {
        "notice": "The event emitted when a property is created."
      }
    },
    "kind": "user",
    "methods": {
      "constructor": {
        "notice": "The constructor initializes the PropertyManager contract with the provided propertyFactoryAddress."
      }
    },
    "version": 1
  }
}