{
  "contractName": "PropertyManager",
  "abi": [
    {
      "inputs": [
        {
          "internalType": "address",
          "name": "propertyFactoryAddress",
          "type": "address"
        }
      ],
      "stateMutability": "nonpayable",
      "type": "constructor"
    },
    {
      "anonymous": false,
      "inputs": [
        {
          "indexed": false,
          "internalType": "address",
          "name": "diagnosticianAddress",
          "type": "address"
        }
      ],
      "name": "AskedVerification",
      "type": "event"
    },
    {
      "anonymous": false,
      "inputs": [
        {
          "indexed": true,
          "internalType": "address",
          "name": "property",
          "type": "address"
        },
        {
          "indexed": true,
          "internalType": "uint256",
          "name": "tokenId",
          "type": "uint256"
        }
      ],
      "name": "DiagnosticCreated",
      "type": "event"
    },
    {
      "anonymous": false,
      "inputs": [
        {
          "indexed": false,
          "internalType": "uint256",
          "name": "requestId",
          "type": "uint256"
        },
        {
          "indexed": false,
          "internalType": "address",
          "name": "propertyOwner",
          "type": "address"
        },
        {
          "indexed": false,
          "internalType": "address",
          "name": "diagnostician",
          "type": "address"
        },
        {
          "indexed": false,
          "internalType": "address",
          "name": "propertyAddress",
          "type": "address"
        }
      ],
      "name": "DiagnosticRequested",
      "type": "event"
    },
    {
      "anonymous": false,
      "inputs": [
        {
          "indexed": false,
          "internalType": "uint256",
          "name": "requestId",
          "type": "uint256"
        },
        {
          "indexed": false,
          "internalType": "address",
          "name": "propertyOwner",
          "type": "address"
        },
        {
          "indexed": false,
          "internalType": "string",
          "name": "propertyAddress",
          "type": "string"
        }
      ],
      "name": "DiagnosticRequested",
      "type": "event"
    },
    {
      "anonymous": false,
      "inputs": [
        {
          "indexed": false,
          "internalType": "address",
          "name": "diagnosticianAddress",
          "type": "address"
        }
      ],
      "name": "DiagnosticianCertified",
      "type": "event"
    },
    {
      "anonymous": false,
      "inputs": [
        {
          "indexed": false,
          "internalType": "address",
          "name": "diagnosticianAddress",
          "type": "address"
        }
      ],
      "name": "DiagnosticianRevoked",
      "type": "event"
    },
    {
      "anonymous": false,
      "inputs": [
        {
          "indexed": false,
          "internalType": "address",
          "name": "account",
          "type": "address"
        }
      ],
      "name": "FundsWithdrawn",
      "type": "event"
    },
    {
      "anonymous": false,
      "inputs": [
        {
          "indexed": false,
          "internalType": "address",
          "name": "ownerAddress",
          "type": "address"
        }
      ],
      "name": "OwnerRegistered",
      "type": "event"
    },
    {
      "anonymous": false,
      "inputs": [
        {
          "indexed": true,
          "internalType": "address",
          "name": "previousOwner",
          "type": "address"
        },
        {
          "indexed": true,
          "internalType": "address",
          "name": "newOwner",
          "type": "address"
        }
      ],
      "name": "OwnershipTransferred",
      "type": "event"
    },
    {
      "anonymous": false,
      "inputs": [
        {
          "indexed": true,
          "internalType": "address",
          "name": "property",
          "type": "address"
        }
      ],
      "name": "PropertyCreated",
      "type": "event"
    },
    {
      "inputs": [
        {
          "internalType": "address",
          "name": "",
          "type": "address"
        },
        {
          "internalType": "uint256",
          "name": "",
          "type": "uint256"
        }
      ],
      "name": "diagnosticRequests",
      "outputs": [
        {
          "internalType": "address",
          "name": "propertyOwner",
          "type": "address"
        },
        {
          "internalType": "address",
          "name": "property",
          "type": "address"
        },
        {
          "internalType": "bool",
          "name": "isCompleted",
          "type": "bool"
        }
      ],
      "stateMutability": "view",
      "type": "function",
      "constant": true
    },
    {
      "inputs": [],
      "name": "owner",
      "outputs": [
        {
          "internalType": "address",
          "name": "",
          "type": "address"
        }
      ],
      "stateMutability": "view",
      "type": "function",
      "constant": true
    },
    {
      "inputs": [
        {
          "internalType": "address",
          "name": "",
          "type": "address"
        }
      ],
      "name": "registeredOwners",
      "outputs": [
        {
          "internalType": "bool",
          "name": "",
          "type": "bool"
        }
      ],
      "stateMutability": "view",
      "type": "function",
      "constant": true
    },
    {
      "inputs": [],
      "name": "registrationFee",
      "outputs": [
        {
          "internalType": "uint256",
          "name": "",
          "type": "uint256"
        }
      ],
      "stateMutability": "view",
      "type": "function",
      "constant": true
    },
    {
      "inputs": [],
      "name": "renounceOwnership",
      "outputs": [],
      "stateMutability": "nonpayable",
      "type": "function"
    },
    {
      "inputs": [
        {
          "internalType": "string",
          "name": "",
          "type": "string"
        }
      ],
      "name": "siretToDiagnostician",
      "outputs": [
        {
          "internalType": "address",
          "name": "",
          "type": "address"
        }
      ],
      "stateMutability": "view",
      "type": "function",
      "constant": true
    },
    {
      "inputs": [
        {
          "internalType": "address",
          "name": "",
          "type": "address"
        }
      ],
      "name": "verifiedDiagnostician",
      "outputs": [
        {
          "internalType": "string",
          "name": "name",
          "type": "string"
        },
        {
          "internalType": "bool",
          "name": "pendingVerification",
          "type": "bool"
        },
        {
          "internalType": "bool",
          "name": "isCertified",
          "type": "bool"
        },
        {
          "internalType": "uint256",
          "name": "price",
          "type": "uint256"
        }
      ],
      "stateMutability": "view",
      "type": "function",
      "constant": true
    },
    {
      "inputs": [],
      "name": "myself",
      "outputs": [
        {
          "components": [
            {
              "internalType": "string",
              "name": "role",
              "type": "string"
            },
            {
              "internalType": "bool",
              "name": "isCertified",
              "type": "bool"
            }
          ],
          "internalType": "struct PropertyManager.UserInfo",
          "name": "",
          "type": "tuple"
        }
      ],
      "stateMutability": "view",
      "type": "function",
      "constant": true
    },
    {
      "inputs": [],
      "name": "registerOwner",
      "outputs": [],
      "stateMutability": "payable",
      "type": "function",
      "payable": true
    },
    {
      "inputs": [
        {
          "internalType": "string",
          "name": "_name",
          "type": "string"
        },
        {
          "internalType": "string",
          "name": "_siret",
          "type": "string"
        }
      ],
      "name": "requestVerification",
      "outputs": [],
      "stateMutability": "nonpayable",
      "type": "function"
    },
    {
      "inputs": [
        {
          "internalType": "address",
          "name": "_diagnostician",
          "type": "address"
        }
      ],
      "name": "verifyDiagnostician",
      "outputs": [],
      "stateMutability": "nonpayable",
      "type": "function"
    },
    {
      "inputs": [
        {
          "internalType": "string",
          "name": "_name",
          "type": "string"
        },
        {
          "internalType": "string",
          "name": "_symbol",
          "type": "string"
        }
      ],
      "name": "createProperty",
      "outputs": [
        {
          "internalType": "address",
          "name": "",
          "type": "address"
        }
      ],
      "stateMutability": "nonpayable",
      "type": "function"
    },
    {
      "inputs": [
        {
          "internalType": "address",
          "name": "_propertyAddress",
          "type": "address"
        },
        {
          "internalType": "address",
          "name": "_diagnostician",
          "type": "address"
        }
      ],
      "name": "requestDiagnostic",
      "outputs": [],
      "stateMutability": "nonpayable",
      "type": "function"
    },
    {
      "inputs": [
        {
          "internalType": "uint256",
          "name": "requestId",
          "type": "uint256"
        },
        {
          "internalType": "string",
          "name": "_documentHash",
          "type": "string"
        },
        {
          "internalType": "string",
          "name": "_tokenURI",
          "type": "string"
        },
        {
          "internalType": "uint256",
          "name": "_expiryDate",
          "type": "uint256"
        }
      ],
      "name": "createDiagnostic",
      "outputs": [],
      "stateMutability": "nonpayable",
      "type": "function"
    },
    {
      "inputs": [
        {
          "internalType": "address",
          "name": "_property",
          "type": "address"
        },
        {
          "internalType": "address",
          "name": "_to",
          "type": "address"
        },
        {
          "internalType": "uint256",
          "name": "_tokenId",
          "type": "uint256"
        }
      ],
      "name": "transferOwnership",
      "outputs": [],
      "stateMutability": "nonpayable",
      "type": "function"
    },
    {
      "inputs": [
        {
          "internalType": "address",
          "name": "newOwner",
          "type": "address"
        }
      ],
      "name": "transferOwnership",
      "outputs": [],
      "stateMutability": "nonpayable",
      "type": "function"
    },
    {
      "inputs": [
        {
          "internalType": "address",
          "name": "_diagnostician",
          "type": "address"
        }
      ],
      "name": "revokeDiagnosticianVerification",
      "outputs": [],
      "stateMutability": "nonpayable",
      "type": "function"
    },
    {
      "inputs": [
        {
          "internalType": "address payable",
          "name": "_recipient",
          "type": "address"
        }
      ],
      "name": "withdrawFunds",
      "outputs": [],
      "stateMutability": "nonpayable",
      "type": "function"
    },
    {
      "inputs": [
        {
          "internalType": "uint256",
          "name": "_newFee",
          "type": "uint256"
        }
      ],
      "name": "setRegistrationFee",
      "outputs": [],
      "stateMutability": "nonpayable",
      "type": "function"
    },
    {
      "inputs": [
        {
          "internalType": "address",
          "name": "_diagnostician",
          "type": "address"
        }
      ],
      "name": "getDiagnosticRequests",
      "outputs": [
        {
          "components": [
            {
              "internalType": "address",
              "name": "propertyOwner",
              "type": "address"
            },
            {
              "internalType": "address",
              "name": "property",
              "type": "address"
            },
            {
              "internalType": "bool",
              "name": "isCompleted",
              "type": "bool"
            }
          ],
          "internalType": "struct PropertyManager.DiagnosticRequest[]",
          "name": "",
          "type": "tuple[]"
        }
      ],
      "stateMutability": "view",
      "type": "function",
      "constant": true
    },
    {
      "inputs": [
        {
          "internalType": "address",
          "name": "property",
          "type": "address"
        },
        {
          "internalType": "uint256",
          "name": "tokenId",
          "type": "uint256"
        }
      ],
      "name": "getDiagnosticHash",
      "outputs": [
        {
          "internalType": "string",
          "name": "",
          "type": "string"
        }
      ],
      "stateMutability": "view",
      "type": "function",
      "constant": true
    },
    {
      "inputs": [],
      "name": "getUserProperties",
      "outputs": [
        {
          "internalType": "contract Property[]",
          "name": "",
          "type": "address[]"
        }
      ],
      "stateMutability": "view",
      "type": "function",
      "constant": true
    }
  ],
  "bytecode": "0x60806040523480156200001157600080fd5b5060405162003593380380620035938339818101604052810190620000379190620001d5565b620000576200004b6200009f60201b60201c565b620000a760201b60201c565b80600560006101000a81548173ffffffffffffffffffffffffffffffffffffffff021916908373ffffffffffffffffffffffffffffffffffffffff1602179055505062000207565b600033905090565b60008060009054906101000a900473ffffffffffffffffffffffffffffffffffffffff169050816000806101000a81548173ffffffffffffffffffffffffffffffffffffffff021916908373ffffffffffffffffffffffffffffffffffffffff1602179055508173ffffffffffffffffffffffffffffffffffffffff168173ffffffffffffffffffffffffffffffffffffffff167f8be0079c531659141344cd1fd0a4f28419497f9722a3daafe3b4186f6b6457e060405160405180910390a35050565b600080fd5b600073ffffffffffffffffffffffffffffffffffffffff82169050919050565b60006200019d8262000170565b9050919050565b620001af8162000190565b8114620001bb57600080fd5b50565b600081519050620001cf81620001a4565b92915050565b600060208284031215620001ee57620001ed6200016b565b5b6000620001fe84828501620001be565b91505092915050565b61337c80620002176000396000f3fe6080604052600436106101355760003560e01c8063715018a6116100ab5780639e8b3dde1161006f5780639e8b3dde14610408578063b913a1a914610431578063c320c7271461046e578063d276fd9314610497578063f2fde38b146104c2578063fde8046a146104eb57610135565b8063715018a61461034257806371fd5ef91461035957806383b8d9f714610396578063894bc278146103a05780638da5cb5b146103dd57610135565b80634de2bfbf116100fd5780634de2bfbf1461021d57806354728d23146102465780635905bb891461026f5780635d09be60146102ae57806362e47cc2146102d957806368742da61461031957610135565b806307460b661461013a5780630d63bd731461017757806314c44e09146101a0578063171c00fd146101cb57806347dd202e146101f4575b600080fd5b34801561014657600080fd5b50610161600480360381019061015c9190611fd9565b610528565b60405161016e9190612092565b60405180910390f35b34801561018357600080fd5b5061019e600480360381019061019991906120d9565b6106ae565b005b3480156101ac57600080fd5b506101b56109a1565b6040516101c29190612132565b60405180910390f35b3480156101d757600080fd5b506101f260048036038101906101ed9190612179565b6109a7565b005b34801561020057600080fd5b5061021b600480360381019061021691906121cc565b610ad0565b005b34801561022957600080fd5b50610244600480360381019061023f9190611fd9565b610da4565b005b34801561025257600080fd5b5061026d6004803603810190610268919061226b565b610fdd565b005b34801561027b57600080fd5b5061029660048036038101906102919190612298565b61107a565b6040516102a5939291906122f3565b60405180910390f35b3480156102ba57600080fd5b506102c361110e565b6040516102d09190612438565b60405180910390f35b3480156102e557600080fd5b5061030060048036038101906102fb919061226b565b6111ab565b60405161031094939291906124d9565b60405180910390f35b34801561032557600080fd5b50610340600480360381019061033b9190612563565b61127d565b005b34801561034e57600080fd5b50610357611306565b005b34801561036557600080fd5b50610380600480360381019061037b919061226b565b61131a565b60405161038d919061269f565b60405180910390f35b61039e611515565b005b3480156103ac57600080fd5b506103c760048036038101906103c2919061226b565b611678565b6040516103d491906126c1565b60405180910390f35b3480156103e957600080fd5b506103f2611698565b6040516103ff9190612092565b60405180910390f35b34801561041457600080fd5b5061042f600480360381019061042a919061226b565b6116c1565b005b34801561043d57600080fd5b5061045860048036038101906104539190612298565b61184e565b60405161046591906126dc565b60405180910390f35b34801561047a57600080fd5b50610495600480360381019061049091906126fe565b6118fb565b005b3480156104a357600080fd5b506104ac61190d565b6040516104b991906127b2565b60405180910390f35b3480156104ce57600080fd5b506104e960048036038101906104e4919061226b565b611bf4565b005b3480156104f757600080fd5b50610512600480360381019061050d91906127d4565b611c77565b60405161051f9190612092565b60405180910390f35b600060011515600360003373ffffffffffffffffffffffffffffffffffffffff1673ffffffffffffffffffffffffffffffffffffffff16815260200190815260200160002060009054906101000a900460ff161515146105bd576040517f08c379a00000000000000000000000000000000000000000000000000000000081526004016105b49061288f565b60405180910390fd5b6000600560009054906101000a900473ffffffffffffffffffffffffffffffffffffffff1673ffffffffffffffffffffffffffffffffffffffff166307460b6685856040518363ffffffff1660e01b815260040161061c9291906128af565b6020604051808303816000875af115801561063b573d6000803e3d6000fd5b505050506040513d601f19601f8201168201806040525081019061065f91906128fb565b90508073ffffffffffffffffffffffffffffffffffffffff167f05f35573428dbee5ccc6f8cc1b3fd7124c4c5b206a288190526c8dbcceb7d2e460405160405180910390a28091505092915050565b60011515600360003373ffffffffffffffffffffffffffffffffffffffff1673ffffffffffffffffffffffffffffffffffffffff16815260200190815260200160002060009054906101000a900460ff16151514610741576040517f08c379a00000000000000000000000000000000000000000000000000000000081526004016107389061288f565b60405180910390fd5b600073ffffffffffffffffffffffffffffffffffffffff168273ffffffffffffffffffffffffffffffffffffffff16036107b0576040517f08c379a00000000000000000000000000000000000000000000000000000000081526004016107a790612974565b60405180910390fd5b600060405180606001604052803373ffffffffffffffffffffffffffffffffffffffff1681526020018473ffffffffffffffffffffffffffffffffffffffff1681526020016000151581525090506000600460008473ffffffffffffffffffffffffffffffffffffffff1673ffffffffffffffffffffffffffffffffffffffff168152602001908152602001600020805490509050600460008473ffffffffffffffffffffffffffffffffffffffff1673ffffffffffffffffffffffffffffffffffffffff16815260200190815260200160002082908060018154018082558091505060019003906000526020600020906002020160009091909190915060008201518160000160006101000a81548173ffffffffffffffffffffffffffffffffffffffff021916908373ffffffffffffffffffffffffffffffffffffffff16021790555060208201518160010160006101000a81548173ffffffffffffffffffffffffffffffffffffffff021916908373ffffffffffffffffffffffffffffffffffffffff16021790555060408201518160010160146101000a81548160ff02191690831515021790555050507fb191d948c661ec4d3d74c6d91969a1fb1f20200b5000054b7b22369d5625da12813385876040516109939493929190612994565b60405180910390a150505050565b60065481565b60011515600360003373ffffffffffffffffffffffffffffffffffffffff1673ffffffffffffffffffffffffffffffffffffffff16815260200190815260200160002060009054906101000a900460ff16151514610a3a576040517f08c379a0000000000000000000000000000000000000000000000000000000008152600401610a319061288f565b60405180910390fd5b600560009054906101000a900473ffffffffffffffffffffffffffffffffffffffff1673ffffffffffffffffffffffffffffffffffffffff1663171c00fd8484846040518463ffffffff1660e01b8152600401610a99939291906129d9565b600060405180830381600087803b158015610ab357600080fd5b505af1158015610ac7573d6000803e3d6000fd5b50505050505050565b60011515600160003373ffffffffffffffffffffffffffffffffffffffff1673ffffffffffffffffffffffffffffffffffffffff16815260200190815260200160002060010160019054906101000a900460ff16151514610b66576040517f08c379a0000000000000000000000000000000000000000000000000000000008152600401610b5d9061288f565b60405180910390fd5b610b6f33611cc0565b610bae576040517f08c379a0000000000000000000000000000000000000000000000000000000008152600401610ba590612a5c565b60405180910390fd5b6000600460003373ffffffffffffffffffffffffffffffffffffffff1673ffffffffffffffffffffffffffffffffffffffff1681526020019081526020016000208581548110610c0157610c00612a7c565b5b906000526020600020906002020160010160009054906101000a900473ffffffffffffffffffffffffffffffffffffffff1690506000600560009054906101000a900473ffffffffffffffffffffffffffffffffffffffff1673ffffffffffffffffffffffffffffffffffffffff16630d14e633838787876040518563ffffffff1660e01b8152600401610c989493929190612aab565b6020604051808303816000875af1158015610cb7573d6000803e3d6000fd5b505050506040513d601f19601f82011682018060405250810190610cdb9190612b13565b90506001600460003373ffffffffffffffffffffffffffffffffffffffff1673ffffffffffffffffffffffffffffffffffffffff1681526020019081526020016000208781548110610d3057610d2f612a7c565b5b906000526020600020906002020160010160146101000a81548160ff021916908315150217905550808273ffffffffffffffffffffffffffffffffffffffff167fd088ccfa0e91dc887c223bb5fcf223a4c9cee4e053bdbaefe26991bda0cec69760405160405180910390a3505050505050565b60001515600160003373ffffffffffffffffffffffffffffffffffffffff1673ffffffffffffffffffffffffffffffffffffffff16815260200190815260200160002060010160019054906101000a900460ff16151514610e3a576040517f08c379a0000000000000000000000000000000000000000000000000000000008152600401610e3190612b8c565b60405180910390fd5b600033905082600160008373ffffffffffffffffffffffffffffffffffffffff1673ffffffffffffffffffffffffffffffffffffffff1681526020019081526020016000206000019081610e8e9190612dae565b506000600160008373ffffffffffffffffffffffffffffffffffffffff1673ffffffffffffffffffffffffffffffffffffffff16815260200190815260200160002060010160016101000a81548160ff02191690831515021790555060018060008373ffffffffffffffffffffffffffffffffffffffff1673ffffffffffffffffffffffffffffffffffffffff16815260200190815260200160002060010160006101000a81548160ff02191690831515021790555033600283604051610f559190612ebc565b908152602001604051809103902060006101000a81548173ffffffffffffffffffffffffffffffffffffffff021916908373ffffffffffffffffffffffffffffffffffffffff1602179055507fdb93a33261a88e8784b5e49bf38f3c65c17793892e2c0c1c37f5d962eb4df3f681604051610fd09190612092565b60405180910390a1505050565b610fe5611d19565b6000600160008373ffffffffffffffffffffffffffffffffffffffff1673ffffffffffffffffffffffffffffffffffffffff16815260200190815260200160002060010160016101000a81548160ff0219169083151502179055507f55bae7298ec354ccfe06d703a73239bb68eb82b098cd7b64079ceb94545947cc8160405161106f9190612092565b60405180910390a150565b6004602052816000526040600020818154811061109657600080fd5b9060005260206000209060020201600091509150508060000160009054906101000a900473ffffffffffffffffffffffffffffffffffffffff16908060010160009054906101000a900473ffffffffffffffffffffffffffffffffffffffff16908060010160149054906101000a900460ff16905083565b6060600560009054906101000a900473ffffffffffffffffffffffffffffffffffffffff1673ffffffffffffffffffffffffffffffffffffffff16635d09be606040518163ffffffff1660e01b8152600401600060405180830381865afa15801561117d573d6000803e3d6000fd5b505050506040513d6000823e3d601f19601f820116820180604052508101906111a69190612fd9565b905090565b60016020528060005260406000206000915090508060000180546111ce90612bdb565b80601f01602080910402602001604051908101604052809291908181526020018280546111fa90612bdb565b80156112475780601f1061121c57610100808354040283529160200191611247565b820191906000526020600020905b81548152906001019060200180831161122a57829003601f168201915b5050505050908060010160009054906101000a900460ff16908060010160019054906101000a900460ff16908060020154905084565b611285611d19565b8073ffffffffffffffffffffffffffffffffffffffff166108fc479081150290604051600060405180830381858888f193505050501580156112cb573d6000803e3d6000fd5b507f07c755342db70f3cd9b012463bcfdc68a1009115e2f9910e5562f81d73e5c225306040516112fb9190612092565b60405180910390a150565b61130e611d19565b6113186000611d97565b565b606060011515600160003373ffffffffffffffffffffffffffffffffffffffff1673ffffffffffffffffffffffffffffffffffffffff16815260200190815260200160002060010160019054906101000a900460ff161515146113b2576040517f08c379a00000000000000000000000000000000000000000000000000000000081526004016113a99061288f565b60405180910390fd5b600460008373ffffffffffffffffffffffffffffffffffffffff1673ffffffffffffffffffffffffffffffffffffffff168152602001908152602001600020805480602002602001604051908101604052809291908181526020016000905b8282101561150a57838290600052602060002090600202016040518060600160405290816000820160009054906101000a900473ffffffffffffffffffffffffffffffffffffffff1673ffffffffffffffffffffffffffffffffffffffff1673ffffffffffffffffffffffffffffffffffffffff1681526020016001820160009054906101000a900473ffffffffffffffffffffffffffffffffffffffff1673ffffffffffffffffffffffffffffffffffffffff1673ffffffffffffffffffffffffffffffffffffffff1681526020016001820160149054906101000a900460ff16151515158152505081526020019060010190611411565b505050509050919050565b60065434101561155a576040517f08c379a00000000000000000000000000000000000000000000000000000000081526004016115519061306e565b60405180910390fd5b600360003373ffffffffffffffffffffffffffffffffffffffff1673ffffffffffffffffffffffffffffffffffffffff16815260200190815260200160002060009054906101000a900460ff16156115e7576040517f08c379a00000000000000000000000000000000000000000000000000000000081526004016115de906130da565b60405180910390fd5b6001600360003373ffffffffffffffffffffffffffffffffffffffff1673ffffffffffffffffffffffffffffffffffffffff16815260200190815260200160002060006101000a81548160ff0219169083151502179055507fc86877ade012ddbf21935d8659bf56f8635a21861dfc191a5e417a57fdca8c2a3360405161166e9190612092565b60405180910390a1565b60036020528060005260406000206000915054906101000a900460ff1681565b60008060009054906101000a900473ffffffffffffffffffffffffffffffffffffffff16905090565b6116c9611d19565b60001515600160008373ffffffffffffffffffffffffffffffffffffffff1673ffffffffffffffffffffffffffffffffffffffff16815260200190815260200160002060010160019054906101000a900460ff1615151461175f576040517f08c379a000000000000000000000000000000000000000000000000000000000815260040161175690613146565b60405180910390fd5b60018060008373ffffffffffffffffffffffffffffffffffffffff1673ffffffffffffffffffffffffffffffffffffffff16815260200190815260200160002060010160016101000a81548160ff0219169083151502179055506000600160008373ffffffffffffffffffffffffffffffffffffffff1673ffffffffffffffffffffffffffffffffffffffff16815260200190815260200160002060010160006101000a81548160ff0219169083151502179055507f30d05b2025fb2d037233ed74b152f14cada68119b8a2940f327d339e3dcc2e83816040516118439190612092565b60405180910390a150565b6060600560009054906101000a900473ffffffffffffffffffffffffffffffffffffffff1673ffffffffffffffffffffffffffffffffffffffff1663b913a1a984846040518363ffffffff1660e01b81526004016118ad929190613166565b600060405180830381865afa1580156118ca573d6000803e3d6000fd5b505050506040513d6000823e3d601f19601f820116820180604052508101906118f391906131ff565b905092915050565b611903611d19565b8060068190555050565b611915611e63565b61191d611698565b73ffffffffffffffffffffffffffffffffffffffff163373ffffffffffffffffffffffffffffffffffffffff16036119a35760405180604001604052806040518060400160405280601281526020017f536d617274436f6e74726163744f776e657200000000000000000000000000008152508152602001600015158152509050611bf1565b600360003373ffffffffffffffffffffffffffffffffffffffff1673ffffffffffffffffffffffffffffffffffffffff16815260200190815260200160002060009054906101000a900460ff1615611a495760405180604001604052806040518060400160405280600d81526020017f50726f70657274794f776e6572000000000000000000000000000000000000008152508152602001600015158152509050611bf1565b600160003373ffffffffffffffffffffffffffffffffffffffff1673ffffffffffffffffffffffffffffffffffffffff16815260200190815260200160002060010160019054906101000a900460ff1615611af25760405180604001604052806040518060400160405280601681526020017f436572746966696564446961676e6f7374696369616e000000000000000000008152508152602001600115158152509050611bf1565b60011515600160003373ffffffffffffffffffffffffffffffffffffffff1673ffffffffffffffffffffffffffffffffffffffff16815260200190815260200160002060010160009054906101000a900460ff16151503611ba15760405180604001604052806040518060400160405280601881526020017f556e636572746966696564446961676e6f7374696369616e00000000000000008152508152602001600015158152509050611bf1565b60405180604001604052806040518060400160405280600681526020017f4e6f526f6c65000000000000000000000000000000000000000000000000000081525081526020016000151581525090505b90565b611bfc611d19565b600073ffffffffffffffffffffffffffffffffffffffff168173ffffffffffffffffffffffffffffffffffffffff1603611c6b576040517f08c379a0000000000000000000000000000000000000000000000000000000008152600401611c62906132ba565b60405180910390fd5b611c7481611d97565b50565b6002818051602081018201805184825260208301602085012081835280955050505050506000915054906101000a900473ffffffffffffffffffffffffffffffffffffffff1681565b6000600160008373ffffffffffffffffffffffffffffffffffffffff1673ffffffffffffffffffffffffffffffffffffffff16815260200190815260200160002060010160019054906101000a900460ff169050919050565b611d21611e5b565b73ffffffffffffffffffffffffffffffffffffffff16611d3f611698565b73ffffffffffffffffffffffffffffffffffffffff1614611d95576040517f08c379a0000000000000000000000000000000000000000000000000000000008152600401611d8c90613326565b60405180910390fd5b565b60008060009054906101000a900473ffffffffffffffffffffffffffffffffffffffff169050816000806101000a81548173ffffffffffffffffffffffffffffffffffffffff021916908373ffffffffffffffffffffffffffffffffffffffff1602179055508173ffffffffffffffffffffffffffffffffffffffff168173ffffffffffffffffffffffffffffffffffffffff167f8be0079c531659141344cd1fd0a4f28419497f9722a3daafe3b4186f6b6457e060405160405180910390a35050565b600033905090565b6040518060400160405280606081526020016000151581525090565b6000604051905090565b600080fd5b600080fd5b600080fd5b600080fd5b6000601f19601f8301169050919050565b7f4e487b7100000000000000000000000000000000000000000000000000000000600052604160045260246000fd5b611ee682611e9d565b810181811067ffffffffffffffff82111715611f0557611f04611eae565b5b80604052505050565b6000611f18611e7f565b9050611f248282611edd565b919050565b600067ffffffffffffffff821115611f4457611f43611eae565b5b611f4d82611e9d565b9050602081019050919050565b82818337600083830152505050565b6000611f7c611f7784611f29565b611f0e565b905082815260208101848484011115611f9857611f97611e98565b5b611fa3848285611f5a565b509392505050565b600082601f830112611fc057611fbf611e93565b5b8135611fd0848260208601611f69565b91505092915050565b60008060408385031215611ff057611fef611e89565b5b600083013567ffffffffffffffff81111561200e5761200d611e8e565b5b61201a85828601611fab565b925050602083013567ffffffffffffffff81111561203b5761203a611e8e565b5b61204785828601611fab565b9150509250929050565b600073ffffffffffffffffffffffffffffffffffffffff82169050919050565b600061207c82612051565b9050919050565b61208c81612071565b82525050565b60006020820190506120a76000830184612083565b92915050565b6120b681612071565b81146120c157600080fd5b50565b6000813590506120d3816120ad565b92915050565b600080604083850312156120f0576120ef611e89565b5b60006120fe858286016120c4565b925050602061210f858286016120c4565b9150509250929050565b6000819050919050565b61212c81612119565b82525050565b60006020820190506121476000830184612123565b92915050565b61215681612119565b811461216157600080fd5b50565b6000813590506121738161214d565b92915050565b60008060006060848603121561219257612191611e89565b5b60006121a0868287016120c4565b93505060206121b1868287016120c4565b92505060406121c286828701612164565b9150509250925092565b600080600080608085870312156121e6576121e5611e89565b5b60006121f487828801612164565b945050602085013567ffffffffffffffff81111561221557612214611e8e565b5b61222187828801611fab565b935050604085013567ffffffffffffffff81111561224257612241611e8e565b5b61224e87828801611fab565b925050606061225f87828801612164565b91505092959194509250565b60006020828403121561228157612280611e89565b5b600061228f848285016120c4565b91505092915050565b600080604083850312156122af576122ae611e89565b5b60006122bd858286016120c4565b92505060206122ce85828601612164565b9150509250929050565b60008115159050919050565b6122ed816122d8565b82525050565b60006060820190506123086000830186612083565b6123156020830185612083565b61232260408301846122e4565b949350505050565b600081519050919050565b600082825260208201905092915050565b6000819050602082019050919050565b6000819050919050565b600061237b61237661237184612051565b612356565b612051565b9050919050565b600061238d82612360565b9050919050565b600061239f82612382565b9050919050565b6123af81612394565b82525050565b60006123c183836123a6565b60208301905092915050565b6000602082019050919050565b60006123e58261232a565b6123ef8185612335565b93506123fa83612346565b8060005b8381101561242b57815161241288826123b5565b975061241d836123cd565b9250506001810190506123fe565b5085935050505092915050565b6000602082019050818103600083015261245281846123da565b905092915050565b600081519050919050565b600082825260208201905092915050565b60005b83811015612494578082015181840152602081019050612479565b60008484015250505050565b60006124ab8261245a565b6124b58185612465565b93506124c5818560208601612476565b6124ce81611e9d565b840191505092915050565b600060808201905081810360008301526124f381876124a0565b905061250260208301866122e4565b61250f60408301856122e4565b61251c6060830184612123565b95945050505050565b600061253082612051565b9050919050565b61254081612525565b811461254b57600080fd5b50565b60008135905061255d81612537565b92915050565b60006020828403121561257957612578611e89565b5b60006125878482850161254e565b91505092915050565b600081519050919050565b600082825260208201905092915050565b6000819050602082019050919050565b6125c581612071565b82525050565b6125d4816122d8565b82525050565b6060820160008201516125f060008501826125bc565b50602082015161260360208501826125bc565b50604082015161261660408501826125cb565b50505050565b600061262883836125da565b60608301905092915050565b6000602082019050919050565b600061264c82612590565b612656818561259b565b9350612661836125ac565b8060005b83811015612692578151612679888261261c565b975061268483612634565b925050600181019050612665565b5085935050505092915050565b600060208201905081810360008301526126b98184612641565b905092915050565b60006020820190506126d660008301846122e4565b92915050565b600060208201905081810360008301526126f681846124a0565b905092915050565b60006020828403121561271457612713611e89565b5b600061272284828501612164565b91505092915050565b600082825260208201905092915050565b60006127478261245a565b612751818561272b565b9350612761818560208601612476565b61276a81611e9d565b840191505092915050565b60006040830160008301518482036000860152612792828261273c565b91505060208301516127a760208601826125cb565b508091505092915050565b600060208201905081810360008301526127cc8184612775565b905092915050565b6000602082840312156127ea576127e9611e89565b5b600082013567ffffffffffffffff81111561280857612807611e8e565b5b61281484828501611fab565b91505092915050565b7f596f75277265206e6f7420612063657274696669656420646961676e6f73746960008201527f6369616e00000000000000000000000000000000000000000000000000000000602082015250565b6000612879602483612465565b91506128848261281d565b604082019050919050565b600060208201905081810360008301526128a88161286c565b9050919050565b600060408201905081810360008301526128c981856124a0565b905081810360208301526128dd81846124a0565b90509392505050565b6000815190506128f5816120ad565b92915050565b60006020828403121561291157612910611e89565b5b600061291f848285016128e6565b91505092915050565b7f496e76616c69642070726f706572747920616464726573730000000000000000600082015250565b600061295e601883612465565b915061296982612928565b602082019050919050565b6000602082019050818103600083015261298d81612951565b9050919050565b60006080820190506129a96000830187612123565b6129b66020830186612083565b6129c36040830185612083565b6129d06060830184612083565b95945050505050565b60006060820190506129ee6000830186612083565b6129fb6020830185612083565b612a086040830184612123565b949350505050565b7f446961676e6f7374696369616e206973206e6f74207665726966696564000000600082015250565b6000612a46601d83612465565b9150612a5182612a10565b602082019050919050565b60006020820190508181036000830152612a7581612a39565b9050919050565b7f4e487b7100000000000000000000000000000000000000000000000000000000600052603260045260246000fd5b6000608082019050612ac06000830187612083565b8181036020830152612ad281866124a0565b90508181036040830152612ae681856124a0565b9050612af56060830184612123565b95945050505050565b600081519050612b0d8161214d565b92915050565b600060208284031215612b2957612b28611e89565b5b6000612b3784828501612afe565b91505092915050565b7f596f7527726520612063657274696669656420646961676e6f7374696369616e600082015250565b6000612b76602083612465565b9150612b8182612b40565b602082019050919050565b60006020820190508181036000830152612ba581612b69565b9050919050565b7f4e487b7100000000000000000000000000000000000000000000000000000000600052602260045260246000fd5b60006002820490506001821680612bf357607f821691505b602082108103612c0657612c05612bac565b5b50919050565b60008190508160005260206000209050919050565b60006020601f8301049050919050565b600082821b905092915050565b600060088302612c6e7fffffffffffffffffffffffffffffffffffffffffffffffffffffffffffffffff82612c31565b612c788683612c31565b95508019841693508086168417925050509392505050565b6000612cab612ca6612ca184612119565b612356565b612119565b9050919050565b6000819050919050565b612cc583612c90565b612cd9612cd182612cb2565b848454612c3e565b825550505050565b600090565b612cee612ce1565b612cf9818484612cbc565b505050565b5b81811015612d1d57612d12600082612ce6565b600181019050612cff565b5050565b601f821115612d6257612d3381612c0c565b612d3c84612c21565b81016020851015612d4b578190505b612d5f612d5785612c21565b830182612cfe565b50505b505050565b600082821c905092915050565b6000612d8560001984600802612d67565b1980831691505092915050565b6000612d9e8383612d74565b9150826002028217905092915050565b612db78261245a565b67ffffffffffffffff811115612dd057612dcf611eae565b5b612dda8254612bdb565b612de5828285612d21565b600060209050601f831160018114612e185760008415612e06578287015190505b612e108582612d92565b865550612e78565b601f198416612e2686612c0c565b60005b82811015612e4e57848901518255600182019150602085019450602081019050612e29565b86831015612e6b5784890151612e67601f891682612d74565b8355505b6001600288020188555050505b505050505050565b600081905092915050565b6000612e968261245a565b612ea08185612e80565b9350612eb0818560208601612476565b80840191505092915050565b6000612ec88284612e8b565b915081905092915050565b600067ffffffffffffffff821115612eee57612eed611eae565b5b602082029050602081019050919050565b600080fd5b6000612f0f82612071565b9050919050565b612f1f81612f04565b8114612f2a57600080fd5b50565b600081519050612f3c81612f16565b92915050565b6000612f55612f5084612ed3565b611f0e565b90508083825260208201905060208402830185811115612f7857612f77612eff565b5b835b81811015612fa15780612f8d8882612f2d565b845260208401935050602081019050612f7a565b5050509392505050565b600082601f830112612fc057612fbf611e93565b5b8151612fd0848260208601612f42565b91505092915050565b600060208284031215612fef57612fee611e89565b5b600082015167ffffffffffffffff81111561300d5761300c611e8e565b5b61301984828501612fab565b91505092915050565b7f496e636f727265637420726567697374726174696f6e20666565000000000000600082015250565b6000613058601a83612465565b915061306382613022565b602082019050919050565b600060208201905081810360008301526130878161304b565b9050919050565b7f4f776e657220616c726561647920726567697374657265640000000000000000600082015250565b60006130c4601883612465565b91506130cf8261308e565b602082019050919050565b600060208201905081810360008301526130f3816130b7565b9050919050565b7f416c726561647920636572746966696564000000000000000000000000000000600082015250565b6000613130601183612465565b915061313b826130fa565b602082019050919050565b6000602082019050818103600083015261315f81613123565b9050919050565b600060408201905061317b6000830185612083565b6131886020830184612123565b9392505050565b60006131a261319d84611f29565b611f0e565b9050828152602081018484840111156131be576131bd611e98565b5b6131c9848285612476565b509392505050565b600082601f8301126131e6576131e5611e93565b5b81516131f684826020860161318f565b91505092915050565b60006020828403121561321557613214611e89565b5b600082015167ffffffffffffffff81111561323357613232611e8e565b5b61323f848285016131d1565b91505092915050565b7f4f776e61626c653a206e6577206f776e657220697320746865207a65726f206160008201527f6464726573730000000000000000000000000000000000000000000000000000602082015250565b60006132a4602683612465565b91506132af82613248565b604082019050919050565b600060208201905081810360008301526132d381613297565b9050919050565b7f4f776e61626c653a2063616c6c6572206973206e6f7420746865206f776e6572600082015250565b6000613310602083612465565b915061331b826132da565b602082019050919050565b6000602082019050818103600083015261333f81613303565b905091905056fea26469706673582212207020cb57c1e8c0186a02ca18a501490f24e8584ab90928af31883918b36ce6be64736f6c63430008120033",
  "immutableReferences": {},
  "source": "// SPDX-License-Identifier: GPL-3.0\r\npragma solidity 0.8.18;\r\n\r\nimport \"@openzeppelin/contracts/token/ERC721/ERC721.sol\";\r\nimport \"@openzeppelin/contracts/token/ERC721/extensions/ERC721Enumerable.sol\";\r\nimport \"@openzeppelin/contracts/token/ERC721/extensions/ERC721URIStorage.sol\";\r\nimport \"@openzeppelin/contracts/access/AccessControl.sol\";\r\nimport \"@openzeppelin/contracts/utils/cryptography/draft-EIP712.sol\";\r\nimport \"@openzeppelin/contracts/token/ERC721/extensions/draft-ERC721Votes.sol\";\r\nimport \"@openzeppelin/contracts/utils/Counters.sol\";\r\nimport \"@openzeppelin/contracts/access/Ownable.sol\";\r\nimport \"./PropertyFactory.sol\";\r\n\r\ncontract PropertyManager is Ownable {\r\n    struct Diagnostician {\r\n        string name;\r\n        bool pendingVerification;\r\n        bool isCertified;\r\n        uint256 price;\r\n    }\r\n\r\n    struct DiagnosticRequest {\r\n        address propertyOwner;\r\n        address property;\r\n        bool isCompleted;\r\n    }\r\n\r\n    struct UserInfo {\r\n        string role;\r\n        bool isCertified;\r\n    }\r\n\r\n    //////// FIELDS\r\n    mapping(address => Diagnostician) public verifiedDiagnostician;\r\n    mapping(string => address) public siretToDiagnostician;\r\n    mapping(address => bool) public registeredOwners;\r\n    mapping(address => DiagnosticRequest[]) public diagnosticRequests; //diagnotician => requests to be done\r\n\r\n    PropertyFactory private _propertyFactory;\r\n    uint256 public registrationFee;\r\n\r\n    //////// CONSTRUCTOR\r\n    constructor(address propertyFactoryAddress) {\r\n        _propertyFactory = PropertyFactory(propertyFactoryAddress);\r\n    }\r\n\r\n    //////// EVENTS\r\n    event DiagnosticRequested(\r\n        uint256 requestId,\r\n        address propertyOwner,\r\n        address diagnostician,\r\n        address propertyAddress\r\n    );\r\n    event DiagnosticCreated(address indexed property, uint256 indexed tokenId);\r\n    event PropertyCreated(address indexed property);\r\n    event AskedVerification(address diagnosticianAddress);\r\n    event DiagnosticianCertified(address diagnosticianAddress);\r\n    event DiagnosticianRevoked(address diagnosticianAddress);\r\n    event OwnerRegistered(address ownerAddress);\r\n    event FundsWithdrawn(address account);\r\n    event DiagnosticRequested(\r\n        uint256 requestId,\r\n        address propertyOwner,\r\n        string propertyAddress\r\n    );\r\n\r\n    //////// MODIFIERS\r\n    modifier onlyCertifiedDiagnosticians() {\r\n        require(\r\n            verifiedDiagnostician[msg.sender].isCertified == true,\r\n            \"You're not a certified diagnostician\"\r\n        );\r\n        _;\r\n    }\r\n\r\n    modifier onlyUnCertifiedDiagnosticians() {\r\n        require(\r\n            verifiedDiagnostician[msg.sender].isCertified == false,\r\n            \"You're a certified diagnostician\"\r\n        );\r\n        _;\r\n    }\r\n\r\n    modifier onlyPropertyOwners() {\r\n        require(\r\n            registeredOwners[msg.sender] == true,\r\n            \"You're not a certified diagnostician\"\r\n        );\r\n        _;\r\n    }\r\n\r\n    //////// FUNCTIONS\r\n\r\n    function myself() public view returns (UserInfo memory) {\r\n        if (msg.sender == owner()) {\r\n            return UserInfo({role: \"SmartContractOwner\", isCertified: false});\r\n        } else if (registeredOwners[msg.sender]) {\r\n            return UserInfo({role: \"PropertyOwner\", isCertified: false});\r\n        } else if (verifiedDiagnostician[msg.sender].isCertified) {\r\n            return\r\n                UserInfo({role: \"CertifiedDiagnostician\", isCertified: true});\r\n        } else if (\r\n            verifiedDiagnostician[msg.sender].pendingVerification == true\r\n        ) {\r\n            return\r\n                UserInfo({\r\n                    role: \"UncertifiedDiagnostician\",\r\n                    isCertified: false\r\n                });\r\n        } else {\r\n            return UserInfo({role: \"NoRole\", isCertified: false});\r\n        }\r\n    }\r\n\r\n    function registerOwner() public payable {\r\n        require(msg.value >= registrationFee, \"Incorrect registration fee\");\r\n        require(!registeredOwners[msg.sender], \"Owner already registered\");\r\n        registeredOwners[msg.sender] = true;\r\n        emit OwnerRegistered(msg.sender);\r\n    }\r\n\r\n    function requestVerification(string memory _name, string memory _siret)\r\n        external\r\n        onlyUnCertifiedDiagnosticians\r\n    {\r\n        address requester = msg.sender;\r\n        verifiedDiagnostician[requester].name = _name;\r\n        verifiedDiagnostician[requester].isCertified = false;\r\n        verifiedDiagnostician[requester].pendingVerification = true;\r\n        siretToDiagnostician[_siret] = msg.sender;\r\n        emit AskedVerification(requester);\r\n    }\r\n\r\n    function verifyDiagnostician(address _diagnostician) public onlyOwner {\r\n        require(\r\n            verifiedDiagnostician[_diagnostician].isCertified == false,\r\n            \"Already certified\"\r\n        );\r\n        verifiedDiagnostician[_diagnostician].isCertified = true;\r\n        verifiedDiagnostician[_diagnostician].pendingVerification = false;\r\n        emit DiagnosticianCertified(_diagnostician);\r\n    }\r\n\r\n    function createProperty(string memory _name, string memory _symbol)\r\n        public\r\n        onlyPropertyOwners\r\n        returns (address)\r\n    {\r\n        address propertyAddress = _propertyFactory.createProperty(\r\n            _name,\r\n            _symbol\r\n        );\r\n\r\n        emit PropertyCreated(propertyAddress);\r\n        return propertyAddress;\r\n    }\r\n\r\n    function requestDiagnostic(address _propertyAddress, address _diagnostician)\r\n        public\r\n        onlyPropertyOwners\r\n    {\r\n        require(_propertyAddress != address(0), \"Invalid property address\");\r\n\r\n        DiagnosticRequest memory newRequest = DiagnosticRequest({\r\n            propertyOwner: msg.sender,\r\n            property: _propertyAddress,\r\n            isCompleted: false\r\n        });\r\n\r\n        uint256 requestId = diagnosticRequests[_diagnostician].length;\r\n        diagnosticRequests[_diagnostician].push(newRequest);\r\n        emit DiagnosticRequested(\r\n            requestId,\r\n            msg.sender,\r\n            _diagnostician,\r\n            _propertyAddress\r\n        );\r\n    }\r\n\r\n    function createDiagnostic(\r\n        uint256 requestId,\r\n        string memory _documentHash,\r\n        string memory _tokenURI,\r\n        uint256 _expiryDate\r\n    ) public onlyCertifiedDiagnosticians {\r\n        require(\r\n            _isDiagnosticianVerified(msg.sender),\r\n            \"Diagnostician is not verified\"\r\n        );\r\n        address property = diagnosticRequests[msg.sender][requestId].property;\r\n        uint256 tokenId = _propertyFactory.createDiagnostic(\r\n            property,\r\n            _documentHash,\r\n            _tokenURI,\r\n            _expiryDate\r\n        );\r\n        diagnosticRequests[msg.sender][requestId].isCompleted = true;\r\n        \r\n        emit DiagnosticCreated(property, tokenId);\r\n    }\r\n\r\n    function transferOwnership(\r\n        address _property,\r\n        address _to,\r\n        uint256 _tokenId\r\n    ) public onlyPropertyOwners{\r\n        _propertyFactory.transferOwnership(_property, _to, _tokenId);\r\n    }\r\n\r\n    function revokeDiagnosticianVerification(address _diagnostician)\r\n        public\r\n        onlyOwner\r\n    {\r\n        verifiedDiagnostician[_diagnostician].isCertified = false;\r\n        emit DiagnosticianRevoked(_diagnostician);\r\n    }\r\n\r\n    function _isDiagnosticianVerified(address diagnostician)\r\n        private\r\n        view\r\n        returns (bool)\r\n    {\r\n        return verifiedDiagnostician[diagnostician].isCertified;\r\n    }\r\n\r\n    function withdrawFunds(address payable _recipient) public onlyOwner {\r\n        // Implement withdrawal logic, e.g., onlyOwner modifier\r\n        _recipient.transfer(address(this).balance);\r\n        emit FundsWithdrawn(address(this));\r\n    }\r\n\r\n    function setRegistrationFee(uint256 _newFee) public onlyOwner {\r\n        registrationFee = _newFee;\r\n    }\r\n\r\n    function getDiagnosticRequests(address _diagnostician)\r\n        public\r\n        view\r\n        onlyCertifiedDiagnosticians\r\n        returns (DiagnosticRequest[] memory)\r\n    {\r\n        return diagnosticRequests[_diagnostician];\r\n    }\r\n\r\n    function getDiagnosticHash(address property, uint256 tokenId)\r\n        public\r\n        view\r\n        returns (string memory)\r\n    {\r\n        return _propertyFactory.getDiagnosticHash(property, tokenId);\r\n    }\r\n\r\n    function getUserProperties()\r\n        public\r\n        view\r\n        returns (Property[] memory)\r\n    {\r\n        return _propertyFactory.getUserProperties();\r\n    }\r\n    \r\n}\r\n",
  "sourcePath": "D:\\dev_blockchain\\final\\Diagnostify final\\truffle\\contracts\\PropertyManager.sol",
  "compiler": {
    "name": "solc",
    "version": "0.8.18+commit.87f61d96.Emscripten.clang"
  },
  "schemaVersion": "3.4.13",
  "updatedAt": "2023-04-08T19:47:09.771Z",
  "networkType": "ethereum",
  "devdoc": {
    "kind": "dev",
    "methods": {
      "owner()": {
        "details": "Returns the address of the current owner."
      },
      "renounceOwnership()": {
        "details": "Leaves the contract without owner. It will not be possible to call `onlyOwner` functions anymore. Can only be called by the current owner. NOTE: Renouncing ownership will leave the contract without an owner, thereby removing any functionality that is only available to the owner."
      },
      "transferOwnership(address)": {
        "details": "Transfers ownership of the contract to a new account (`newOwner`). Can only be called by the current owner."
      }
    },
    "version": 1
  },
  "userdoc": {
    "kind": "user",
    "methods": {},
    "version": 1
  }
}